:100000000C94AD010C94DE010C94DE010C94DE0125
:100010000C94DE010C94DE010C94DE010C94DE01E4
:100020000C94DE010C94DE010C94DE010C94DE01D4
:100030000C94DE010C94DE010C94DE010C94DE01C4
:100040000C94DE010C94DE010C94DE010C94DE01B4
:100050000C94DE010C94DE010C94DE010C944D0F27
:100060000C94DE010C94E10D0C94B70D0C94DE01A0
:100070000C94DE010C94DE010C94DE010C94DE0184
:100080000C94DE010C94DE010C94DE010C94DE0174
:100090000C94DE010C94DE010C94DE010C94B60F7E
:1000A0000C94DE010C94DE010C94DE010C94DE0154
:1000B0000C94DE010C94DE010C94DE010C94DE0144
:1000C0000C94DE010C94DE010C94DE010C94DE0134
:1000D0000C94DE010C94DE010C94DE010C94DE0124
:1000E0000C94DE01FF14A415B415C615D815EA1535
:1000F000FE1570097309620966096C09AA09770976
:100100007B098109850989098F0993099709AA093A
:100110009D09A109A50908000000BE922449123ECC
:10012000ABAAAA2ABECDCCCC4C3E00000080BEAB10
:10013000AAAAAA3E00000000BF000000803F000005
:10014000000000084178D3BB4387D1133D190E3C12
:10015000C3BD4282AD2B3E68EC8276BED98FE1A949
:100160003E4C80EFFFBE01C4FF7F3F000000000057
:100170000C94850E0C9433090C94140F0C9477098D
:100180000C94B4150C9481090C94FE150C94830EF8
:100190000C94D8150C947B090C940D0F0C94E60864
:1001A0000C9470090C94EE040C9466090C94AA0942
:1001B0000C9497090C94110F0C94FF140C9489095A
:1001C0000C94C6150C946C090C948F090C94BF16F2
:1001D0000C94180F0C94B10E0C9485090C946209C0
:1001E0000C947C110C94950E0C94A90E0C94AA08F6
:1001F0000C94AB090C94B8080C94A5090C94EA155E
:100200000C9493090C94840E0C94A1090C94A415DD
:100210000C949D090C94DE0E0C9403060C94730947
:100220000C9496080C94860E0C940E0F0C940B07ED
:100230000C9487080C944904000021002400270036
:100240002A002D00300033000101000004010701E5
:100250000A0100002200250028002B002E0031009A
:10026000340002010000050108010B01000020001C
:100270002300260029002C002F003200000100007E
:100280000301060109010505050507050808080819
:10029000020202020A0A080804040404010101011E
:1002A0000101010103030303030303030407070719
:1002B0000C0C0C0C0C0C0C0C0202020206060606BE
:1002C000060606060B0B0B0B0B0B0B0B010210208B
:1002D000200808102040102040800201020108047C
:1002E0000201010204081020408080402010080410
:1002F0000201800402018040201008040201080469
:1003000002010102040810204080010204081020AC
:10031000408000000A0B02090C0D0E0807030401BF
:1003200000000000000000000000000000000000CD
:10033000000000000000000000000000000012119A
:10034000100000000000000000000000000000009D
:100350000000000000000000BF1611241FBECFEFF8
:10036000D1E2DEBFCDBF00E00CBF16E0A0E0B2E0FE
:10037000E0E1F6E300E00BBF02C007900D92AE355E
:10038000B107D9F728E0AEE5B6E001C01D92A83963
:10039000B207E1F711E0CDEAD1E000E006C0219715
:1003A0000109802FFE010E94B41ACC3AD10780E0E7
:1003B0000807A9F70E94C8120C94061B0C940000B1
:1003C000BF92CF92DF92EF92FF920F931F93CF9342
:1003D000DF938C017B016A016430710534F00430D5
:1003E00011055CF5C0E0D0E024C0C4E0D0E0C61B3D
:1003F000D70B34E0B32E6B2D6C1B80E00E944A0AB1
:1004000087EF92E00E94760A2197A9F7E8CF6C2F38
:1004100080E00E944A0AF601819191916F010E9449
:10042000760A602F83E10E944A0A2196C430D105E2
:1004300019F1CE15DF055CF31FC0E8012397CE014B
:10044000880F991FC80ED91EB12CCE15DF05A4F454
:100450000C171D078CF06B2D80E00E944A0AF601F4
:10046000819191916F010E94760A63E083E10E947D
:100470004A0A2196B394E9CFDF91CF911F910F9152
:10048000FF90EF90DF90CF90BF900895CF93DF93D0
:10049000EC010E94810A61E080E00E944A0A8BE040
:1004A00093E00E94760A62E080E00E944A0A82E1BC
:1004B00093E00E94760A63E080E00E944A0ACE013F
:1004C0000E94760A0E94CF0B68EE73E080E090E015
:1004D0000E94170E0E94780ADF91CF910C94810A36
:1004E0003F924F925F926F927F928F929F92AF92C4
:1004F000BF92CF92DF92EF92FF920F931F93CF9311
:10050000DF935C014B012A0139013E2CE6010E9478
:10051000CF0B0E94810A60E080E00E944A0A8DE1D0
:1005200093E00E94760AC5010E94760A8DE694E067
:100530000E94760A61E080E00E944A0AF20180810E
:1005400091810E94D30AC4010E94760A62E080E091
:100550000E944A0A87E293E00E94760A6E2D70E0BC
:100560006F5F7F4F80E090E04AE00E94890A63E07D
:1005700080E00E944A0A83E393E00E94760A0E9488
:100580006B0C8434A1F08A32D1F7DF91CF911F91A7
:100590000F91FF90EF90DF90CF90BF90AF909F9022
:1005A0008F907F906F905F904F903F9008950E9442
:1005B000810A60E080E00E944A0A88E493E00E9499
:1005C000760AC5010E94760A8DE694E00E94760ABA
:1005D00061E080E00E944A0A81E593E00E94760A89
:1005E000C8010E94D30A87E593E00E94760AC301FE
:1005F0000E94D30A8CE593E00E94760A62E080E0D4
:100600000E944A0A8EE593E00E94760A63E080E049
:100610000E944A0AA12CB12C812C912C8AE0F82E40
:10062000F5E0AF16B10439F40E94810A0E94CF0BA5
:100630008EE693E043C00E946B0C90ED980F9A30C9
:1006400018F0843469F710C0F89C9001F99C300DC3
:100650001124892F90E04901880E991E0E94D30A27
:100660008FEFA81AB80ADCCF801691060CF1681437
:100670007904F4F0F20191828082A880B980CA8066
:10068000DB80EC80FD800E811F81288539854A85BD
:100690005B856C857D85FEE03F9EC00111240E9434
:1006A00082110E94810A0E94CF0B8BE793E006C063
:1006B0000E94810A0E94CF0B86E893E00E94760A8E
:1006C00068EE73E080E090E00E94170EDF91CF911A
:1006D0001F910F91FF90EF90DF90CF90BF90AF9060
:1006E0009F908F907F906F905F904F903F900C9471
:1006F000780ACF92DF92EF92FF9287E30E94970FE2
:10070000BC01990F880B990B0E94B3189B01AC0197
:1007100060E070E080E894E40E94091820E030E096
:1007200040E85FE30E94971720E030E44CE156E494
:100730000E94B8190E9470196B017C0129E537E409
:100740004CEB53E30E94B819A70196010E94B81917
:1007500023E73FE745E759E30E949817A701960171
:100760000E94B8192BEE3FEF43E95AE30E94981715
:100770009B01AC0160E070E080E89FE30E940918F3
:1007800023E333E948E853E40E949717FF90EF9082
:10079000DF90CF9008958F929F92AF92BF92CF92A9
:1007A000DF92EF92FF920F931F93CF93DF93FC01A1
:1007B0000F97DCF168017901CB01BA018F0120E0CC
:1007C00030E048EC52E40E94B8190E947B18EB011B
:1007D000B801110F880B990B0E94B31826E636E674
:1007E00046E650E40E9409184B015C01C701B601BE
:1007F0000E94B3189B01AC01C501B4010E94B81955
:1008000020E030E04AE754E40E9409180E947B1877
:10081000AB01BC01CE01BA010E945F1ACB01693C59
:1008200071052CF088EC90E002C080E090E0DF9150
:10083000CF911F910F91FF90EF90DF90CF90BF90DD
:10084000AF909F908F90089588E30E94970F9C012E
:10085000990F440B550B213084E0380741055105B1
:1008600034F457FF08C020E030E0A90104C020E0C4
:1008700034E040E050E0ACEDB0E00E94DA1ADC0178
:10088000CB012AE0B595A795979587952A95D1F73D
:100890000895CF92DF92EF92FF92CF93DF93EC0116
:1008A0000E94810A0E94CF0B85E494E00E94760AA0
:1008B0000E94410F2A813B816901330FEE08FF0836
:1008C0009B01AC012C193D094E095F0969017A01B0
:1008D000CE010E94CA110E94410FAB01BC014C190C
:1008E0005D096E097F098A819B81092E000CAA0B84
:1008F000BB0B84179507A607B707B0F461E088E043
:100900000E944A0A0E9424040E94D30A8EE494E0C2
:100910000E94760A8A819B81092E000CAA0BBB0BD0
:10092000C80ED91EEA1EFB1E0E946B0C8A3281F68D
:10093000DF91CF91FF90EF90DF90CF900C94780AE9
:100940000F931F9360E083E00E94000C83E090E02F
:100950000197F1F761E083E00E94000C83E290E0F0
:100960000197F1F760E083E00E94000CEEECF2E00A
:100970006491E8E8F2E0E491F0E0EE0FFF1FE45943
:10098000FD4F8591949100E21EE420E030E0462F77
:100990000E948312611571058105910539F0DC0112
:1009A000CB010196A11DB11DBF7003C080E090E096
:1009B000DC01BC01990F880B990B0E94B31826E942
:1009C00033E44BE05DE30E94B81920E030E040E002
:1009D0005FE30E94B8191F910F9108952F923F92E3
:1009E0004F925F926F927F928F929F92AF92BF923F
:1009F000CF92DF92EF92FF920F931F93CF93DF93EB
:100A000000D000D0CDB7DEB79E838D83DC012D9161
:100A10003C91FC01A481B5810E94BC1A24E630E01F
:100A200040E050E00E94951A49015A010E94810A53
:100A30000E94CF0B60E080E00E944A0A87E594E0C4
:100A40000E94760A61E080E00E944A0A85E694E00E
:100A50000E94760A62E080E00E944A0A80E794E001
:100A60000E94760A63E080E00E944A0A8AE794E0E6
:100A70000E94760A0E94410FAD81BE8112962D918F
:100A80003C9113978901330F220B330B6B017C01CF
:100A9000C01AD10AE20AF30AC401990CAA0BBB0BD3
:100AA00089839A83AB83BC838D819E810E94CA1106
:100AB0000E94410FAB01BC014C195D096E097F0911
:100AC000AD81BE8112968D919C911397092E000CD9
:100AD000AA0BBB0B84179507A607B70708F072C0CF
:100AE0000E9479032B013C010E94A0044B015C0190
:100AF0000E9424041C01ED81FE8100811181012EE0
:100B0000000C220B330BB501A4010E94CB038C0116
:100B1000AD81BE8116966D917C911797072E000CC2
:100B2000880B990B0E94B3189B01AC01C301B20161
:100B30000E94041887FF0AC009811A812B813C8119
:100B4000B501A401C1010E94CB038C0160E08CE0DF
:100B50000E944A0A42E0C301B2010E94010B87E8E9
:100B600094E00E94760A61E089E00E944A0A42E02D
:100B7000C501B4010E94010B8BE894E00E94760A43
:100B800062E088E00E944A0AC1010E94D30A8EE412
:100B900094E00E94760A63E08BE00E944A0AC80152
:100BA0000E94D30A87E093E00E94760AED81FE81DD
:100BB00082819381092E000CAA0BBB0BC80ED91E93
:100BC000EA1EFB1E0E946B0C8A3209F06DCF0E9458
:100BD000780A26960FB6F894DEBF0FBECDBFDF9120
:100BE000CF911F910F91FF90EF90DF90CF90BF902A
:100BF000AF909F908F907F906F905F904F903F90BD
:100C00002F900C94810A2F923F924F925F926F9295
:100C10007F928F929F92AF92BF92CF92DF92EF928C
:100C2000FF920F931F93CF93DF9300D000D0CDB7E7
:100C3000DEB79E838D83FC0120813181A481B58143
:100C40000E94BC1A24E630E040E050E00E94951A71
:100C500049015A010E94810A0E94CF0B60E080E0A6
:100C60000E944A0A81E994E00E94760A62E080E0EC
:100C70000E944A0A86EA94E00E94760A0E94410F86
:100C8000ED81FE81228133818901330F220B330BE9
:100C90006B017C01C01AD10AE20AF30A092C000C8C
:100CA000AA08BB088D819E810E94CA110E94410F33
:100CB000AB01BC014C195D096E097F09ED81FE8114
:100CC00082819381092E000CAA0BBB0B8417950718
:100CD000A607B70708F07EC00E94A0040E947B18F8
:100CE00069837A838B839C83ED81FE8120803180B0
:100CF0000E9424048C010E9479032B013C01ED81A8
:100D0000FE8166817781072E000C880B990B0E946B
:100D1000B3189B01AC01C301B2010E94041887FD06
:100D200013C0B801110F880B990B0E94B31826E667
:100D300036E646E650E40E9409182B013C01B10159
:100D4000330C880B990B12C00E942404BC01990F2C
:100D5000880B990B0E94B31826E636E646E650E467
:100D60000E9409182B013C01C501B4010E94B3186F
:100D70009B01AC01C301B2010E94B81920E030E030
:100D80004AE754E40E9409180E947B188B0161E035
:100D900088E00E944A0A89819A810E94D30A8AEBDC
:100DA00094E00E94760A63E088E00E944A0AC80143
:100DB0000E94D30A8AEB94E00E94760AED81FE81BC
:100DC00082819381092E000CAA0BBB0BC80ED91E81
:100DD000EA1EFB1E0E946B0C8A3209F063CF0E9450
:100DE000780A26960FB6F894DEBF0FBECDBFDF910E
:100DF000CF911F910F91FF90EF90DF90CF90BF9018
:100E0000AF909F908F907F906F905F904F903F90AA
:100E10002F900C94810A2F923F924F925F926F9283
:100E20007F928F929F92AF92BF92CF92DF92EF927A
:100E3000FF920F931F93CF93DF9300D000D0CDB7D5
:100E4000DEB79E838D83DC012D913C91FC01A48152
:100E5000B5810E94BC1A24E630E040E050E00E94D8
:100E6000951A49015A010E94810A0E94CF0B0E94E3
:100E7000410FAD81BE8112962D913C91139789014E
:100E8000330F220B330B6B017C01C01AD10AE20A2B
:100E9000F30A212C312CC401990CAA0BBB0B8983BA
:100EA0009A83AB83BC838D819E810E94CA110E946C
:100EB000410FAB01BC014C195D096E097F09AD8181
:100EC000BE8112968D919C911397092E000CAA0B4E
:100ED000BB0B84179507A607B70708F0D6C00E947A
:100EE00079034B015C01ED81FE8166817781072EDC
:100EF000000C880B990B0E94B3189B01AC01C50133
:100F0000B4010E94631918169CF4AD81BE818D90C6
:100F10009C90092C000CAA08BB080E94A0042B017D
:100F20003C010E94240495018401B301A2010CC07C
:100F30000E94A0044B015C010E94240409811A81D3
:100F40002B813C81B501A4010E94CB032101032C1C
:100F5000000C660877084C01990FAA08BB08B7E98E
:100F60008B169104A104B1042CF4B7FC05C09401C4
:100F7000A50106C026E901C020E030E040E050E0D5
:100F8000A0EFBFEF0E94E81A26E930E040E050E011
:100F90000E94951ADA01C9014096A11DB11D48169B
:100FA00059066A067B0609F464C0E7E98E169104C7
:100FB000A104B10434F4B7FE09C0812C912C540172
:100FC00005C086E9882E912CA12CB12CA0EFBFEF93
:100FD000A50194010E94E81A26E930E040E050E0C3
:100FE0000E94951A49015A01F0E18F0E911CA11C33
:100FF000B11C140160E080E00E944A0A87EF92E091
:101000000E94760A61E080E00E944A0A87EF92E03F
:101010000E94760A62E086E00E944A0A85E00E9409
:10102000CA0A63E086E00E944A0A85E00E94CA0A72
:1010300010E0612F83E10E944A0A86E00E94CA0AFA
:101040001F5F1430B1F708E812E0D8018D919C9130
:101050008F3FBFEF9B0769F0F8016281880D0E9406
:101060004A0AD80114968C910E94CA0A0B5F1F4F3E
:10107000ECCFED81FE8182819381092E000CAA0BB9
:10108000BB0BC80ED91EEA1EFB1E0E946B0C8A32D7
:1010900009F009CF26960FB6F894DEBF0FBECDBF7C
:1010A000DF91CF911F910F91FF90EF90DF90CF9044
:1010B000BF90AF909F908F907F906F905F904F9078
:1010C0003F902F900C94780A96E0899FD0011124CC
:1010D000A45AB84F90967C936E935F9791E0919647
:1010E0009C9391979091C807E091C907F091CA0726
:1010F000992339F0309751F0811108C08091780719
:1011000004C0309719F05C968C9119940895FC01F5
:10111000538D448D252F30E0842F90E0821B930B5C
:10112000541710F0CF96089501970895FC01918D02
:10113000828D981761F0828DDF01A80FB11D5D9639
:101140008C91928D9F5F9F73928F90E008958FEFA7
:101150009FEF0895FC01918D828D981731F0828D5B
:10116000E80FF11D858D90E008958FEF9FEF0895B2
:10117000FC01918D228D892F90E0805C9F4F821B16
:1011800091098F7399270895FC01848DDF01A80FC1
:10119000B11DA35ABF4F2C91848D90E001968F739F
:1011A0009927848FA689B7892C93A089B1898C91BE
:1011B000837080648C93938D848D981306C002880D
:1011C000F389E02D80818F7D80830895EF92FF92D7
:1011D0000F931F93CF93DF93EC0181E0888F9B8D5A
:1011E0008C8D981305C0E889F989808185FD26C01A
:1011F000F62E0B8D10E00F5F1F4F0F731127E02E9F
:101200008C8DE8120CC00FB607FCFACFE889F9897B
:10121000808185FFF5CFCE010E94C408F1CF8B8D70
:10122000FE01E80FF11DE35AFF4FF0829FB7F894DB
:101230000B8FEA89FB89808180620AC09FB7F8948E
:10124000EE89FF896083E889F989808183708064F1
:1012500080839FBF81E090E0DF91CF911F910F913C
:10126000FF90EF900895CF93DF93EC01888D882352
:10127000C9F0EA89FB89808185FD05C0A889B98903
:101280008C9186FD0FC00FB607FCF5CF808185FFDE
:10129000F2CFA889B9898C9185FFEDCFCE010E944C
:1012A000C408E7CFDF91CF91089590E0FC0131971A
:1012B000E231F10508F04EC08827E758FF4F8F4F05
:1012C0000C94B41A809180008F7703C080918000C5
:1012D0008F7D80938000089580918000877FF9CF73
:1012E00084B58F7702C084B58F7D84BD08958091C9
:1012F000B0008F7703C08091B0008F7D8093B000E5
:101300000895809190008F7707C0809190008F7D25
:1013100003C080919000877F809390000895809112
:10132000A0008F7707C08091A0008F7D03C08091BF
:10133000A000877F8093A0000895809120018F777F
:1013400007C0809120018F7D03C080912001877F9D
:10135000809320010895CF92DF92EF92FF920F9336
:101360001F93CF93DF936C017A018B01C0E0D0E033
:10137000CE15DF0581F0D8016D918D01D601ED917B
:10138000FC910190F081E02DC6011995892B11F097
:101390002196EECF7E01C701DF91CF911F910F9172
:1013A000FF90EF90DF90CF900895009769F0FC01D7
:1013B00001900020E9F73197AF01481B590BBC01A0
:1013C0008BEC97E00C94AB0980E090E008950F93CC
:1013D0001F93CF93DF93C82FD62F86E0C89FF001CD
:1013E0001124E45AF84F11A2878D90A18130910504
:1013F000D9F040F082309105A9F10397F1F560E052
:1014000070E034C06623C9F161E070E08C2F0E9467
:1014100064080E94410F6093B4077093B5078093EE
:10142000B6079093B70729C00E94410F0091B407F7
:101430001091B5072091B6073091B707AB01BC01F9
:10144000401B510B620B730B8091C6079091C7072D
:10145000A0E0B0E084179507A607B70718F462E08C
:1014600070E004C0D11109C063E070E08C2FDF91FF
:10147000CF911F910F910C946408DF91CF911F9130
:101480000F9108950E94011B40E0682F8BEC97E0BC
:101490000C946511CF93DF93CDB7DEB728970FB6C5
:1014A000F894DEBF0FBECDBF98E0E5EBF2E0DE01C1
:1014B000119601900D929A95E1F79091D3079617A6
:1014C00010F46FEF690FFE013196E60FF11DE60F84
:1014D000F11D9081890F806828960FB6F894DEBFC1
:1014E0000FBECDBFDF91CF910C94440A0C94D50967
:1014F000EBECF7E08681982F926096838A600C94DB
:10150000440A81E00E94440A8BE39FE10197F1F7CE
:1015100008958F929F92AF92BF920F931F93CF9394
:10152000DF93CDB7DEB7A1970FB6F894DEBF0FBE3D
:10153000CDBF19A2423008F44AE08E010F5D1F4F63
:10154000842E912CA12CB12CA50194010E94731A18
:10155000E62FB901CA0101501109EA3014F4E05D27
:1015600001C0E95CD801EC93232B242B252B61F7D8
:10157000C8010E94D509A1960FB6F894DEBF0FBE30
:10158000CDBFDF91CF911F910F91BF90AF909F90F2
:101590008F90089541E0682F8BEC97E00E946511D1
:1015A00081E090E00895CF92DF92EF92FF92CF9387
:1015B000DF936C01990FEE08FF08F7FE17C08DE26C
:1015C0000E94CA0AEC0166277727CB016C197D09B6
:1015D0008E099F094AE00E94890A8C0F9D1FDF91A6
:1015E000CF91FF90EF90DF90CF9008954AE0C70130
:1015F000B601DF91CF91FF90EF90DF90CF900C94E8
:10160000890A8F929F92AF92BF92CF92DF92EF9210
:10161000FF920F931F93CF93DF936B017C01142FE5
:101620009B01AC010E94251A882319F081E596E000
:1016300027C046015701E894B7F82FEF3FEF4FE777
:101640005FE7C501B4010E94251A81110DC02FEF7B
:101650003FEF4FE75FE7C501B4010E940418181679
:101660001CF485E596E00CC02FEF3FEF4FE75FE4F9
:10167000C701B6010E946319181684F489E596E043
:10168000DF91CF911F910F91FF90EF90DF90CF905E
:10169000BF90AF909F908F900C94D5092FEF3FEFA4
:1016A0004FE75FECC701B6010E94041887FDE6CF43
:1016B00020E030E0A901C701B6010E94041887FFAD
:1016C00009C08DE20E94CA0AEC01F7FAF094F7F81B
:1016D000F09402C0C0E0D0E000E060E070E080E0A4
:1016E0009FE3101741F020E030E040E251E40E9417
:1016F00009180F5FF6CFA70196010E9498176B019A
:101700007C010E9482184B015C014AE00E94890A18
:10171000C80FD91F1123A9F1C501B4010E94B11846
:101720009B01AC01C701B6010E9497176B017C01B8
:101730008EE20E94CA0AC80FD91F20E030E040E2C2
:1017400051E4C701B6010E94B8194B015C010E9427
:1017500082186B01E12CF12C4AE0C701B6010E940E
:10176000890AC80FD91FC701B6010E94B1189B0191
:10177000AC01C501B4010E9497176B017C011150A7
:10178000E1F6CE01DF91CF911F910F91FF90EF9085
:10179000DF90CF90BF90AF909F908F900895EBEC2B
:1017A000F7E086818D7F868388600C94440ACF930E
:1017B000DF93282F30E0F901EE5EFC4F8491F901B0
:1017C000E453FD4FD491F901EA57FD4FC491CC2366
:1017D00091F081110E945509EC2FF0E0EE0FFF1FF0
:1017E000E459FD4FA591B491EC91ED2381E090E097
:1017F00021F480E002C080E090E0DF91CF91089575
:101800001F93CF93DF93282F30E0F901EE5EFC4F5A
:101810008491F901E453FD4FD491F901EA57FD4F4A
:10182000C491CC23C1F0162F81110E945509EC2FD1
:10183000F0E0EE0FFF1FEE5AFD4FA591B4919FB758
:10184000F894111104C08C91D095D82302C0EC916A
:10185000DE2BDC939FBFDF91CF911F910895CF9333
:10186000DF9390E0FC01E453FD4F2491FC01EA5723
:10187000FD4F8491882361F190E0880F991FFC014E
:10188000E85CFD4FC591D491FC01EE5AFD4FA59146
:10189000B491611109C09FB7F89488812095822383
:1018A0008883EC912E230BC0623061F49FB7F894CB
:1018B0008881322F309583238883EC912E2B2C93B3
:1018C0009FBF06C08FB7F894E8812E2B28838FBF67
:1018D000DF91CF9108956F927F928F929F92AF92F6
:1018E000BF92CF92DF92EF92FF920F931F93CF930D
:1018F000DF9381E08093C8070E94410F0091B807F1
:101900001091B9072091BA073091BB07AB01BC0118
:10191000401B510B620B730B8091C4079091C5075C
:10192000A0E0B0E084179507A607B70708F0E6C067
:10193000C0E08091C207C81730F0712C812C912C27
:101940005401839440C0E091BE07F091BF07EC0FB3
:10195000F11D62E080810E942F0CCF5FEACFC62D7F
:10196000D0E0E091BE07F091BF07EC0FFD1F808132
:101970000E94D70B2496CC0FDD1FC45AD84F892B59
:1019800009F04BC0888199818C299D29998388838E
:1019900063948091C207681610F3E091C007F0913C
:1019A000C107E00FF11F61E080810E94000C80916F
:1019B000C0079091C107FC01E00FF11F60E080813A
:1019C0000E942F0C73948091C307781658F5072D49
:1019D00010E0E091C007F091C107E00FF11F61E056
:1019E00080810E942F0CE091C007F091C107E00FA9
:1019F000F11F60E080810E94000CD501C401072C1A
:101A000004C0880F991FAA1FBB1F0A94D2F76C014C
:101A10007C01E094F094612CBCCF888199818E2167
:101A20009F21B4CF2CE5E22E27E0F22EF7018FEFB5
:101A30009FEF278D30A1232B21F4148E968F858F55
:101A400011A2369627E0E839F20799F7C0E096E050
:101A5000D92E8091C207C81758F5D0E00C2F10E09E
:101A6000000F111F0C59184F2091C307D217F0F423
:101A7000F801408151810D2E02C0569547950A9478
:101A8000E2F7642F6170C29F900111242D0F311D68
:101A9000ECE5F7E080E0A58DB68D2A173B0709F449
:101AA0004DC08F5F36968A30B1F72CC0CF5FD1CF53
:101AB000C0E0F70181A18111C1E0F6E0EF0EF11C59
:101AC00028E9E21627E0F206A1F70E94410F609391
:101AD000B8077093B9078093BA079093BB07CC23DC
:101AE00069F080917D07882349F080917B07909170
:101AF0007C07019719F4809178072AC01092C807D3
:101B000080E026C040FF1CC0ECE5F7E080E090E0FC
:101B1000448D411117C0E091BC07F091BD07E20F61
:101B2000F31F4081D89EF001D99EF00D1124E45A94
:101B3000F84F448F368F258F10A2178E0E94E70929
:101B4000DF5F92CF019636968A30910509F7F8CF7C
:101B5000DF91CF911F910F91FF90EF90DF90CF9089
:101B6000BF90AF909F908F907F906F9008951F923D
:101B70000F920FB60F9211240BB60F922F933F9333
:101B80004F935F936F937F938F939F93AF93BF9385
:101B9000EF93FF9383EB96E00E94C408FF91EF91CF
:101BA000BF91AF919F918F917F916F915F914F9175
:101BB0003F912F910F900BBE0F900FBE0F901F9073
:101BC00018951F920F920FB60F9211240BB60F9219
:101BD0002F938F939F93EF93FF93E091C306F09120
:101BE000C4068081E091C906F091CA0682FD12C048
:101BF00090818091CC068F5F8F732091CD068217E4
:101C000051F0E091CC06F0E0ED54F94F958F8093C0
:101C1000CC0601C08081FF91EF919F918F912F9110
:101C20000F900BBE0F900FBE0F901F9018958F92C4
:101C30009F92AF92BF92CF92DF92EF92FF926B0191
:101C40007C010E941C0F4B015C01C114D104E10412
:101C5000F104F1F00E941C0FDC01CB0188199909F5
:101C6000AA09BB09883E9340A105B10570F321E0A4
:101C7000C21AD108E108F10888EE880E83E0981EA8
:101C8000A11CB11CC114D104E104F10419F7DDCF8A
:101C9000FF90EF90DF90CF90BF90AF909F908F908C
:101CA000089585ED8093BC008091BC0084FDFCCF3D
:101CB0001092DF07089540914808262F30E0240F46
:101CC000311D21323105DCF42091DF072430C9F4C5
:101CD000FC0180E090E0861758F43091480821918B
:101CE000DC01A85DB74FA30FB11D2C930196F3CF74
:101CF00080914808680F6093480880E0089581E06B
:101D0000089582E00895089508950895E091D80710
:101D10008091D707E81730F4F0E0E85FF74F808153
:101D200090E008958FEF9FEF08959091D8078091EC
:101D3000D707981750F4E92FF0E0E85FF74F2081BC
:101D400030E09F5F9093D80702C02FEF3FEFC901AB
:101D500008958091D70790E02091D807821B9109C0
:101D60000895CF92DF92EF92FF920F931F93CF933C
:101D7000DF937C01CB018A0120910708222389F09F
:101D8000EB016B01C40ED51ECC15DD0569F0699120
:101D9000D701ED91FC910190F081E02DC7011995DB
:101DA000F3CF642F0E945B0EC801DF91CF911F918A
:101DB0000F91FF90EF90DF90CF900895CF93DF9336
:101DC0001F92CDB7DEB76983209107082223D1F097
:101DD0002091D907203240F021E030E0FC0133832C
:101DE000228380E090E015C08091DA07E82FF0E0D0
:101DF000E951F84F998190838F5F8093DA07809340
:101E0000D90705C061E0CE0101960E945B0E81E01A
:101E100090E00F90DF91CF910895089580E090E0D9
:101E20000895862F0C94D70B862F642F0C94000CEA
:101E3000862F642F0C942F0C3FB7F8948091940850
:101E400090919508A0919608B091970826B5A89B07
:101E500005C02F3F19F00196A11DB11D3FBFBA2F3C
:101E6000A92F982F8827820F911DA11DB11DBC019C
:101E7000CD0142E0660F771F881F991F4A95D1F761
:101E800008952FB7F894609190087091910880910F
:101E90009208909193082FBF08951F920F920FB64A
:101EA0000F9211242F933F938F939F93AF93BF93E0
:101EB0008091900890919108A0919208B091930818
:101EC00030918F0823E0230F2D3720F40196A11DB8
:101ED000B11D05C026E8230F0296A11DB11D209358
:101EE0008F088093900890939108A0939208B093E4
:101EF00093088091940890919508A0919608B091CC
:101F000097080196A11DB11D8093940890939508A0
:101F1000A0939608B0939708BF91AF919F918F912E
:101F20003F912F910F900FBE0F901F901895863301
:101F300008F0865390917B00282F2870977F922B72
:101F400090937B008770806480937C0080917A00FE
:101F5000806480937A0080917A0086FDFCCF809126
:101F600078002091790090E0922B08951F920F92B3
:101F70000FB60F9211240BB60F922F933F934F93EE
:101F80005F936F937F938F939F93AF93BF93EF93E1
:101F9000FF938091B900887F803609F49CC068F572
:101FA000883209F45BC090F4803109F454C038F4ED
:101FB000882309F4F6C0883009F44DC0F6C0883192
:101FC00009F44CC0803209F45DC0EFC0803409F4DC
:101FD00068C048F4803309F455C0883309F0E5C07F
:101FE00080936B08D8C0803509F44FC0883509F458
:101FF0005DC0883409F0D9C0D6C0883909F4C7C09B
:10200000A8F4883709F467C038F4883609F463C047
:10201000803709F460C0C9C0883809F4B8C0803975
:1020200009F45FC0803809F0C0C05BC0803B09F490
:1020300086C038F4803A09F466C0883A09F47FC053
:10204000B4C0803C09F4A7C0883C09F4A4C0883B14
:1020500009F48AC0AAC080918E0810C090918D08A2
:1020600080918C08981770F5E0918D0881E08E0FB3
:1020700080938D08F0E0E459F74F80818093BB0096
:1020800085EC86C080936B088EC0E0918D0881E05E
:102090008E0F80938D088091BB00F0E0E459F74FDC
:1020A000808390918D0880918C086EC0E0918D089E
:1020B00081E08E0F80938D088091BB00F0E0E459A1
:1020C000F74F80838091E10781116DC081E080939B
:1020D000E00784EA61C083E08093DF0710926A081A
:1020E000CFCF80916A08803208F051C0E0916A0831
:1020F00081E08E0F80936A088091BB00F0E0E65B80
:10210000F74F8083BDCF85EC8093BC001092DF0732
:1021100080916A08803230F4E0916A08F0E0E65B72
:10212000F74F108260916A0870E0E091DD07F0914E
:10213000DE078AE498E0199510926A0836C084E0B8
:102140008093DF071092490810924808E091DB075E
:10215000F091DC07199580914808811105C081E054
:102160008093480810922808E091490881E08E0F7A
:1021700080934908F0E0E85DF74F80818093BB00D1
:102180009091490880914808981708F479CF85E81C
:102190008093BC000AC085EC8093BC001092DF07DE
:1021A00004C010926B080E94510EFF91EF91BF91F5
:1021B000AF919F918F917F916F915F914F913F91DF
:1021C0002F910F900BBE0F900FBE0F901F90189580
:1021D000CF93FC01C48121E020930708C093E60758
:1021E0001092DA071092D9078385682B80E597E073
:1021F0000E94DE0E9091D907913208F045C080917F
:10220000DF078111FCCF82E08093DF0781E08093BC
:10221000E1078FEF80936B0810928D0890938C08E4
:10222000A7EEB7E0ECE6F8E080E0981721F02D91FA
:1022300021938F5FFACF10928E0880918E08CC0F79
:10224000C82BC0938E088091E007813061F4109212
:10225000E00780918E088093BB008091BC0083FDD5
:10226000F8CF85EC01C085EE8093BC008091DF073C
:102270008230E1F380916B088F3F31F080916B08E1
:10228000803211F080916B081092DA071092D90712
:1022900010920708CF9108950F931F93CF938C014D
:1022A000C62F0E94E8106C2F6460C8010E94E810DD
:1022B0006C2F6B7FC8010E94E81083EC90E00197BF
:1022C000F1F7CF911F910F9108950F931F93CF9323
:1022D000DF938C01C62FD42F607F642B0E944C119A
:1022E00080E1C89FB00111246D2BC801DF91CF910F
:1022F0001F910F910C944C1141E00E94651181E0F7
:1023000090E008958F929F92AF92BF92CF92DF920A
:10231000EF92FF920F931F93CF93DF93CDB7DEB76A
:102320002E970FB6F894DEBF0FBECDBF4C01A98229
:10233000BA82CB82DC82ED82FE820F8318872987E6
:102340003A874B875C876D877E87CE0101967C013B
:1023500000E010E0F70161917F01C801880D991D2F
:102360000E9489170F5F1F4F0E30110599F72E96A7
:102370000FB6F894DEBF0FBECDBFDF91CF911F9196
:102380000F91FF90EF90DF90CF90BF90AF909F9014
:102390008F9008954F925F926F927F92AF92BF920B
:1023A000CF92DF92EF92FF920F931F93CF93DF9321
:1023B0005C01FC01C080D1800D2C000CEE08FF08F0
:1023C0000E94A0042B013C010E9424049701860175
:1023D000B301A2010E94CB03EC01F5018085918538
:1023E000892B09F481C00E94410FC090E207D09070
:1023F000E307E090E407F090E5072091A702309111
:10240000A8022901612C712CAB01BC014C195D099A
:102410006E097F09441655066606770608F064C003
:10242000D701C601840D951DA61DB71D8093E20737
:102430009093E307A093E407B093E507209779F121
:10244000CE01DD0FAA0BBB0B85369105A105B105A9
:1024500054F48E319105A105B1054CF48EE190E064
:10246000A0E0B0E004C084E690E0A0E0B0E09C0111
:10247000AD012E51310941095109ACE2B1E00E9490
:10248000DA1A26E430E040E050E00E94951ADA01C2
:10249000C90188539F4FAF4FBF4F9C0102C024EF2B
:1024A00031E03093A8022093A702243F314091F4F9
:1024B00060E08AE0DF91CF911F910F91FF90EF9044
:1024C000DF90CF90BF90AF907F906F905F904F90D4
:1024D0000C94000CC091A6026C2F8AE00E94000CA4
:1024E00061E06C276093A602DF91CF911F910F915D
:1024F000FF90EF90DF90CF90BF90AF907F906F9064
:102500005F904F900895CF92DF92EF92FF920F93DA
:102510001F93E82FF92F05C0015011092109310936
:1025200061F1908196239417B9F305C00150110908
:102530002109310911F1908196239413F7CFC12C11
:10254000D12CE12CF12C0AC08FEFC81AD80AE80A66
:10255000F80A0C151D052E053F0579F080818623AC
:10256000841791F36C2D7D2D8E2D9F2D1F910F9132
:10257000FF90EF90DF90CF90089560E070E080E0F2
:1025800090E01F910F91FF90EF90DF90CF90089512
:10259000789484B5826084BD84B5816084BD85B53E
:1025A000826085BD85B5816085BD80916E0081604A
:1025B00080936E00109281008091810082608093F0
:1025C00081008091810081608093810080918000F2
:1025D0008160809380008091B10084608093B1001D
:1025E0008091B00081608093B00080919100826002
:1025F00080939100809191008160809391008091FF
:1026000090008160809390008091A100826080930F
:10261000A1008091A10081608093A1008091A00021
:1026200081608093A00080912101826080932101CC
:10263000809121018160809321018091200181603E
:102640008093200180917A00846080937A00809149
:102650007A00826080937A0080917A008160809312
:102660007A0080917A00806880937A001092C1008D
:10267000E091C306F091C40682E08083E091BF063A
:10268000F091C0061082E091C106F091C2068FEC75
:1026900080831092CB06E091C706F091C80686E0D1
:1026A0008083E091C506F091C606808180618083B9
:1026B000E091C506F091C606808188608083E09134
:1026C000C506F091C606808180688083E091C506CA
:1026D000F091C60680818F7D808360E087E30E9451
:1026E0002F0C61E083E00E942F0C60E082E00E94EA
:1026F0002F0C61E08AE00E942F0C60E08AE00E94CB
:10270000000C1092D8071092D7071092DA07109297
:10271000D9071092DF0781E08093E1071092E0076C
:1027200061E084E10E94000C61E085E10E94000C00
:102730008091B9008E7F8093B9008091B9008D7F20
:102740008093B90088E48093B80085E48093BC004E
:1027500083E89EE09093DC078093DB0784E89EE0AB
:102760009093DE078093DD071092D0078091D50704
:10277000823018F098E09093D0078093D30762E3FB
:1027800070E080E090E00E94170E6091D6078BEC1D
:1027900097E00E94E81068EE73E080E090E00E940D
:1027A000170E60E38BEC97E00E944C11CBE4D6E46B
:1027B000CE010197F1F760E38BEC97E00E944C119A
:1027C0002197F1F760E38BEC97E00E944C1183E5D1
:1027D00092E00197F1F760E28BEC97E00E944C11D8
:1027E0008091D00780620E94440A84E08093D107E0
:1027F0008CE00E94440A0E94810A82E08093D20702
:1028000086E00E94440A82E00E94440A8BE39FE132
:102810000197F1F788E08093D60760E08BEC97E0B2
:102820000E94E8100E94780AF9EAEF2EF2E0FF2EEB
:1028300001E010E0D701CD91DD917D01C801E3E019
:10284000880F991FEA95E1F780640E94440A6E019F
:10285000B8E0CB0ED11C69918BEC97E00E947C1103
:10286000CC16DD06C1F70F5F1F4F0730110511F7BA
:10287000C0E0D0E0FE01E15AF94F7F0100E010E036
:10288000C8018C0F9D1F0E948117D7018D937D0178
:102890000F5F1F4F0E30110599F72E96C435D105E5
:1028A00049F784E590E00E94811780935E06BEE0C0
:1028B0008B9FC0011124815A994F90936F0280938E
:1028C0006E0260916C0270916D0244E652E080E00D
:1028D00090E00E94E001C4E6D2E04CE6842E42E0A3
:1028E000942E53E0252E56E0352E6BE0462E67E001
:1028F000562E7EEE672E74E0772EF4010081118152
:1029000060E08AE00E94000C0E94810A0E94780A1E
:10291000AE01B80180E090E00E94E001C12CD12C12
:102920007801F1E0EF1AF1080E946B0C8A3209F489
:1029300011C2823361F41C141D0424F421E0C21A74
:10294000D10813C0680181E0C81AD1080EC08833CD
:1029500019F0853349F70FC0CE14DF0424F49FEF3C
:10296000C91AD90A02C0C12CD12CAE01B801C601C6
:102970000E94E001D9CFA2E0C436DA0789F5B1E0C0
:10298000CB16D104F9F074F4CD2809F0B6CF8091BC
:102990006E0290916F02DC011C96ED91FC911D97E7
:1029A0001995ABCFF2E0CF16D10499F023E0C2160F
:1029B000D10409F0A2CFCEE3D2E08EE5882E82E0EA
:1029C000982E9BCFC6E5D2E022E6822E22E0922E00
:1029D00094CFCAE4D2E090E6892E92E0992E8DCF72
:1029E000B2E0C635DB0709F09EC0E1E0CE16D104A7
:1029F00009F457C06CF52FEFC216D20639F4C4E6BD
:102A0000D2E03CE6832E32E0932E77CFCD2809F03A
:102A100074CFE0916E02F0916F02662D7586648628
:102A200080915E06A080B180C280D380E480F58072
:102A30000681178120853185428553857585AEE0F5
:102A40008A9FC00111240E94821183E993E068C02B
:102A500082E0C816D10409F445C093E0C916D10438
:102A600009F04BCFE0916E02F0916F02642D558614
:102A7000448680915E06A080B180C280D380E480CD
:102A8000F5800681178120853185428553857585BE
:102A9000EEE08E9FC00111240E94821180EC93E031
:102AA0003FC0E0916E02F0916F0289E494E0682FDC
:102AB0009587848780915E06A080B180C280D38094
:102AC000E480F58006811781208531854285538514
:102AD0007585AEE08A9FC00111240E94821182EAAE
:102AE00093E01EC0E0916E02F0916F02622D358678
:102AF000248680915E06A080B180C280D380E4806D
:102B0000F58006811781208531854285538575853D
:102B1000BEE08B9FC00111240E94821181EB93E0E3
:102B20000E944602EACEF2E0CA34DF0709F0C9C0CB
:102B3000F6013196E730F10508F0DFCE8827EE5830
:102B4000FF4F8F4F0C94B41A40916E0250916F0258
:102B50006A01E0905E0604EF11E028E833E16BECD7
:102B600073E08EEC93E047C0C0906E02D0906F028D
:102B7000A6014C5F5F4FE0905E0604E610E02CE299
:102B800031E068ED73E08AED93E035C0C0906E02ED
:102B9000D0906F02A6014E5F5F4FE0905E0604E6A4
:102BA00010E020ED37E06BEC73E084EE93E023C09F
:102BB000C0906E02D0906F02A6014A5F5F4FE09016
:102BC0005E0600E010E02EE130E06EEE73E080EF94
:102BD00093E011C0C0906E02D0906F02A601485FD2
:102BE0005F4FE0905E0600E010E021E030E069E039
:102BF00073E08BEF93E00E9470027FCE80916E02B3
:102C000090916F022EE0E0E3F2E0DC0101900D9282
:102C10002A95E1F7E0915E06DC01AC901196BC903C
:102C200011971296CC9012971396DC9013971496E6
:102C3000EC9014971596FC90159716960C91169794
:102C400017961C91179718962C91189719963C91E6
:102C500019971A964C911A971B965C911B971C9684
:102C60006C911C971D967C91BEE0EB9FC0011124D6
:102C70000E94821100915E0610E00F5F1F4F0E94BC
:102C8000810A60E080E00E944A0A80E094E00E94AD
:102C9000760A61E080E00E944A0A84E194E00E94A2
:102CA000760AC8010E94D30A0E94CF0B68EE73E037
:102CB00080E090E00E94170E0E94780A0E94810A2C
:102CC0001CCEE2E0CE33DE0709F017CEFFEFCF16C1
:102CD000DF0609F494CEC0925E062EE0C29EC001CB
:102CE0001124815A994F90936F0280936E026C2D3C
:102CF00084E590E00E948917C0915E06D0E021969D
:102D00000E94810A60E080E00E944A0A83E294E027
:102D10000E94760A61E080E00E944A0A8DE294E017
:102D20000E94760A62E080E00E944A0ACE010E9478
:102D3000D30A89E394E00E94760A0E94CF0B68EEE2
:102D400073E080E090E00E94170E0E94780A0E94D3
:102D5000810A55CE82E0C436D80709F4CECD92E080
:102D6000C635D90709F44BCEA2E0CA34DA0709F414
:102D700046CEB2E0CE33DB0709F0BFCD40CE109295
:102D8000B6061092B50688EE93E0A0E0B0E080931E
:102D9000B7069093B806A093B906B093BA0621EC93
:102DA00032E03093B4062093B30625EC30E0309344
:102DB000C0062093BF0624EC30E03093C206209377
:102DC000C10620EC30E03093C4062093C30621EC0A
:102DD00030E03093C6062093C50622EC30E03093F5
:102DE000C8062093C70626EC30E03093CA0620932D
:102DF000C9061092CC061092CD061092CE06109203
:102E0000CF06109253071092520780935407909365
:102E10005507A0935607B093570783ED92E0909320
:102E20005107809350071092CE071092CD078FEE76
:102E300092E09093CC078093CB078FE38093CF07EA
:102E400084E18093D40784E08093D5071092D6075D
:102E500010925E071092620710926107109263074A
:102E600085EE92E090935D0780935C07ECE5F7E0D8
:102E700088E997E0148E10A2178E11A236968E174D
:102E80009F07C1F784E792E09093BF078093BE0746
:102E900080E792E09093C1078093C00784E080931D
:102EA000C2078093C30728E732E03093BD07209321
:102EB000BC072AE030E03093C5072093C40724EF15
:102EC00031E03093C7072093C6071092CA071092CB
:102ED000C9071092B8071092B9071092BA0710925A
:102EE000BB071092C80791E090938C0290939102D7
:102EF00092E09093960293E090939B028093A002BD
:102F00000895F999FECF92BD81BDF89A992780B5B1
:102F10000895262FF999FECF1FBA92BD81BD20BD1D
:102F20000FB6F894FA9AF99A0FBE01960895505880
:102F3000BB27AA270E94AF170C9429190E941B19BE
:102F400038F00E94221920F039F49F3F19F426F43A
:102F50000C9418190EF4E095E7FB0C941219E92F64
:102F60000E943A1958F3BA17620773078407950746
:102F700020F079F4A6F50C945C190EF4E0950B2E74
:102F8000BA2FA02D0B01B90190010C01CA01A001BB
:102F90001124FF27591B99F0593F50F4503E68F116
:102FA0001A16F040A22F232F342F4427585FF3CF57
:102FB000469537952795A795F0405395C9F77EF428
:102FC0001F16BA0B620B730B840BBAF09150A1F071
:102FD000FF0FBB1F661F771F881FC2F70EC0BA0FF7
:102FE000621F731F841F48F4879577956795B7957F
:102FF000F7959E3F08F0B0CF9395880F08F099277A
:10300000EE0F9795879508950E94EE1808F481E0D9
:1030100008950E941D180C9429190E94221958F035
:103020000E941B1940F029F45F3F29F00C941219FB
:1030300051110C945D190C9418190E943A1968F3F7
:103040009923B1F3552391F3951B550BBB27AA2761
:1030500062177307840738F09F5F5F4F220F331F9B
:10306000441FAA1FA9F335D00E2E3AF0E0E832D063
:1030700091505040E695001CCAF72BD0FE2F29D066
:10308000660F771F881FBB1F261737074807AB0738
:10309000B0E809F0BB0B802DBF01FF2793585F4FAD
:1030A0003AF09E3F510578F00C9412190C945D197A
:1030B0005F3FE4F3983ED4F3869577956795B7958F
:1030C000F7959F5FC9F7880F911D9695879597F99A
:1030D0000895E1E0660F771F881FBB1F6217730713
:1030E0008407BA0720F0621B730B840BBA0BEE1F28
:1030F00088F7E09508950E9482186894B1110C94A5
:103100005D1908950E94421988F09F5798F0B92FD1
:103110009927B751B0F0E1F0660F771F881F991F0C
:103120001AF0BA95C9F714C0B13091F00E945C1939
:10313000B1E008950C945C19672F782F8827B85F49
:1031400039F0B93FCCF3869577956795B395D9F764
:103150003EF490958095709561957F4F8F4F9F4F6E
:103160000895E89409C097FB3EF49095809570957A
:1031700061957F4F8F4F9F4F9923A9F0F92F96E9C3
:10318000BB279395F695879577956795B795F11138
:10319000F8CFFAF4BB0F11F460FF1BC06F5F7F4FD5
:1031A0008F4F9F4F16C0882311F096E911C07723E7
:1031B00021F09EE8872F762F05C0662371F096E8F0
:1031C000862F70E060E02AF09A95660F771F881FBF
:1031D000DAF7880F9695879597F90895990F000863
:1031E000550FAA0BE0E8FEEF16161706E807F907D9
:1031F000C0F012161306E407F50798F0621B730B74
:10320000840B950B39F40A2661F0232B242B252BF4
:1032100021F408950A2609F4A140A6958FEF811D97
:10322000811D089597F99F6780E870E060E0089538
:103230009FEF80EC089500240A94161617061806CE
:103240000906089500240A941216130614060506AA
:103250000895092E0394000C11F4882352F0BB0F3B
:1032600040F4BF2B11F460FF04C06F5F7F4F8F4F9E
:103270009F4F089557FD9058440F551F59F05F3FD9
:1032800071F04795880F97FB991F61F09F3F79F088
:1032900087950895121613061406551FF2CF46950A
:1032A000F1DF08C0161617061806991FF1CF86958C
:1032B0007105610508940895E894BB276627772770
:1032C000CB0197F908950E94EE1808F48FEF089546
:1032D00016F00C942A1A0C94181968940C9412196C
:1032E0000E944219A8F39923C1F3AEF3DF93CF9361
:1032F0001F930F93FF92C92FDD2788232AF0219770
:10330000660F771F881FDAF720E030E040E85FEBB8
:103310009FE3883920F0803E38F021968F770E9415
:103320009817E6E1F1E004C00E949817E3E4F1E0A9
:103330000E94381A8B01BE01EC01FB2E6F577109F8
:103340007595771F880B990B0E94B31828E132E717
:1033500041E35FE30E94CB19AF2D9801AE01FF90CE
:103360000F911F91CF91DF910E94AF170C942919F3
:103370000E94CB190C9429190E941B1938F00E9445
:10338000221920F0952311F00C9412190C9418199D
:1033900011240C945D190E943A1970F3959FC1F3A2
:1033A000950F50E0551F629FF001729FBB27F00DF3
:1033B000B11D639FAA27F00DB11DAA1F649F662748
:1033C000B00DA11D661F829F2227B00DA11D621F97
:1033D000739FB00DA11D621F839FA00D611D221F51
:1033E000749F3327A00D611D231F849F600D211D35
:1033F000822F762F6A2F11249F5750409AF0F1F0B8
:1034000088234AF0EE0FFF1FBB1F661F771F881F20
:1034100091505040A9F79E3F510580F00C9412192D
:103420000C945D195F3FE4F3983ED4F3869577954D
:103430006795B795F795E7959F5FC1F7FE2B880FC6
:10344000911D9695879597F908950E94EE18880B1F
:10345000990B08959F3F31F0915020F4879577950F
:103460006795B795880F911D9695879597F908955B
:10347000DF93CF931F930F93FF92EF92DF927B0125
:103480008C01689406C0DA2EEF010E94CB19FE0170
:10349000E894A5912591359145915591A6F3EF01B9
:1034A0000E94AF17FE019701A801DA9469F7DF9037
:1034B000EF90FF900F911F91CF91DF91089597FBAF
:1034C000072E16F4009407D077FD09D00E94ED1A5C
:1034D00007FC05D03EF4909581959F4F0895709517
:1034E00061957F4F0895A1E21A2EAA1BBB1BFD0117
:1034F0000DC0AA1FBB1FEE1FFF1FA217B307E407D3
:10350000F50720F0A21BB30BE40BF50B661F771F2A
:10351000881F991F1A9469F760957095809590950A
:103520009B01AC01BD01CF010895052E97FB1EF450
:1035300000940E94AC1A57FD07D00E94731A07FC32
:1035400003D04EF40C94AC1A5095409530952195CB
:103550003F4F4F4F5F4F08959095809570956195BF
:103560007F4F8F4F9F4F0895EE0FFF1F881F8BBF18
:103570000790F691E02D19940E94C41A332312F497
:103580008A1B9B0B0C94D51AA29FB001B39FC0015C
:10359000A39F700D811D1124911DB29F700D811D7F
:1035A0001124911D08950E94C41AB7FF0895821B2B
:1035B000930B08950E94C41AA59F900DB49F900D7F
:1035C000A49F800D911D11240895B7FF0C94DA1A61
:1035D0000E94DA1A821B930B0895AA1BBB1B51E1B0
:1035E00007C0AA1FBB1FA617B70710F0A61BB70B73
:1035F000881F991F5A95A9F780959095BC01CD0118
:10360000089581E090E0F8940C94061BF894FFCFA5
:103610001F1F1F1F1F1F1F1F0101010101010101AA
:1036200000000000101F1F1F0000001F1F1F1F1F92
:1036300000000000011F1F1F0E0E00000000000010
:10364000DC05F4016400030000000100EE04C10485
:10365000D504E904FD041105250539054D0561056D
:10366000750589059D05B105C505D905ED0506005A
:10367000060004000106150629063D060400300276
:1036800041403F3E45444342313233413435364276
:10369000373839432A30234400000100000200017A
:1036A0000000000000000001000000000200000017
:1036B00000FFFFFFFF00012C01280220021802106A
:1036C0000208020002000040001400540000000044
:1036D00000E608AB0987083309B8089608AA08006D
:1036E000000000DE0EB10E0E0F850EA90E950E869F
:1036F0000E00000000180F140F110F000000007CD6
:1037000011AB090E0F0D0F2020202020202020209B
:1037100020202020202020202020005072696B6172
:103720007A00537072656D656E6A656E00567265DB
:10373000646E6F7374200055706F7261626E696B96
:103740003A2000537072656D656E6920767265640B
:103750006E6F73743A204400567069736974652003
:1037600000286D6564200020696E200029005A61E0
:10377000207A616B6C6A756369743A204400505218
:103780004556454C494B4120535400566E6F7320AB
:10379000757370656C004E41504143454E20564E46
:1037A0004F53004F736E6F766E69207072696B6154
:1037B0007A005072696B617A20686974726F7374F1
:1037C000005072696B617A2072617A64616C6A0080
:1037D00047726166696B61203120006D730076610C
:1037E000726E6F73746E610025006B6F6566207476
:1037F000656D7000726566722072617465004300C9
:103800006D656A6E612074656D70007A766F6B000D
:103810004E61737461766974766520706F6E617342
:10382000742E20007A612075706F7261626E696B10
:1038300061200055706F7261626E696B0073707207
:10384000656D656E6A656E3A002075706F726162B3
:103850006E696B2E00486974726F73743A00206B46
:103860006D2F682020200054656D7065726174753D
:1038700072613A200052617A64616C6A613A200098
:10388000486974726F73743A20004B6F65666963A0
:1038900069656E743A200020432000206D202020AE
:1038A000005661726E6F73746E612072617A64612A
:1038B0006C6A613A2000496465616C6E61207661D2
:1038C000726E6F73746E613A20006D20202020208C
:1038D0000055706F7261626E696B2031202020206C
:1038E000202020200055706F7261626E696B20325B
:1038F00020202020202020200055706F7261626EF1
:10390000696B203320202020202020200055706F5C
:103910007261626E696B20342020202020202020DC
:103920000055706F7261626E696B20352020202017
:10393000202020200055706F7261626E696B203606
:10394000202020202020202000496465616C6E61C9
:10395000207661726E6F7374202020200056706C88
:1039600069762074656D6570657261747572652025
:10397000005265667265736820726174652020204C
:1039800020202020004D656A6E612074656D706591
:103990007261747572612020005A766F636E6F20B9
:1039A0006F706F7A6F72696C6F20202000506F6E9D
:1039B00061737461766920707269767A65746F20BC
:1039C000004F736E6F766E69207072696B617A203A
:1039D0002020202000486974726F737420202020FA
:1039E00020202020202020200052617A64616C6A0F
:1039F00065202020202020202020202000477261E8
:103A00006669636E69207072696B617A202020207C
:103A1000005072696B617A20202020202020202015
:103A20002020202000497A626F72207072696B61D9
:103A30007A61202020202020004E61737461766915
:103A400074766520202020202020202000497A62E2
:103A50006572692075706F7261626E696B6120209A
:0E3A6000006E616E00696E66006F7666000093
:00000001FF
