:100000000C9490010C94C1010C94C1010C94C10199
:100010000C94C1010C94C1010C94C1010C94C10158
:100020000C94C1010C94C1010C94C1010C94C10148
:100030000C94C1010C94C1010C94C1010C94C10138
:100040000C94C1010C94C1010C94C1010C94C10128
:100050000C94C1010C94C1010C94C1010C94510683
:100060000C94C1010C940F060C94E5050C94C1018D
:100070000C94C1010C94C1010C94C1010C94C101F8
:100080000C94C1010C94C1010C94C1010C94C101E8
:100090000C94C1010C94C1010C94C1010C949B06F9
:1000A0000C94C1010C94C1010C94C1010C94C101C8
:1000B0000C94C1010C94C1010C94C1010C94C101B8
:1000C0000C94C1010C94C1010C94C1010C94C101A8
:1000D0000C94C1010C94C1010C94C1010C94C10198
:1000E0000C94C101AC02AF029E02A202A802E60279
:1000F000B302B702BD02C102C502CB02CF02D302D6
:10010000E602D902DD02E10208000000BE922449A5
:10011000123EABAAAA2ABECDCCCC4C3E0000008039
:10012000BEABAAAAAA3E00000000BF000000803FAC
:100130000000000000084178D3BB4387D1133D196C
:100140000E3CC3BD4282AD2B3E68EC8276BED98F99
:10015000E1A93E4C80EFFFBE01C4FF7F3F000000DD
:1001600000000C94D9020C9443050C9483050C9464
:10017000A2020C94A8020C94BD020C94D0030C941F
:10018000FD030C94AF020C94B4030C94C3010C94C3
:10019000E7020C94A2030C94CF020C94CB020C94B3
:1001A0009E020C94AC020C94F4010C94D3020C94B7
:1001B000E6070C9422020C94D2010C94A3030C9435
:1001C000E6020C94C8030C9491040C94A5030C94BF
:1001D000C1020C9490040C94E6010C94B3020C94AC
:1001E000E1020C94B7020C94DD020C945B0E0C94AB
:1001F000C5020C946F020C94A4030C94110500002A
:100200002100240027002A002D00300033000101C6
:100210000000040107010A01000022002500280057
:100220002B002E00310034000201000005010801FE
:100230000B01000020002300260029002C002F00C5
:100240003200000100000301060109010505050552
:10025000070508080808020202020A0A080804043E
:10026000040401010101010101010303030303036C
:100270000303040707070C0C0C0C0C0C0C0C0202FB
:10028000020206060606060606060B0B0B0B0B0BF8
:100290000B0B010210202008081020401020408085
:1002A000020102010804020101020408102040803A
:1002B00080402010080402018004020180402010C8
:1002C0000804020108040201010204081020408011
:1002D000010204081020408000000A0B02090C0DE6
:1002E0000E080703040100000000000000000000E9
:1002F00000000000000000000000000000000000FE
:1003000000000000121110000000000000000000BA
:1003100000000000000000000000000000005B0E74
:1003200011241FBECFEFD1E2DEBFCDBF00E00CBF76
:1003300013E0A0E0B2E0E4E0F4E200E00BBF02C0B2
:1003400007900D92AA34B107D9F725E0AAE4B3E0EB
:1003500001C01D92A733B207E1F711E0C0E9D1E077
:1003600000E006C021970109802FFE010E94F311D1
:10037000CF38D10780E00807A9F70E94660B0C94DC
:1003800000120C940000FC01538D448D252F30E0A9
:10039000842F90E0821B930B541710F0CF96089592
:1003A00001970895FC01918D828D981761F0828DDF
:1003B000DF01A80FB11D5D968C91928D9F5F9F7399
:1003C000928F90E008958FEF9FEF0895FC01918D3B
:1003D000828D981731F0828DE80FF11D858D90E0A8
:1003E00008958FEF9FEF0895FC01918D228D892F45
:1003F00090E0805C9F4F821B91098F73992708952D
:10040000FC01848DDF01A80FB11DA35ABF4F2C91B1
:10041000848D90E001968F739927848FA689B78980
:100420002C93A089B1898C91837080648C93938D77
:10043000848D981306C00288F389E02D80818F7D1A
:1004400080830895EF92FF920F931F93CF93DF93D2
:10045000EC0181E0888F9B8D8C8D981305C0E88915
:10046000F989808185FD26C0F62E0B8D10E00F5F87
:100470001F4F0F731127E02E8C8DE8120CC00FB6A2
:1004800007FCFACFE889F989808185FFF5CFCE0195
:100490000E940002F1CF8B8DFE01E80FF11DE35A9F
:1004A000FF4FF0829FB7F8940B8FEA89FB89808118
:1004B00080620AC09FB7F894EE89FF896083E8895B
:1004C000F98980818370806480839FBF81E090E0A0
:1004D000DF91CF911F910F91FF90EF900895CF93EF
:1004E000DF93EC01888D8823C9F0EA89FB8980813C
:1004F00085FD05C0A889B9898C9186FD0FC00FB60E
:1005000007FCF5CF808185FFF2CFA889B9898C914E
:1005100085FFEDCFCE010E940002E7CFDF91CF91A2
:10052000089590E0FC013197E231F10508F04EC0EA
:100530008827EE58FF4F8F4F0C94F3118091800065
:100540008F7703C0809180008F7D80938000089515
:1005500080918000877FF9CF84B58F7702C084B502
:100560008F7D84BD08958091B0008F7703C0809106
:10057000B0008F7D8093B0000895809190008F77B8
:1005800007C0809190008F7D03C080919000877F8D
:100590008093900008958091A0008F7707C080918C
:1005A000A0008F7D03C08091A000877F8093A00072
:1005B0000895809120018F7707C0809120018F7D61
:1005C00003C080912001877F809320010895CF92FE
:1005D000DF92EF92FF920F931F93CF93DF936C0103
:1005E0007A018B01C0E0D0E0CE15DF0581F0D801A3
:1005F0006D918D01D601ED91FC910190F081E02D7E
:10060000C6011995892B11F02196EECF7E01C70105
:10061000DF91CF911F910F91FF90EF90DF90CF90DE
:1006200008953FB7F89480910F0490911004A09121
:100630001104B091120426B5A89B05C02F3F19F0F4
:100640000196A11DB11D3FBFBA2FA92F982F882752
:10065000820F911DA11DB11DBC01CD0142E0660FAD
:10066000771F881F991F4A95D1F708958F929F92FF
:10067000AF92BF92CF92DF92EF92FF926B017C011B
:100680000E9411034B015C01C114D104E104F10487
:10069000F1F00E941103DC01CB0188199909AA0924
:1006A000BB09883E9340A105B10570F321E0C21A51
:1006B000D108E108F10888EE880E83E0981EA11C9D
:1006C000B11CC114D104E104F10419F7DDCFFF908E
:1006D000EF90DF90CF90BF90AF909F908F90089554
:1006E00085ED8093BC008091BC0084FDFCCF10920E
:1006F000E40308954091BE03262F30E0240F311DFE
:1007000021323105DCF42091E4032430C9F4FC01EA
:1007100080E090E0861758F43091BE032191DC010F
:10072000A456BC4FA30FB11D2C930196F3CF80911B
:10073000BE03680F6093BE0380E0089581E00895D2
:1007400082E00895089508950895E09199038091B5
:100750009803E81730F4F0E0E858FC4F808190E00F
:1007600008958FEF9FEF08959091990380919803DA
:10077000981750F4E92FF0E0E858FC4F208130E062
:100780009F5F9093990302C02FEF3FEFC901089537
:100790008091980390E020919903821B910908951C
:1007A000CF92DF92EF92FF920F931F93CF93DF933D
:1007B0007C01CB018A0120917703222389F0EB0190
:1007C0006B01C40ED51ECC15DD0569F06991D7010A
:1007D000ED91FC910190F081E02DC7011995F3CFC7
:1007E000642F0E947A03C801DF91CF911F910F916E
:1007F000FF90EF90DF90CF900895CF93DF931F92FB
:10080000CDB7DEB76983209177032223D1F0209101
:100810009A03203240F021E030E0FC013383228350
:1008200080E090E015C080919B03E82FF0E0E95A4A
:10083000FC4F998190838F5F80939B0380939A03F1
:1008400005C061E0CE0101960E947A0381E090E04C
:100850000F90DF91CF910895CF93FC01C48121E0E7
:1008600020937703C093560310929B0310929A0330
:100870008385682B80EB94E00E94FD0390919A039E
:10088000913208F045C08091E4038111FCCF82E0F1
:100890008093E40381E08093E6038FEF8093E3038A
:1008A0001092080490930704A7E5B3E0E7EEF3E0A5
:1008B00080E0981721F02D9121938F5FFACF10924D
:1008C000090480910904CC0FC82BC09309048091BE
:1008D000E503813061F41092E5038091090480936F
:1008E000BB008091BC0083FDF8CF85EC01C085EE94
:1008F0008093BC008091E4038230E1F38091E303B4
:100900008F3F31F08091E303803211F08091E30357
:1009100010929B0310929A0310927703CF9108953F
:10092000089580E090E00895BF92CF92DF92EF9219
:10093000FF920F931F93CF93DF937C016B0184E0B1
:10094000E816F104D4F400E012E0C0E0D0E0CC15E9
:10095000DD0594F56C2F80E00E94C208F8018191BA
:1009600091918F010E94EE086E2D83E10E94C208D2
:100970002196C430D10559F71FC0E70123978E0196
:10098000000F111F00501E4FB12CCC15DD05A4F433
:10099000EC16FD068CF06B2D80E00E94C208F80179
:1009A000819191918F010E94EE0863E083E10E94A2
:1009B000C2082196B394E9CFDF91CF911F910F9197
:1009C000FF90EF90DF90CF90BF9008950E94FB11B1
:1009D000CF93DF93282F30E0F901E852FD4F849147
:1009E000F901EE56FD4FD491F901E45BFD4FC4913E
:1009F000CC2391F081110E949102EC2FF0E0EE0FD8
:100A0000FF1FEE5CFD4FA591B491EC91ED2381E0C9
:100A100090E021F480E002C080E090E0DF91CF918F
:100A20000895862F0C94E8041F93CF93DF93282F0B
:100A300030E0F901E852FD4F8491F901EE56FD4F87
:100A4000D491F901E45BFD4FC491CC23C1F0162F82
:100A500081110E949102EC2FF0E0EE0FFF1FE85E83
:100A6000FD4FA591B4919FB7F894111104C08C91DA
:100A7000D095D82302C0EC91DE2BDC939FBFDF9191
:100A8000CF911F910895862F642F0C941405CF9356
:100A9000DF9390E0FC01EE56FD4F2491FC01E45BF6
:100AA000FD4F8491882361F190E0880F991FFC012C
:100AB000E250FE4FC591D491FC01E85EFD4FA59137
:100AC000B491611109C09FB7F89488812095822361
:100AD0008883EC912E230BC0623061F49FB7F894A9
:100AE0008881322F309583238883EC912E2B2C9391
:100AF0009FBF06C08FB7F894E8812E2B28838FBF45
:100B0000DF91CF910895862F642F0C9447056115CE
:100B1000710579F0FB0101900020E9F73197AF01F1
:100B2000461B570BDC01ED91FC910280F381E02D17
:100B3000199480E090E008958F929F92AF92BF92B7
:100B4000EF92FF920F931F93CF93DF93CDB7DEB752
:100B5000A1970FB6F894DEBF0FBECDBF7C01FA019E
:100B6000CB0119A2223008F42AE08E010F5D1F4F3D
:100B7000822E912CA12CB12CBF01A50194010E94C1
:100B8000D111F901CA01015011096A3014F4605DF4
:100B900001C0695CD8016C93232B242B252B61F7B2
:100BA000B801C7010E948705A1960FB6F894DEBF71
:100BB0000FBECDBFDF91CF911F910F91FF90EF90AE
:100BC000BF90AF909F908F9008951F920F920FB695
:100BD0000F9211240BB60F922F933F934F935F9375
:100BE0006F937F938F939F93AF93BF93EF93FF93F5
:100BF00083E194E00E940002FF91EF91BF91AF91D9
:100C00009F918F917F916F915F914F913F912F9124
:100C10000F900BBE0F900FBE0F901F9018951F9254
:100C20000F920FB60F9211240BB60F922F938F9342
:100C30009F93EF93FF93E0912304F091240480812C
:100C4000E0912904F0912A0482FD12C090818091E4
:100C50002C048F5F8F7320912D04821751F0E09147
:100C60002C04F0E0ED5EFB4F958F80932C0401C0C7
:100C70008081FF91EF919F918F912F910F900BBEEB
:100C80000F900FBE0F901F9018952FB7F89460919A
:100C90000B0470910C0480910D0490910E042FBFF1
:100CA00008951F920F920FB60F9211242F933F9326
:100CB0008F939F93AF93BF9380910B0490910C04FB
:100CC000A0910D04B0910E0430910A0423E0230F8B
:100CD0002D3720F40196A11DB11D05C026E8230F74
:100CE0000296A11DB11D20930A0480930B049093DA
:100CF0000C04A0930D04B0930E0480910F04909106
:100D00001004A0911104B09112040196A11DB11D0F
:100D100080930F0490931004A0931104B0931204D5
:100D2000BF91AF919F918F913F912F910F900FBEE7
:100D30000F901F9018951F920F920FB60F921124CB
:100D40000BB60F922F933F934F935F936F937F93C5
:100D50008F939F93AF93BF93EF93FF938091B900CD
:100D6000887F803609F49CC068F5883209F45BC03E
:100D700090F4803109F454C038F4882309F4F6C0A3
:100D8000883009F44DC0F6C0883109F44CC0803277
:100D900009F45DC0EFC0803409F468C048F48033C2
:100DA00009F455C0883309F0E5C08093E303D8C047
:100DB000803509F44FC0883509F45DC0883409F0E6
:100DC000D9C0D6C0883909F4C7C0A8F4883709F457
:100DD00067C038F4883609F463C0803709F460C00E
:100DE000C9C0883809F4B8C0803909F45FC08038B8
:100DF00009F0C0C05BC0803B09F486C038F4803A7B
:100E000009F466C0883A09F47FC0B4C0803C09F494
:100E1000A7C0883C09F4A4C0883B09F48AC0AAC0D2
:100E20008091090410C090910804809107049817DC
:100E300070F5E091080481E08E0F80930804F0E0E3
:100E4000E951FC4F80818093BB0085EC86C0809384
:100E5000E3038EC0E091080481E08E0F80930804C4
:100E60008091BB00F0E0E951FC4F80839091080431
:100E7000809107046EC0E091080481E08E0F80939A
:100E800008048091BB00F0E0E951FC4F8083809121
:100E9000E60381116DC081E08093E50384EA61C0BF
:100EA00083E08093E4031092E203CFCF8091E203CA
:100EB000803208F051C0E091E20381E08E0F809310
:100EC000E2038091BB00F0E0EE53FC4F8083BDCF86
:100ED00085EC8093BC001092E4038091E2038032A1
:100EE00030F4E091E203F0E0EE53FC4F10826091A9
:100EF000E20370E0E091C003F091C10382EC93E063
:100F000019951092E20336C084E08093E4031092B6
:100F1000BF031092BE03E091BC03F091BD0319958D
:100F20008091BE03811105C081E08093BE031092C1
:100F30009C03E091BF0381E08E0F8093BF03F0E03C
:100F4000E456FC4F80818093BB009091BF03809159
:100F5000BE03981708F479CF85E88093BC000AC0D7
:100F600085EC8093BC001092E40304C01092E3036C
:100F70000E947003FF91EF91BF91AF919F918F916C
:100F80007F916F915F914F913F912F910F900BBE89
:100F90000F900FBE0F901F9018950F931F93CF9334
:100FA0008C01C62F0E942C046C2F6460C8010E9423
:100FB0002C046C2F6B7FC8010E942C0483EC90E002
:100FC0000197F1F7CF911F910F9108950F931F9300
:100FD000CF938C01C62F607F61600E94CD0780E1B6
:100FE000C89FB00111246160C8010E94CD0781E053
:100FF00090E0CF911F910F91089596E0899FD001C5
:101000001124A454BB4F90967C936E935F9791E00C
:1010100091969C93919790912805E0912905F091E4
:101020002A05992339F0309751F0811108C0809139
:10103000D80404C0309719F05C968C9119940895E7
:101040000F931F93CF93DF93C82FD62F86E0C89FAF
:10105000F0011124E454FB4F11A2878D90A181303F
:101060009105D9F040F082309105A9F10397F1F58F
:1010700060E070E034C06623C9F161E070E08C2F5D
:101080000E94FD070E9445066093140570931505A4
:10109000809316059093170529C00E94450600917C
:1010A0001405109115052091160530911705AB0117
:1010B000BC01401B510B620B730B80912605909174
:1010C0002705A0E0B0E084179507A607B70718F436
:1010D00062E070E004C0D11109C063E070E08C2FC1
:1010E000DF91CF911F910F910C94FD07DF91CF916C
:1010F0001F910F910895CF92DF92EF92FF920F937D
:101100001F93CF93DF9377FF21C06A017B01EC012E
:10111000E881F9810190F081E02D6DE219958C0153
:1011200044275527BA014C195D096E097F092AE049
:10113000CE010E949C05800F911FDF91CF911F91DE
:101140000F91FF90EF90DF90CF9008952AE0DF910C
:10115000CF911F910F91FF90EF90DF90CF900C9463
:101160009C05CF93C82F682F607F8BE295E00E948B
:10117000CD0780E1C89FB00111248BE295E0CF91AB
:101180000C94CD07CF93DF93CDB7DEB728970FB67A
:10119000F894DEBF0FBECDBF98E0E6E2F2E0DE01DC
:1011A000119601900D929A95E1F79091330596175B
:1011B00010F46FEF690FFE013196E60FF11DE60F97
:1011C000F11D9081890F806828960FB6F894DEBFD4
:1011D0000FBECDBFDF91CF910C94B108BC018BE263
:1011E00095E00C94870581E00E94B1088BE39FE1B4
:1011F0000197F1F708956F927F928F929F92AF922D
:10120000BF92CF92DF92EF92FF920F931F93CF93F3
:10121000DF9381E0809328050E9445060091180520
:101220001091190520911A0530911B05AB01BC01E5
:10123000401B510B620B730B809124059091250587
:10124000A0E0B0E084179507A607B70708F0E6C04E
:10125000C0E080912205C81730F0712C812C912CB0
:101260005401839440C0E0911E05F0911F05EC0FDE
:10127000F11D62E080810E944705CF5FEACFC62D55
:10128000D0E0E0911E05F0911F05EC0FFD1F80815D
:101290000E94E8042496CC0FDD1FC454DB4F892B39
:1012A00009F04BC0888199818C299D299983888375
:1012B000639480912205681610F3E0912005F09167
:1012C0002105E00FF11F61E080810E9414058091EB
:1012D000200590912105FC01E00FF11F60E0808165
:1012E0000E944705739480912305781658F5072DC1
:1012F00010E0E0912005F0912105E00FF11F61E081
:1013000080810E944705E0912005F0912105E00FC2
:10131000F11F60E080810E941405D501C401072CF3
:1013200004C0880F991FAA1FBB1F0A94D2F76C0133
:101330007C01E094F094612CBCCF888199818E214E
:101340009F21B4CF2CEBE22E24E0F22EF7018FEF99
:101350009FEF278D30A1232B21F4148E968F858F3C
:1013600011A2369624E0E83FF20799F7C0E096E034
:10137000D92E80912205C81758F5D0E00C2F10E027
:10138000000F111F0C531B4F20912305D217F0F4AF
:10139000F801408151810D2E02C0569547950A945F
:1013A000E2F7642F6170C29F900111242D0F311D4F
:1013B000ECEBF4E080E0A58DB68D2A173B0709F42D
:1013C0004DC08F5F36968A30B1F72CC0CF5FD1CF3A
:1013D000C0E0F70181A18111C1E0F6E0EF0EF11C40
:1013E00028EFE21624E0F206A1F70E94450660937A
:1013F00018057093190580931A0590931B05CC234B
:1014000069F08091DD04882349F08091DB0490919C
:10141000DC04019719F48091D8042AC010922805A1
:1014200080E026C040FF1CC0ECEBF4E080E090E0E0
:10143000448D411117C0E0911C05F0911D05E20F8C
:10144000F31F4081D89EF001D99EF00D1124E45481
:10145000FB4F448F368F258F10A2178E0E942008D5
:10146000DF5F92CF019636968A30910509F7F8CF63
:10147000DF91CF911F910F91FF90EF90DF90CF9070
:10148000BF90AF909F908F907F906F9008958F92B4
:101490009F92AF92BF92CF92DF92EF92FF920F9303
:1014A0001F93CF93DF936B017C01142F9B01AC0141
:1014B0000E949711882319F06DE373E027C046015D
:1014C0005701E894B7F82FEF3FEF4FE75FE7C5010B
:1014D000B4010E94971181110DC02FEF3FEF4FE72C
:1014E0005FE7C501B4010E947D0F18161CF461E48A
:1014F00073E00CC02FEF3FEF4FE75FE4C701B60189
:101500000E94D510181694F465E473E08BE295E020
:10151000DF91CF911F910F91FF90EF90DF90CF90CF
:10152000BF90AF909F908F900C9487052FEF3FEF67
:101530004FE75FECC701B6010E947D0F87FDE4CF46
:1015400020E030E0A901C701B6010E947D0F87FFAE
:101550000BC06DE28BE295E00E94E607EC01F7FA22
:10156000F094F7F8F09402C0C0E0D0E000E060E052
:1015700070E080E09FE3101741F020E030E040E2AF
:1015800051E40E94820F0F5FF6CFA70196010E94DF
:10159000110F6B017C010E94F40F4B015C012AE0EA
:1015A000AB01BC018BE295E00E949C05C80FD91FDE
:1015B0001123C9F1C501B4010E9423109B01AC01A4
:1015C000C701B6010E94100F6B017C016EE28BE235
:1015D00095E00E94E607C80FD91F20E030E040E206
:1015E00051E4C701B6010E942A114B015C010E941F
:1015F000F40F6B01E12CF12C2AE0B701A6018BE27C
:1016000095E00E949C05C80FD91FC701B6010E9432
:1016100023109B01AC01C501B4010E94100F6B01A6
:101620007C011150D1F6CE01DF91CF911F910F9126
:10163000FF90EF90DF90CF90BF90AF909F908F90F2
:101640000895CF92DF92EF92FF920F931F93E82FAE
:10165000F92F05C0015011092109310961F190816B
:1016600096239417B9F305C00150110921093109D6
:1016700011F1908196239413F7CFC12CD12CE12C3A
:10168000F12C0AC08FEFC81AD80AE80AF80A0C151C
:101690001D052E053F0579F080818623841791F37F
:1016A0006C2D7D2D8E2D9F2D1F910F91FF90EF9012
:1016B000DF90CF90089560E070E080E090E01F91AF
:1016C0000F91FF90EF90DF90CF900895789484B5BC
:1016D000826084BD84B5816084BD85B5826085BD2E
:1016E00085B5816085BD80916E00816080936E00BC
:1016F00010928100809181008260809381008091AE
:10170000810081608093810080918000816080935E
:1017100080008091B10084608093B1008091B0001E
:1017200081608093B00080919100826080939100ED
:101730008091910081608093910080919000816000
:10174000809390008091A10082608093A10080919D
:10175000A10081608093A1008091A00081608093AE
:10176000A00080912101826080932101809121015C
:10177000816080932101809120018160809320010C
:1017800080917A00846080937A0080917A008260F0
:1017900080937A0080917A00816080937A008091B2
:1017A0007A00806880937A001092C100E09123044F
:1017B000F091240482E08083E0911F04F0912004E2
:1017C0001082E0912104F09122048FEC808310922A
:1017D0002B04E0912704F091280486E08083E091B7
:1017E0002504F0912604808180618083E0912504A6
:1017F000F0912604808188608083E0912504F09137
:101800002604808180688083E0912504F09126047D
:1018100080818F7D808360E087E30E94470561E0DF
:1018200083E00E94470560E082E00E94470561E096
:101830008AE00E9447051092990310929803109233
:101840009B0310929A031092E40381E08093E603D5
:101850001092E50361E084E10E94140561E085E1F6
:101860000E9414058091B9008E7F8093B900809109
:10187000B9008D7F8093B90088E48093B80085E437
:101880008093BC0082EA93E09093BD038093BC03F5
:1018900083EA93E09093C1038093C00310923005D4
:1018A00080913505823018F098E090933005809350
:1018B000330562E370E080E090E00E9436036091BF
:1018C00036058BE295E00E942C0468EE73E080E020
:1018D00090E00E94360360E38BE295E00E94CD0722
:1018E000CBE4D6E4CE010197F1F760E38BE295E01B
:1018F0000E94CD072197F1F760E38BE295E00E940B
:10190000CD0783E592E00197F1F760E28BE295E085
:101910000E94CD078091300580620E94B10884E06A
:10192000809331058CE00E94B1080E94F30882E0A8
:101930008093320586E00E94B10882E00E94B108DF
:101940008BE39FE10197F1F788E08093360560E033
:101950008BE295E00E942C0480913105982F9260D3
:10196000909331058A600E94B10867E070E080E0E2
:1019700090E00E949404C3E0D0E093E2A92EB12C41
:1019800024E9222E22E0322E3EE4832E32E0932EF2
:1019900067E070E080E090E00E949404E12CF12C7C
:1019A0000E94FB088133A1F3823339F4E114F1047E
:1019B000B9F321E0E21AF1080FC0883319F085333A
:1019C00079F710C086E0E816F10424F4EFEFEE1A80
:1019D000FE0A02C0E12CF12C67E070E0C7010E9412
:1019E0009404DECFE114F104C1F0F7FCD1CFF3E0B1
:1019F000EF16F1046CF60E94F30860E080E00E94AC
:101A0000C20883E992E00E94EE0861E080E00E9453
:101A1000C208C0E0D0E01AE03CC180914E038111C1
:101A20000DC00E94450660934A0370934B03809358
:101A30004C0390934D0321E020934E030E94F30842
:101A4000809131058D7F8093310588600E94B108B7
:101A50000E944506C0904A03D0904B03E0904C038F
:101A6000F0904D03DC01CB018C199D09AE09BF0933
:101A7000853F9140A105B10508F4EAC080917B0043
:101A8000877F80937B00F1E4F0937C0080917A0063
:101A9000806480937A0080917A0086FDFCCF60910B
:101AA00078008091790070E0782B072E000C880B6D
:101AB000990B0E9425109B01AC0160E070E080E86A
:101AC00094E40E94820F20E030E040E85FE30E944F
:101AD000100F20E030E44CE156E40E942A110E94ED
:101AE000E2106B017C0129E537E44CEB53E30E94E3
:101AF0002A11A70196010E942A1123E73FE745E733
:101B000059E30E94110FA70196010E942A112BEEA2
:101B10003FEF43E95AE30E94110F9B01AC0160E0E3
:101B200070E080E89FE30E94820F23E333E948E8F6
:101B300053E40E94100F2B013C0160E083E00E94FF
:101B40001405CE010197F1F761E083E00E941405CE
:101B5000C5010197F1F760E083E00E941405F101EF
:101B60006491F4018491E82FF0E0EE0FFF1FEE5C2A
:101B7000FD4F8591949100E21EE420E030E0462F75
:101B80000E94210B611571058105910551F06B01D2
:101B90007C01FFEFCF1ADF0AEF0AFF0A2FE0F222E3
:101BA00003C0C12CD12C76010D2C000CEE08FF08CF
:101BB000B701A60183E194E00E947B0868E672E029
:101BC00083E194E00E94870560E080E00E94C20803
:101BD0008BE692E00E94EE0842E0C301B2010E944F
:101BE000470A89E792E00E94EE0861E080E00E94E7
:101BF000C2088EE792E00E94EE08C701B6010E947B
:101C0000251026E933E44BE05DE30E942A1120E031
:101C100030E040E05FE30E942A1142E00E94470A60
:101C200089E892E00E94EE0880914A0390914B036C
:101C3000A0914C03B0914D038C509E4FAF4FBF4FBE
:101C400080934A0390934B03A0934C03B0934D03AE
:101C50000E94FB08813309F0FBCE80913105982F5B
:101C60009260909331058A600E94B1080E94F30847
:101C70008FCE8A3271F4E2968EE992E00E94EE08ED
:101C8000AE010D2E000C660B770B8BE295E00E94E7
:101C90007B080E94FB0840ED480F4A3050F71C9F1C
:101CA000C0011D9F900D1124EC01C40FD11D50E007
:101CB00060E070E0EACF109216041092150488EEEE
:101CC00093E0A0E0B0E08093170490931804A093F1
:101CD0001904B0931A0422E332E0309314042093E1
:101CE000130425EC30E03093200420931F0424ECEF
:101CF00030E0309322042093210420EC30E0309334
:101D000024042093230421EC30E030932604209314
:101D1000250422EC30E0309328042093270426EC9D
:101D200030E030932A042093290410922C0410925E
:101D30002D0410922E0410922F041092B3041092CE
:101D4000B2048093B4049093B504A093B604B09306
:101D5000B70484E492E09093B1048093B0041092AD
:101D60002E0510922D0580E692E090932C0580932D
:101D70002B058FE380932F0584E18093340584E065
:101D800080933505109236051092BE041092C2045D
:101D90001092C1041092C30486E592E09093BD04B2
:101DA0008093BC04ECEBF4E088EF94E0148E10A276
:101DB000178E11A236968E179F07C1F782E192E027
:101DC00090931F0580931E058EE092E0909321056D
:101DD0008093200584E0809322058093230586E18B
:101DE00092E090931D0580931C058AE090E090930B
:101DF00025058093240584EF91E090932705809337
:101E0000260510922A0510922905109218051092A5
:101E1000190510921A0510921B05109228050895B5
:101E20005058BB27AA270E94280F0C949B100E9491
:101E30008D1038F00E94941020F039F49F3F19F46F
:101E400026F40C948A100EF4E095E7FB0C948410B1
:101E5000E92F0E94AC1058F3BA1762077307840782
:101E6000950720F079F4A6F50C94CE100EF4E095C9
:101E70000B2EBA2FA02D0B01B90190010C01CA0144
:101E8000A0011124FF27591B99F0593F50F4503EEF
:101E900068F11A16F040A22F232F342F4427585FE1
:101EA000F3CF469537952795A795F0405395C9F7F9
:101EB0007EF41F16BA0B620B730B840BBAF09150B1
:101EC000A1F0FF0FBB1F661F771F881FC2F70EC050
:101ED000BA0F621F731F841F48F487957795679523
:101EE000B795F7959E3F08F0B0CF9395880F08F00F
:101EF0009927EE0F9795879508950E94601008F432
:101F000081E008950E94960F0C949B100E949410FB
:101F100058F00E948D1040F029F45F3F29F00C9496
:101F2000841051110C94CF100C948A100E94AC10A4
:101F300068F39923B1F3552391F3951B550BBB27F8
:101F4000AA2762177307840738F09F5F5F4F220F3D
:101F5000331F441FAA1FA9F335D00E2E3AF0E0E834
:101F600032D091505040E695001CCAF72BD0FE2F7E
:101F700029D0660F771F881FBB1F26173707480712
:101F8000AB07B0E809F0BB0B802DBF01FF279358CA
:101F90005F4F3AF09E3F510578F00C9484100C94FA
:101FA000CF105F3FE4F3983ED4F38695779567951D
:101FB000B795F7959F5FC9F7880F911D96958795FF
:101FC00097F90895E1E0660F771F881FBB1F62171E
:101FD00073078407BA0720F0621B730B840BBA0BDC
:101FE000EE1F88F7E09508950E94B41088F09F577F
:101FF00098F0B92F9927B751B0F0E1F0660F771F2D
:10200000881F991F1AF0BA95C9F714C0B13091F022
:102010000E94CE10B1E008950C94CE10672F782F57
:102020008827B85F39F0B93FCCF3869577956795E7
:10203000B395D9F73EF490958095709561957F4F53
:102040008F4F9F4F0895E89409C097FB3EF49095F9
:102050008095709561957F4F8F4F9F4F9923A9F081
:10206000F92F96E9BB279395F69587957795679510
:10207000B795F111F8CFFAF4BB0F11F460FF1BC054
:102080006F5F7F4F8F4F9F4F16C0882311F096E9E7
:1020900011C0772321F09EE8872F762F05C0662395
:1020A00071F096E8862F70E060E02AF09A95660F4E
:1020B000771F881FDAF7880F9695879597F9089507
:1020C000990F0008550FAA0BE0E8FEEF1616170649
:1020D000E807F907C0F012161306E407F50798F0B1
:1020E000621B730B840B950B39F40A2661F0232BCA
:1020F000242B252B21F408950A2609F4A140A69546
:102100008FEF811D811D089597F99F6780E870E02A
:1021100060E008959FEF80EC089500240A9416165D
:10212000170618060906089500240A9412161306C5
:10213000140605060895092E0394000C11F4882353
:1021400052F0BB0F40F4BF2B11F460FF04C06F5F6F
:102150007F4F8F4F9F4F089557FD9058440F551F45
:1021600059F05F3F71F04795880F97FB991F61F019
:102170009F3F79F087950895121613061406551F90
:10218000F2CF4695F1DF08C0161617061806991FFC
:10219000F1CF86957105610508940895E894BB27F1
:1021A00066277727CB0197F908950E94601008F4FD
:1021B0008FEF089516F00C949C110C948A1068947B
:1021C0000C9484100E94B410A8F39923C1F3AEF3C9
:1021D000DF93CF931F930F93FF92C92FDD2788239F
:1021E0002AF02197660F771F881FDAF720E030E08A
:1021F00040E85FEB9FE3883920F0803E38F021967D
:102200008F770E94110FE8E0F1E004C00E94110FE7
:10221000E5E3F1E00E94AA118B01BE01EC01FB2E67
:102220006F5771097595771F880B990B0E942510C0
:1022300028E132E741E35FE30E943D11AF2D9801B1
:10224000AE01FF900F911F91CF91DF910E94280F57
:102250000C949B100E943D110C949B100E948D10B9
:1022600038F00E94941020F0952311F00C94841003
:102270000C948A1011240C94CF100E94AC1070F3AF
:10228000959FC1F3950F50E0551F629FF001729F1B
:10229000BB27F00DB11D639FAA27F00DB11DAA1F2A
:1022A000649F6627B00DA11D661F829F2227B00D77
:1022B000A11D621F739FB00DA11D621F839FA00D02
:1022C000611D221F749F3327A00D611D231F849F52
:1022D000600D211D822F762F6A2F11249F575040A9
:1022E0009AF0F1F088234AF0EE0FFF1FBB1F661F24
:1022F000771F881F91505040A9F79E3F510580F0ED
:102300000C9484100C94CF105F3FE4F3983ED4F308
:10231000869577956795B795F795E7959F5FC1F790
:10232000FE2B880F911D9695879597F908950E9429
:102330006010880B990B08959F3F31F0915020F465
:10234000879577956795B795880F911D9695879591
:1023500097F90895DF93CF931F930F93FF92EF9216
:10236000DF927B018C01689406C0DA2EEF010E9497
:102370003D11FE01E894A591259135914591559126
:10238000A6F3EF010E94280FFE019701A801DA943D
:1023900069F7DF90EF90FF900F911F91CF91DF9140
:1023A0000895A1E21A2EAA1BBB1BFD010DC0AA1F96
:1023B000BB1FEE1FFF1FA217B307E407F50720F0AE
:1023C000A21BB30BE40BF50B661F771F881F991F29
:1023D0001A9469F760957095809590959B01AC0172
:1023E000BD01CF010895EE0FFF1F881F8BBF07901F
:1023F000F691E02D199481E090E0F8940C9400128D
:04240000F894FFCF7E
:10240400B102C502D902ED020103150329034140BB
:102414003F3E454443423132334134353642373806
:1024240039432A30234400004000140054000000C3
:1024340000002202E702C3016F02F401D201E601A7
:1024440000000000FD03D0039104A403C803B403F7
:10245400A5030000000083054305110500000000EA
:10246400E607E702910490040D0A0054656D706557
:102474007261747572613A20002043202000526119
:102484007A64616C6A613A200020636D2020202008
:102494002020004B616C6B756C61746F720020209E
:1024A4002020202020202020202020202020202028
:1024B400005072696B617A20202020202020202087
:1024C40020202020004E6173746176697476652043
:1024D40073656E7A6F722020004E61737461766941
:1024E400747665207072696B617A61200053706C38
:1024F4006F736E65206E617374617669747665209E
:1025040000506F6E617374617669206E61737461DB
:1025140076697420005465737420202020202020C4
:1025240020202020202020200052617A7369726CC0
:102534006A69766F7374202020202020006E616EFB
:0A25440000696E66006F7666000005
:00000001FF
