:100000000C9498010C94C9010C94C9010C94C90179
:100010000C94C9010C94C9010C94C9010C94C90138
:100020000C94C9010C94C9010C94C9010C94C90128
:100030000C94C9010C94C9010C94C9010C94C90118
:100040000C94C9010C94C9010C94C9010C94C90108
:100050000C94C9010C94C9010C94C9010C940C0EA8
:100060000C94C9010C94A00C0C94760C0C94C9014E
:100070000C94C9010C94C9010C94C9010C94C901D8
:100080000C94C9010C94C9010C94C9010C94C901C8
:100090000C94C9010C94C9010C94C9010C94750EFF
:1000A0000C94C9010C94C9010C94C9010C94C901A8
:1000B0000C94C9010C94C9010C94C9010C94C90198
:1000C0000C94C9010C94C9010C94C9010C94C90188
:1000D0000C94C9010C94C9010C94C9010C94C90178
:1000E0000C94C90112081508040808080E084C08E9
:1000F00019081D08230827082B0831083508390876
:100100004C083F084308470808000000BE922449F5
:10011000123EABAAAA2ABECDCCCC4C3E0000008039
:10012000BEABAAAAAA3E00000000BF000000803FAC
:100130000000000000084178D3BB4387D1133D196C
:100140000E3CC3BD4282AD2B3E68EC8276BED98F99
:10015000E1A93E4C80EFFFBE01C4FF7F3F000000DD
:1001600000000C9427080C9423080C9429070C9485
:10017000700D0C945A070C941D080C94450D0C94AA
:1001800008080C949A030C94D30D0C940E080C944C
:10019000D70D0C9412080C94AF020C94FE050C942D
:1001A0003F080C94540D0C94680D0C94430D0C9462
:1001B00043080C94A4150C94FC040C94440D0C946A
:1001C00015080C944C070C9404080C94CD0D0C9459
:1001D0004C080C94D00D0C94D5070C9438070C9453
:1001E000420D0C944D080C9447080C9439080C945B
:1001F0009D0D0C9419080C94CC0D0C9488070C944C
:1002000031080C943B100C9435080C942B0800001A
:100210002100240027002A002D00300033000101B6
:100220000000040107010A01000022002500280047
:100230002B002E00310034000201000005010801EE
:100240000B01000020002300260029002C002F00B5
:100250003200000100000301060109010505050542
:10026000070508080808020202020A0A080804042E
:10027000040401010101010101010303030303035C
:100280000303040707070C0C0C0C0C0C0C0C0202EB
:10029000020206060606060606060B0B0B0B0B0BE8
:1002A0000B0B010210202008081020401020408075
:1002B000020102010804020101020408102040802A
:1002C00080402010080402018004020180402010B8
:1002D0000804020108040201010204081020408001
:1002E000010204081020408000000A0B02090C0DD6
:1002F0000E080703040100000000000000000000D9
:1003000000000000000000000000000000000000ED
:1003100000000000121110000000000000000000AA
:100320000000000000000000000000000000A41514
:1003300011241FBECFEFD1E2DEBFCDBF00E00CBF66
:1003400016E0A0E0B2E0E0ECF3E300E00BBF02C097
:1003500007900D92A832B107D9F728E0A8E2B6E0DD
:1003600001C01D92A634B207E1F711E0C8E9D1E05F
:1003700000E006C021970109802FFE010E948C1920
:10038000C739D10780E00807A9F70E94E0110C9453
:10039000DE190C9400008F929F92AF92BF92CF9281
:1003A000DF92EF92FF920F931F93CF93DF93FC01A5
:1003B0000F97DCF168017901CB01BA018F0120E0D0
:1003C00030E048EC52E40E9490180E945317EB0171
:1003D000B801110F880B990B0E948B1726E636E6A1
:1003E00046E650E40E94E1164B015C01C701B601EC
:1003F0000E948B179B01AC01C501B4010E949018AB
:1004000020E030E04AE754E40E94E1160E945317CE
:10041000AB01BC01CE01BA010E943719CB01693C86
:1004200071052CF088EC90E002C080E090E0DF9154
:10043000CF911F910F91FF90EF90DF90CF90BF90E1
:10044000AF909F908F900895BF92CF92DF92EF92DE
:10045000FF920F931F93CF93DF938C017B016A016F
:100460006430710534F0043011055CF5C0E0D0E073
:1004700024C0C4E0D0E0C61BD70B34E0B32E6B2DF4
:100480006C1B80E00E94770986EC92E00E94FD08D8
:100490002197A9F7E8CF6C2F80E00E947709F60139
:1004A000819191916F010E94FD08602F83E10E946C
:1004B00077092196C430D10519F1CE15DF055CF31B
:1004C0001FC0E8012397CE01880F991FC80ED91EBF
:1004D000B12CCE15DF05A4F40C171D078CF06B2D85
:1004E00080E00E947709F601819191916F010E944D
:1004F000FD0863E083E10E9477092196B394E9CF78
:10050000DF91CF911F910F91FF90EF90DF90CF90EF
:10051000BF90089588E30E94560E9C01990F440BEA
:10052000550B213084E038074105510534F457FF5D
:1005300008C020E030E0A90104C020E034E040E041
:1005400050E0ACEDB0E00E94B219DC01CB012AE032
:10055000B595A795979587952A95D1F70895CF9248
:10056000DF92EF92FF920E94EC080E94710A8AEDDE
:1005700092E00E94FD080E94000E6B017C010E9427
:10058000000EAB01BC014C195D096E097F09E091B9
:100590008202F091830282819381092E000CAA0BC2
:1005A000BB0B84179507A607B707D0F461E088E076
:1005B0000E9477090E948A020E94490983EE92E014
:1005C0000E94FD08E0918202F09183028281938172
:1005D000092E000CAA0BBB0BC80ED91EEA1EFB1E6F
:1005E0000E942A0B8A3259F6FF90EF90DF90CF904D
:1005F0000C94F4080F931F9360E083E00E94BF0AFD
:1006000083E090E00197F1F761E083E00E94BF0A88
:1006100083E290E00197F1F760E083E00E94BF0A77
:10062000E4EAF2E06491EEE5F2E0E491F0E0EE0F4E
:10063000FF1FEE5BFD4F8591949100E21EE420E0E8
:1006400030E0462F0E949B116115710581059105CF
:1006500039F0DC01CB010196A11DB11DBF7003C0B3
:1006600080E090E0DC01BC01990F880B990B0E949F
:100670008B1726E933E44BE05DE30E94901820E0FD
:1006800030E040E05FE30E9490181F910F910895C1
:10069000CF92DF92EF92FF9287E30E94560EBC0149
:1006A000990F880B990B0E948B179B01AC0160E09E
:1006B00070E080E894E40E94E11620E030E040E839
:1006C0005FE30E946F1620E030E44CE156E40E94A4
:1006D00090180E9448186B017C0129E537E44CEB27
:1006E00053E30E949018A70196010E94901823E7F7
:1006F0003FE745E759E30E947016A70196010E9463
:1007000090182BEE3FEF43E95AE30E9470169B01CD
:10071000AC0160E070E080E89FE30E94E11623E313
:1007200033E948E853E40E946F16FF90EF90DF90A2
:10073000CF9008952F923F924F925F926F927F9247
:100740008F929F92AF92BF92CF92DF92EF92FF92E1
:100750000F931F93CF93DF9300D000D0CDB7DEB7B8
:10076000E0918202F091830220813181A481B581E0
:100770000E94941924E630E040E050E00E946D1998
:1007800049015A010E94EC080E94710A0E94000E61
:100790006B017C01212C312CC401990CAA0BBB0BE1
:1007A00089839A83AB83BC830E94000EAB01BC019A
:1007B0004C195D096E097F09E0918202F091830274
:1007C00082819381092E000CAA0BBB0B841795071D
:1007D000A607B70708F0F1C00E9448034B015C016F
:1007E000A0918202B0918302BE83AD8316966D9173
:1007F0007C911797072E000C880B990B0E948B1782
:100800009B01AC01C501B4010E943B1818169CF471
:10081000ED81FE8180809180092C000CAA08BB0824
:100820000E94FA022B013C010E948A029501840178
:10083000B301A2010CC00E94FA024B015C010E94AC
:100840008A0209811A812B813C81B501A4010E9491
:10085000CB012101032C000C660877084C01990F8D
:10086000AA08BB08F7E98F169104A104B1042CF47F
:10087000B7FC05C09401A50106C026E901C020E02F
:1008800030E040E050E0A0EFBFEF0E94C01926E941
:1008900030E040E050E00E946D19DA01C901409655
:1008A000A11DB11D481659066A067B0609F477C0DA
:1008B00087E988169104A104B10434F4B7FE09C095
:1008C000812C912C540105C086E9882E912CA12CF5
:1008D000B12CA0EFBFEFA50194010E94C01926E939
:1008E00030E040E050E00E946D1949015A0190E16A
:1008F000890E911CA11CB11C140160E080E00E94D3
:10090000770986EC92E00E94FD0861E080E00E9499
:10091000770986EC92E00E94FD0862E086E00E9482
:10092000770985E00E94400963E086E00E9477092C
:1009300085E00E9440091D826D8183E10E94770954
:1009400086E00E944009AD81AF5FAD83A430A1F77E
:1009500061E0882D0E94770981E00E944009B2E0A1
:10096000B80DBD8361E08B2F0E94770981E00E9462
:10097000400960E0882D0E94770982E00E944009CA
:1009800060E081E0880D0E94770983E00E944009C1
:1009900060E08D810E94770984E00E944009E09127
:1009A0008202F091830282819381092E000CAA0BAE
:1009B000BB0BC80ED91EEA1EFB1E0E942A0B8A32F0
:1009C00009F0F2CE26960FB6F894DEBF0FBECDBF6B
:1009D000DF91CF911F910F91FF90EF90DF90CF901B
:1009E000BF90AF909F908F907F906F905F904F904F
:1009F0003F902F900C94F4084F925F926F927F92E9
:100A00008F929F92AF92BF92CF92DF92EF92FF921E
:100A10000F931F93CF93DF9300D000D0CDB7DEB7F5
:100A2000E0918202F091830220813181A481B5811D
:100A30000E94941924E630E040E050E00E946D19D5
:100A400049015A010E94EC080E94710A60E080E0AE
:100A50000E9477098CEE92E00E94FD0862E080E03F
:100A60000E94770981E093E00E94FD080E94000E39
:100A70006B017C01092C000CAA08BB080E94000E27
:100A8000AB01BC014C195D096E097F09E09182023E
:100A9000F091830282819381092E000CAA0BBB0B7B
:100AA00084179507A607B70708F089C00E94FA02C5
:100AB0000E94531769837A838B839C83E09182021F
:100AC000F0918302008111810E948A029E838D83AE
:100AD0000E9448032B013C01E0918202F0918302C5
:100AE00066817781072E000C880B990B0E948B176B
:100AF0009B01AC01C301B2010E94DC1687FD15C049
:100B00002D813E81B901330F880B990B0E948B1701
:100B100026E636E646E650E40E94E1162B013C014B
:100B2000B801110F880B990B12C00E948A02BC01F8
:100B3000990F880B990B0E948B1726E636E646E63E
:100B400050E40E94E1162B013C01C501B4010E9452
:100B50008B179B01AC01C301B2010E94901820E0E9
:100B600030E04AE754E40E94E1160E9453177E8366
:100B70006D8361E088E00E94770989819A810E94F3
:100B8000490985E193E00E94FD0863E088E00E9446
:100B900077098D819E810E94490985E193E00E9439
:100BA000FD08E0918202F091830282819381092EF7
:100BB000000CAA0BBB0BC80ED91EEA1EFB1E0E941E
:100BC0002A0B8A3209F05ACF0E94F40826960FB6F3
:100BD000F894DEBF0FBECDBFDF91CF911F910F9173
:100BE000FF90EF90DF90CF90BF90AF909F908F904D
:100BF0007F906F905F904F900C94EC082F923F92F3
:100C00004F925F926F927F928F929F92AF92BF921C
:100C1000CF92DF92EF92FF920F931F93CF93DF93C8
:100C200000D000D0CDB7DEB7E0918202F091830210
:100C300020813181A481B5810E94941924E630E09D
:100C400040E050E00E946D1949015A010E94EC08F1
:100C50000E94710A60E080E00E9477098CE193E0D5
:100C60000E94FD0861E080E00E9477098AE293E03B
:100C70000E94FD0862E080E00E94770985E393E02E
:100C80000E94FD0863E080E00E9477098FE393E013
:100C90000E94FD080E94000E6B017C01C401990CAA
:100CA000AA0BBB0B89839A83AB83BC830E94000E83
:100CB000AB01BC014C195D096E097F09E09182020C
:100CC000F091830282819381092E000CAA0BBB0B49
:100CD00084179507A607B70708F077C00E94480356
:100CE0002B013C010E94FA024B015C010E948A0226
:100CF0009E838D832090820230908302D1010D91DA
:100D00001C91012E000C220B330BB501A4010E9493
:100D1000CB018C01F10166817781072E000C880BD5
:100D2000990B0E948B179B01AC01C301B2010E9479
:100D3000DC1687FF0BC009811A812B813C81B5012C
:100D4000A4018D819E810E94CB018C0160E08CE02A
:100D50000E94770942E0C301B2010E94A3098CE41A
:100D600093E00E94FD0861E089E00E94770942E07B
:100D7000C501B4010E94A30980E593E00E94FD082B
:100D800062E088E00E9477098D819E810E94490976
:100D900083EE92E00E94FD0863E08BE00E947709F9
:100DA000C8010E94490986ED92E00E94FD08E09189
:100DB0008202F091830282819381092E000CAA0B9A
:100DC000BB0BC80ED91EEA1EFB1E0E942A0B8A32DC
:100DD00009F06CCF0E94F40826960FB6F894DEBF97
:100DE0000FBECDBFDF91CF911F910F91FF90EF907C
:100DF000DF90CF90BF90AF909F908F907F906F903B
:100E00005F904F903F902F900C94EC0896E0899F54
:100E1000D0011124A35FB84F90967C936E935F9797
:100E200091E091969C93919790917907E0917A0740
:100E3000F0917B07992339F0309751F0811108C068
:100E40008091290704C0309719F05C968C91199411
:100E50000895FC01538D448D252F30E0842F90E0C0
:100E6000821B930B541710F0CF96089501970895A5
:100E7000FC01918D828D981761F0828DDF01A80FA2
:100E8000B11D5D968C91928D9F5F9F73928F90E0C4
:100E900008958FEF9FEF0895FC01918D828D981733
:100EA00031F0828DE80FF11D858D90E008958FEF70
:100EB0009FEF0895FC01918D228D892F90E0805C39
:100EC0009F4F821B91098F7399270895FC01848D90
:100ED000DF01A80FB11DA35ABF4F2C91848D90E064
:100EE00001968F739927848FA689B7892C93A0893F
:100EF000B1898C91837080648C93938D848D9813C9
:100F000006C00288F389E02D80818F7D808308955B
:100F1000EF92FF920F931F93CF93DF93EC0181E049
:100F2000888F9B8D8C8D981305C0E889F989808105
:100F300085FD26C0F62E0B8D10E00F5F1F4F0F733F
:100F40001127E02E8C8DE8120CC00FB607FCFACFEB
:100F5000E889F989808185FFF5CFCE010E94660777
:100F6000F1CF8B8DFE01E80FF11DE35AFF4FF082A8
:100F70009FB7F8940B8FEA89FB89808180620AC051
:100F80009FB7F894EE89FF896083E889F9898081A9
:100F90008370806480839FBF81E090E0DF91CF9178
:100FA0001F910F91FF90EF900895CF93DF93EC0185
:100FB000888D8823C9F0EA89FB89808185FD05C079
:100FC000A889B9898C9186FD0FC00FB607FCF5CFB3
:100FD000808185FFF2CFA889B9898C9185FFEDCFFB
:100FE000CE010E946607E7CFDF91CF91089590E090
:100FF000FC013197E231F10508F04EC08827EE5828
:10100000FF4F8F4F0C948C19809180008F7703C015
:10101000809180008F7D8093800008958091800072
:10102000877FF9CF84B58F7702C084B58F7D84BD6B
:1010300008958091B0008F7703C08091B0008F7DBC
:101040008093B0000895809190008F7707C08091C1
:1010500090008F7D03C080919000877F80939000E7
:1010600008958091A0008F7707C08091A0008F7DA8
:1010700003C08091A000877F8093A0000895809195
:1010800020018F7707C0809120018F7D03C0809160
:101090002001877F809320010895CF92DF92EF9205
:1010A000FF920F931F93CF93DF936C017A018B0113
:1010B000C0E0D0E0CE15DF0581F0D8016D918D0143
:1010C000D601ED91FC910190F081E02DC6011995BA
:1010D000892B11F02196EECF7E01C701DF91CF91D0
:1010E0001F910F91FF90EF90DF90CF9008950F9395
:1010F0001F93CF93DF93C82FD62F86E0C89FF001B0
:101100001124E35FF84F11A2878D90A181309105E2
:10111000D9F040F082309105A9F10397F1F560E034
:1011200070E034C06623C9F161E070E08C2F0E944A
:1011300006070E94000E6093650770936607809310
:1011400067079093680729C00E94000E0091650709
:10115000109166072091670730916807AB01BC01C9
:10116000401B510B620B730B8091770790917807AE
:10117000A0E0B0E084179507A607B70718F462E06F
:1011800070E004C0D11109C063E070E08C2FDF91E2
:10119000CF911F910F910C940607DF91CF911F9172
:1011A0000F910895009769F0FC0101900020E9F784
:1011B0003197AF01481B590BBC018CE797E00C94A9
:1011C0004D0880E090E008950E94D91940E0682F12
:1011D0008CE797E00C94241081E00E94E6088BE3F2
:1011E0009FE10197F1F70895ECE7F7E08681982FEA
:1011F000926096838A600C94E6080C94D2088F92D1
:101200009F92AF92BF920F931F93CF93DF93CDB76F
:10121000DEB7A1970FB6F894DEBF0FBECDBF19A2FF
:10122000423008F44AE08E010F5D1F4F842E912C4E
:10123000A12CB12CA50194010E944B19E62FB901F4
:10124000CA0101501109EA3014F4E05D01C0E95C03
:10125000D801EC93232B242B252B61F7C8010E9486
:10126000D208A1960FB6F894DEBF0FBECDBFDF91B6
:10127000CF911F910F91BF90AF909F908F90089545
:1012800041E0682F8CE797E00E94241081E090E015
:101290000895CF92DF92EF92FF92CF93DF936C018C
:1012A000990FEE08FF08F7FE17C08DE20E94400973
:1012B000EC0166277727CB016C197D098E099F0900
:1012C0004AE00E94FF088C0F9D1FDF91CF91FF9095
:1012D000EF90DF90CF9008954AE0C701B601DF910B
:1012E000CF91FF90EF90DF90CF900C94FF08CF93B9
:1012F000DF93CDB7DEB728970FB6F894DEBF0FBEE9
:10130000CDBF98E0E4E8F2E0DE01119601900D9285
:101310009A95E1F790918407961710F46FEF690F93
:10132000FE013196E60FF11DE60FF11D9081890F48
:10133000806828960FB6F894DEBF0FBECDBFDF9150
:10134000CF910C94E6088F929F92AF92BF92CF926A
:10135000DF92EF92FF920F931F93CF93DF936B0176
:101360007C01142F9B01AC010E94FD18882319F009
:1013700083E995E027C046015701E894B7F82FEFBD
:101380003FEF4FE75FE7C501B4010E94FD188111EF
:101390000DC02FEF3FEF4FE75FE7C501B4010E949B
:1013A000DC1618161CF487E995E00CC02FEF3FEF10
:1013B0004FE75FE4C701B6010E943B18181684F49A
:1013C0008BE995E0DF91CF911F910F91FF90EF9006
:1013D000DF90CF90BF90AF909F908F900C94D208E9
:1013E0002FEF3FEF4FE75FECC701B6010E94DC161D
:1013F00087FDE6CF20E030E0A901C701B6010E94D9
:10140000DC1687FF09C08DE20E944009EC01F7FA63
:10141000F094F7F8F09402C0C0E0D0E000E060E0A3
:1014200070E080E09FE3101741F020E030E040E200
:1014300051E40E94E1160F5FF6CFA70196010E94CA
:1014400070166B017C010E945A174B015C014AE047
:101450000E94FF08C80FD91F1123A9F1C501B401CB
:101460000E9489179B01AC01C701B6010E946F164B
:101470006B017C018EE20E944009C80FD91F20E059
:1014800030E040E251E4C701B6010E9490184B01E0
:101490005C010E945A176B01E12CF12C4AE0C70154
:1014A000B6010E94FF08C80FD91FC701B6010E94EC
:1014B00089179B01AC01C501B4010E946F166B0135
:1014C0007C011150E1F6CE01DF91CF911F910F9178
:1014D000FF90EF90DF90CF90BF90AF909F908F9054
:1014E0000895ECE7F7E086818D7F868388600C9411
:1014F000E6080F931F93CF93DF938B01877028E04B
:10150000829FC001112480640E94E608E801085F00
:101510001F4F69918CE797E00E943B10C017D107DD
:10152000C1F7DF91CF911F910F910895CF93DF9372
:10153000282F30E0F901E851FD4F8491F901EE5573
:10154000FD4FD491F901E45AFD4FC491CC2391F0A1
:1015500081110E94F707EC2FF0E0EE0FFF1FEE5B0A
:10156000FD4FA591B491EC91ED2381E090E021F441
:1015700080E002C080E090E0DF91CF9108951F935A
:10158000CF93DF93282F30E0F901E851FD4F84918C
:10159000F901EE55FD4FD491F901E45AFD4FC49184
:1015A000CC23C1F0162F81110E94F707EC2FF0E039
:1015B000EE0FFF1FE85DFD4FA591B4919FB7F89422
:1015C000111104C08C91D095D82302C0EC91DE2B70
:1015D000DC939FBFDF91CF911F910895CF93DF934D
:1015E00090E0FC01EE55FD4F2491FC01E45AFD4FC3
:1015F0008491882361F190E0880F991FFC01E25FDC
:10160000FD4FC591D491FC01E85DFD4FA591B491CA
:10161000611109C09FB7F89488812095822388833F
:10162000EC912E230BC0623061F49FB7F89488814F
:10163000322F309583238883EC912E2B2C939FBFE0
:1016400006C08FB7F894E8812E2B28838FBFDF91D7
:10165000CF9108956F927F928F929F92AF92BF9297
:10166000CF92DF92EF92FF920F931F93CF93DF936E
:1016700081E0809379070E94000E00916907109124
:101680006A0720916B0730916C07AB01BC01401BCE
:10169000510B620B730B8091750790917607A0E058
:1016A000B0E084179507A607B70708F0E6C0C0E0CA
:1016B00080917307C81730F0712C812C912C540144
:1016C000839440C0E0916F07F0917007EC0FF11D1B
:1016D00062E080810E94EE0ACF5FEACFC62DD0E0A3
:1016E000E0916F07F0917007EC0FFD1F80810E9461
:1016F000960A2496CC0FDD1FC35FD84F892B09F0C3
:101700004BC0888199818C299D2999838883639412
:1017100080917307681610F3E0917107F0917207DA
:10172000E00FF11F61E080810E94BF0A8091710784
:1017300090917207FC01E00FF11F60E080810E9430
:10174000EE0A739480917407781658F5072D10E00F
:10175000E0917107F0917207E00FF11F61E0808165
:101760000E94EE0AE0917107F0917207E00FF11FFD
:1017700060E080810E94BF0AD501C401072C04C02B
:10178000880F991FAA1FBB1F0A94D2F76C017C0116
:10179000E094F094612CBCCF888199818E219F21A7
:1017A000B4CF2DE0E22E27E0F22EF7018FEF9FEF6E
:1017B000278D30A1232B21F4148E968F858F11A2B3
:1017C000369627E0E934F20799F7C0E096E0D92E83
:1017D00080917307C81758F5D0E00C2F10E0000F68
:1017E000111F0B5E184F20917407D217F0F4F80107
:1017F000408151810D2E02C0569547950A94E2F71B
:10180000642F6170C29F900111242D0F311DEDE0F6
:10181000F7E080E0A58DB68D2A173B0709F44DC08F
:101820008F5F36968A30B1F72CC0CF5FD1CFC0E042
:10183000F70181A18111C1E0F6E0EF0EF11C29E46E
:10184000E21627E0F206A1F70E94000E60936907F6
:1018500070936A0780936B0790936C07CC2369F0B1
:1018600080912E07882349F080912C0790912D07B5
:10187000019719F4809129072AC01092790780E016
:1018800026C040FF1CC0EDE0F7E080E090E0448D12
:10189000411117C0E0916D07F0916E07E20FF31F41
:1018A0004081D89EF001D99EF00D1124E35FF84FDE
:1018B000448F368F258F10A2178E0E947708DF5F26
:1018C00092CF019636968A30910509F7F8CFDF91CD
:1018D000CF911F910F91FF90EF90DF90CF90BF902D
:1018E000AF909F908F907F906F9008951F920F926E
:1018F0000FB60F9211240BB60F922F933F934F9375
:101900005F936F937F938F939F93AF93BF93EF9367
:10191000FF9384E696E00E946607FF91EF91BF91E6
:10192000AF919F918F917F916F915F914F913F9177
:101930002F910F900BBE0F900FBE0F901F90189518
:101940001F920F920FB60F9211240BB60F922F9386
:101950008F939F93EF93FF93E0917406F091750638
:101960008081E0917A06F0917B0682FD12C0908121
:1019700080917D068F5F8F7320917E06821751F0D4
:10198000E0917D06F0E0EC59F94F958F80937D064C
:1019900001C08081FF91EF919F918F912F910F90C6
:1019A0000BBE0F900FBE0F901F9018958F929F92B5
:1019B000AF92BF92CF92DF92EF92FF926B017C01C8
:1019C0000E94DB0D4B015C01C114D104E104F10460
:1019D000F1F00E94DB0DDC01CB0188199909AA09FD
:1019E000BB09883E9340A105B10570F321E0C21AFE
:1019F000D108E108F10888EE880E83E0981EA11C4A
:101A0000B11CC114D104E104F10419F7DDCFFF903A
:101A1000EF90DF90CF90BF90AF909F908F90089500
:101A200085ED8093BC008091BC0084FDFCCF1092BA
:101A3000910708954091F607262F30E0240F311DBD
:101A400021323105DCF4209191072430C9F4FC01E6
:101A500080E090E0861758F43091F6072191DC0180
:101A6000AA52B84FA30FB11D2C930196F3CF8091CA
:101A7000F607680F6093F60780E0089581E0089507
:101A800082E00895089508950895E0918A0780916D
:101A90008907E81730F4F0E0EA54F84F808190E0CD
:101AA00008958FEF9FEF089590918A07809189079D
:101AB000981750F4E92FF0E0EA54F84F208130E015
:101AC0009F5F90938A0702C02FEF3FEFC9010895EF
:101AD0008091890790E020918A07821B91090895DF
:101AE000CF92DF92EF92FF920F931F93CF93DF93EA
:101AF0007C01CB018A012091B507222389F0EB01FB
:101B00006B01C40ED51ECC15DD0569F06991D701B6
:101B1000ED91FC910190F081E02DC7011995F3CF73
:101B2000642F0E941A0DC801DF91CF911F910F9170
:101B3000FF90EF90DF90CF900895CF93DF931F92A7
:101B4000CDB7DEB769832091B5072223D1F020916C
:101B50008B07203240F021E030E0FC013383228308
:101B600080E090E015C080918C07E82FF0E0EB5604
:101B7000F84F998190838F5F80938C0780938B07B8
:101B800005C061E0CE0101960E941A0D81E090E04F
:101B90000F90DF91CF910895089580E090E008952F
:101BA000862F0C94960A862F642F0C94BF0A862FDA
:101BB000642F0C94EE0A3FB7F894809142089091FC
:101BC0004308A0914408B091450826B5A89B05C0DC
:101BD0002F3F19F00196A11DB11D3FBFBA2FA92FAC
:101BE000982F8827820F911DA11DB11DBC01CD0129
:101BF00042E0660F771F881F991F4A95D1F7089515
:101C00002FB7F89460913E0870913F08809140088A
:101C1000909141082FBF08951F920F920FB60F9217
:101C200011242F933F938F939F93AF93BF938091F2
:101C30003E0890913F08A0914008B0914108309132
:101C40003D0823E0230F2D3720F40196A11DB11D7F
:101C500005C026E8230F0296A11DB11D20933D0863
:101C600080933E0890933F08A0934008B0934108AA
:101C70008091420890914308A0914408B091450892
:101C80000196A11DB11D8093420890934308A09333
:101C90004408B0934508BF91AF919F918F913F91B8
:101CA0002F910F900FBE0F901F901895863308F05C
:101CB000865390917B00282F2870977F922B9093CA
:101CC0007B008770806480937C0080917A008064C0
:101CD00080937A0080917A0086FDFCCF8091780015
:101CE0002091790090E0922B08951F920F920FB6E9
:101CF0000F9211240BB60F922F933F934F935F9344
:101D00006F937F938F939F93AF93BF93EF93FF93C3
:101D10008091B900887F803609F49CC068F58832CC
:101D200009F45BC090F4803109F454C038F488237E
:101D300009F4F6C0883009F44DC0F6C0883109F4C2
:101D40004CC0803209F45DC0EFC0803409F468C033
:101D500048F4803309F455C0883309F0E5C0809316
:101D60001908D8C0803509F44FC0883509F45DC022
:101D7000883409F0D9C0D6C0883909F4C7C0A8F49E
:101D8000883709F467C038F4883609F463C08037AF
:101D900009F460C0C9C0883809F4B8C0803909F4B2
:101DA0005FC0803809F0C0C05BC0803B09F486C0CA
:101DB00038F4803A09F466C0883A09F47FC0B4C0A8
:101DC000803C09F4A7C0883C09F4A4C0883B09F40E
:101DD0008AC0AAC080913C0810C090913B088091B5
:101DE0003A08981770F5E0913B0881E08E0F8093D8
:101DF0003B08F0E0E65EF74F80818093BB0085EC06
:101E000086C0809319088EC0E0913B0881E08E0F58
:101E100080933B088091BB00F0E0E65EF74F808343
:101E200090913B0880913A086EC0E0913B0881E0B8
:101E30008E0F80933B088091BB00F0E0E65EF74F89
:101E400080838091930781116DC081E08093920718
:101E500084EA61C083E08093910710921808CFCF85
:101E600080911808803208F051C0E091180881E094
:101E70008E0F809318088091BB00F0E0E850F84F77
:101E80008083BDCF85EC8093BC0010929107809138
:101E90001808803230F4E0911808F0E0E850F84F6C
:101EA00010826091180870E0E0918F07F091900720
:101EB00088EF97E019951092180836C084E0809357
:101EC00091071092F7071092F607E0918D07F091B5
:101ED0008E0719958091F607811105C081E08093E6
:101EE000F6071092D607E091F70781E08E0F8093F6
:101EF000F707F0E0EA52F84F80818093BB009091A1
:101F0000F7078091F607981708F479CF85E8809352
:101F1000BC000AC085EC8093BC001092910704C0FD
:101F2000109219080E94100DFF91EF91BF91AF918F
:101F30009F918F917F916F915F914F913F912F91E1
:101F40000F900BBE0F900FBE0F901F901895CF9360
:101F5000FC01C48121E02093B507C093940710923F
:101F60008C0710928B078385682B81E097E00E9495
:101F70009D0D90918B07913208F045C0809191079B
:101F80008111FCCF82E08093910781E080939307D9
:101F90008FEF8093190810923B0890933A08A5E9B7
:101FA000B7E0EAE1F8E080E0981721F02D91219365
:101FB0008F5FFACF10923C0880913C08CC0FC82B61
:101FC000C0933C0880919207813061F4109292078F
:101FD00080913C088093BB008091BC0083FDF8CFCA
:101FE00085EC01C085EE8093BC0080919107823022
:101FF000E1F3809119088F3F31F080911908803208
:1020000011F08091190810928C0710928B07109292
:10201000B507CF9108950F931F93CF938C01C62FCF
:102020000E94A70F6C2F6460C8010E94A70F6C2F3D
:102030006B7FC8010E94A70F83EC90E00197F1F736
:10204000CF911F910F9108950F931F93CF93DF931B
:102050008C01C62FD42F607F642B0E940B1080E16F
:10206000C89FB00111246D2BC801DF91CF911F9142
:102070000F910C940B1041E00E94241081E090E03D
:102080000895CF92DF92EF92FF920F931F93CF9319
:10209000DF93CDB7DEB72A970FB6F894DEBF0FBE39
:1020A000CDBF6C01E982FA820B831C832D833E83B2
:1020B0004F83588769877A87CE0101967C0100E0BB
:1020C00010E0F70161917F01C8018C0D9D1D0E94F8
:1020D00061160F5F1F4F0A30110599F72A960FB648
:1020E000F894DEBF0FBECDBFDF91CF911F910F914E
:1020F000FF90EF90DF90CF9008959F92AF92BF92A4
:10210000CF92DF92EF92FF920F931F93CF93DF93C3
:102110006C015B01EA0179010E94EC0860E080E05B
:102120000E9477098FE995E00E94FD08C6010E9490
:10213000FD0882E393E00E94FD0861E080E00E94D8
:102140007709888199810E944909C5010E94FD088B
:1021500062E080E00E94770989EA95E00E94FD082C
:102160006091880770E06F5F7F4F80E090E04AE009
:102170000E94FF0863E080E00E94770985EB95E00C
:102180000E94FD080E942A0B843471F08A32D1F734
:10219000DF91CF911F910F91FF90EF90DF90CF9043
:1021A000BF90AF909F9008950E94EC0860E080E09F
:1021B0000E9477098AEC95E00E94FD08C6010E9402
:1021C000FD0882E393E00E94FD0861E080E00E9448
:1021D000770983ED95E00E94FD08C8010E94490936
:1021E00089ED95E00E94FD08C7010E9449098EED26
:1021F00095E00E94FD0862E080E00E94770980EE91
:1022000095E00E94FD0863E080E00E947709A12C20
:10221000B12CC12CD12C8AE0982E85E0A816B104EF
:1022200039F40E94EC080E94710A80EF95E044C0E6
:102230000E942A0B90ED980F9A3018F0843469F7B9
:1022400010C09C9C90019D9C300D1124892F90E022
:102250006901C80ED91E0E944909EFEFAE1ABE0AE5
:10226000DCCFC016D10614F1EC14FD04FCF0D982C9
:10227000C88280918807E0918202F0918302E08019
:10228000F1800281138124813581468157816085E7
:102290007185EAE08E9FC00111240E9441100E94C6
:1022A000EC080E94710A8DEF95E006C00E94EC08D0
:1022B0000E94710A88E096E00E94FD0868EE73E0D3
:1022C00080E090E00E94D60CDF91CF911F910F919A
:1022D000FF90EF90DF90CF90BF90AF909F900C94C5
:1022E000F408CF93DF93EC010E94EC0861E080E0FA
:1022F0000E94770985E196E00E94FD0862E080E097
:102300000E9477098CE196E00E94FD0863E080E07E
:102310000E947709CE010E94FD080E94710A68EEB2
:1023200073E080E090E00E94D60C0E94F408DF91F8
:10233000CF910C94EC08CF92DF92EF92FF920F9323
:102340001F93E82FF92F05C0015011092109310908
:1023500061F1908196239417B9F305C001501109DA
:102360002109310911F1908196239413F7CFC12CE3
:10237000D12CE12CF12C0AC08FEFC81AD80AE80A38
:10238000F80A0C151D052E053F0579F0808186237E
:10239000841791F36C2D7D2D8E2D9F2D1F910F9104
:1023A000FF90EF90DF90CF90089560E070E080E0C4
:1023B00090E01F910F91FF90EF90DF90CF900895E4
:1023C000789484B5826084BD84B5816084BD85B510
:1023D000826085BD85B5816085BD80916E0081601C
:1023E00080936E00109281008091810082608093C2
:1023F00081008091810081608093810080918000C4
:102400008160809380008091B10084608093B100EE
:102410008091B00081608093B000809191008260D3
:1024200080939100809191008160809391008091D0
:1024300090008160809390008091A10082608093E1
:10244000A1008091A10081608093A1008091A000F3
:1024500081608093A000809121018260809321019E
:102460008091210181608093210180912001816010
:102470008093200180917A00846080937A0080911B
:102480007A00826080937A0080917A0081608093E4
:102490007A0080917A00806880937A001092C1005F
:1024A000E0917406F091750682E08083E0917006F9
:1024B000F09171061082E0917206F09173068FEC34
:1024C000808310927C06E0917806F091790686E090
:1024D0008083E0917606F091770680818061808329
:1024E000E0917606F0917706808188608083E091A4
:1024F0007606F0917706808180688083E091760689
:10250000F091770680818F7D808360E087E30E9471
:10251000EE0A61E083E00E94EE0A60E082E00E9441
:10252000EE0A10928A071092890710928C07109277
:102530008B071092910781E0809393071092920786
:1025400061E084E10E94BF0A61E085E10E94BF0A68
:102550008091B9008E7F8093B9008091B9008D7F02
:102560008093B90088E48093B80085E48093BC0030
:1025700082E49DE090938E0780938D0783E49DE035
:102580009093900780938F07109281078091860720
:10259000823018F098E0909381078093840762E37B
:1025A00070E080E090E00E94D60C609187078CE795
:1025B00097E00E94A70F68EE73E080E090E00E9431
:1025C000D60C60E38CE797E00E940B10CBE4D6E4D6
:1025D000CE010197F1F760E38CE797E00E940B10C2
:1025E0002197F1F760E38CE797E00E940B1083E5F9
:1025F00092E00197F1F760E28CE797E00E940B1000
:102600008091810780620E94E60884E080938207BF
:102610008CE00E94E6080E94EC0882E08093830729
:1026200086E00E94E60882E00E94E6088BE39FE1D4
:102630000197F1F788E08093870760E08CE797E0E7
:102640000E94A70F0E94F40868E572E081E00E94F2
:10265000790A60E572E082E00E94790A68E472E03B
:1026600083E00E94790A60E472E084E00E94790AC3
:1026700068E372E085E00E94790A60E372E086E038
:102680000E94790AC0E0D0E0CE01885D994F7C01BC
:1026900000E010E0C8018C0F9D1F0E945916F70141
:1026A00081937F010F5F1F4F0A30110599F72A961A
:1026B000CC33D10549F78CE390E00E945916809302
:1026C0008807FAE08F9FC0011124885D994F90938D
:1026D00083028093820260912E0270912F0246E263
:1026E00052E080E090E00E942402C6E2D2E04EE296
:1026F000C42E42E0D42E5FEA452E52E0552E6AE900
:10270000662E63E0762E7CEFA72E74E0B72EEEEFF8
:102710008E2EE5E09E2EF601008111810E94EC08CC
:10272000AE01B80180E090E00E942402E12CF12C7F
:102730001801F1E02F1A31080E942A0B8A3209F49D
:10274000EEC1823361F41E141F0424F421E0E21A66
:10275000F10813C0780181E0E81AF1080EC088334F
:1027600019F0853349F70FC0E214F30424F49FEF06
:10277000E91AF90A02C0E12CF12CAE01B801C70137
:102780000E942402D9CFE2E0C632DE0779F5F1E0FB
:10279000EF16F104E9F064F4EF2809F0BCCFE09102
:1027A0008202F09183020084F185E02D1995B3CF68
:1027B00082E0E816F10499F093E0E916F10409F0DB
:1027C000AACFC0E0D2E080E2C82E82E0D82EA3CF0C
:1027D000C6E1D2E024E2C22E22E0D22E9CCFCCE091
:1027E000D2E092E2C92E92E0D92E95CFE2E0C63136
:1027F000DE0709F0A8C0F1E0EF16F10409F450C0BB
:102800004CF58FEFE816F80639F4C6E2D2E03EE266
:10281000C32E32E0D32E7FCFEF2809F07CCFE0919A
:102820008202F0918302682D9186808680918807CC
:10283000E080F180028113812481358146815781B6
:102840007185EAE08E9FC00111240E94411086E547
:1028500093E040C093E0E916F10409F459C0ECF1AB
:10286000F4E0EF16F10409F056CFE0918202F09106
:1028700083026A2DB186A08680918807E080F1806E
:102880000281138124813581468157817185EAE077
:102890008E9FC00111240E94411088ED92E01AC061
:1028A000E0918202F0918302642D518640868091EE
:1028B0008807E080F180028113812481358146817F
:1028C00057817185FAE08F9FC00111240E94411049
:1028D00085E693E00E9471111ECFE0918202F09193
:1028E00083026A2DB186A08680918807E080F180FE
:1028F0000281138124813581468157817185EAE007
:102900008E9FC00111240E94411084E793E0E2CF22
:10291000E0918202F0918302662D7186608680913B
:102920008807E080F180028113812481358146810E
:1029300057817185FAE08F9FC00111240E944110D8
:1029400083E893E0C7CFF2E0CC30DF0709F09CC00A
:1029500021E0E216F10409F468C0ACF49FEFE91637
:10296000F90609F452CFEF2809F0D5CE4091820242
:102970005091830204EF11E028E833E16EE873E040
:1029800081E993E07EC0E3E0EE16F10409F46BC048
:102990000CF45AC024E0E216F10409F0BCCE2090F9
:1029A0008202309083028AE0E8E7F2E0D1010190F0
:1029B0000D928A95E1F780918807F101E080F1801E
:1029C000028113812481358146815781608571851B
:1029D000FAE08F9FC00111240E94411000918807E6
:1029E00010E00F5F1F4F0E94EC0860E080E00E9443
:1029F00077098EEB93E00E94FD0861E080E00E9481
:102A0000770982ED93E00E94FD08C8010E94490900
:102A10000E94710A68EE73E080E090E00E94D60C9C
:102A20000E94F4080E94EC0876CE409182025091F8
:102A300083024C5F5F4F04E610E02CE231E06BE96B
:102A400073E08DE993E01DC04091820250918302B2
:102A50004E5F5F4F04E610E020ED37E06EE873E074
:102A600087EA93E00EC040918202509183024A5F50
:102A70005F4F00E010E02EE130E061EB73E083EBAC
:102A800093E00E947D1047CE22E0C030D20709F0CB
:102A900042CE8FEFE816F80609F4B7CEE092880729
:102AA000EAE0EE9EC0011124885D994F9093830265
:102AB000809382026E2D8CE390E00E946116C0919B
:102AC0008807D0E021960E94EC0860E080E00E9438
:102AD000770981EE93E00E94FD0861E080E00E94AA
:102AE00077098BEE93E00E94FD0862E080E00E948F
:102AF0007709CE010E94490987EF93E00E94FD0803
:102B00000E94710A68EE73E080E090E00E94D60CAB
:102B10000E94F4080E94EC08CCE0D2E0FCCDF2E088
:102B2000C632DF0709F4F7CD22E0C631D20709F437
:102B30006CCE82E0CC30D80709F467CE92E0C0308A
:102B4000D90709F0E8CD61CE1092670610926606AB
:102B500088EE93E0A0E0B0E0809368069093690669
:102B6000A0936A06B0936B0620E932E030936506C5
:102B70002093640625EC30E03093710620937006B4
:102B800024EC30E0309373062093720620EC30E0A2
:102B9000309375062093740621EC30E0309377066D
:102BA0002093760622EC30E0309379062093780665
:102BB00026EC30E030937B0620937A0610927D0657
:102BC00010927E0610927F061092800610920407E3
:102BD000109203078093050790930607A0930707B9
:102BE000B093080782EA92E090930207809301076E
:102BF00010927F0710927E078EEB92E090937D07F4
:102C000080937C078FE38093800784E1809385071E
:102C100084E0809386071092870710920F07109226
:102C20001307109212071092140784EB92E090930E
:102C30000E0780930D07EDE0F7E089E497E0148E2E
:102C400010A2178E11A236968E179F07C1F784E641
:102C500092E09093700780936F0780E692E09093E4
:102C600072078093710784E08093730780937407E1
:102C700088E692E090936E0780936D078AE090E07B
:102C8000909376078093750784EF91E0909378078F
:102C90008093770710927B0710927A07109269074A
:102CA00010926A0710926B0710926C0710927907C6
:102CB0000895F999FECF92BD81BDF89A992780B504
:102CC0000895262FF999FECF1FBA92BD81BD20BD70
:102CD0000FB6F894FA9AF99A0FBE019608955058D3
:102CE000BB27AA270E9487160C9401180E94F3178D
:102CF00038F00E94FA1720F039F49F3F19F426F4B7
:102D00000C94F0170EF4E095E7FB0C94EA17E92F0A
:102D10000E94121858F3BA176207730784079507C1
:102D200020F079F4A6F50C9434180EF4E0950B2EEF
:102D3000BA2FA02D0B01B90190010C01CA01A0010D
:102D40001124FF27591B99F0593F50F4503E68F168
:102D50001A16F040A22F232F342F4427585FF3CFA9
:102D6000469537952795A795F0405395C9F77EF47A
:102D70001F16BA0B620B730B840BBAF09150A1F0C3
:102D8000FF0FBB1F661F771F881FC2F70EC0BA0F49
:102D9000621F731F841F48F4879577956795B795D1
:102DA000F7959E3F08F0B0CF9395880F08F09927CC
:102DB000EE0F9795879508950E94C61708F481E055
:102DC00008950E94F5160C9401180E94FA1758F005
:102DD0000E94F31740F029F45F3F29F00C94EA17A2
:102DE00051110C9435180C94F0170E94121868F3C6
:102DF0009923B1F3552391F3951B550BBB27AA27B4
:102E000062177307840738F09F5F5F4F220F331FED
:102E1000441FAA1FA9F335D00E2E3AF0E0E832D0B5
:102E200091505040E695001CCAF72BD0FE2F29D0B8
:102E3000660F771F881FBB1F261737074807AB078A
:102E4000B0E809F0BB0B802DBF01FF2793585F4FFF
:102E50003AF09E3F510578F00C94EA170C9435181F
:102E60005F3FE4F3983ED4F3869577956795B795E1
:102E7000F7959F5FC9F7880F911D9695879597F9EC
:102E80000895E1E0660F771F881FBB1F6217730765
:102E90008407BA0720F0621B730B840BBA0BEE1F7A
:102EA00088F7E09508950E945A176894B1110C9420
:102EB000351808950E941A1888F09F5798F0B92F76
:102EC0009927B751B0F0E1F0660F771F881F991F5F
:102ED0001AF0BA95C9F714C0B13091F00E943418B5
:102EE000B1E008950C943418672F782F8827B85FC5
:102EF00039F0B93FCCF3869577956795B395D9F7B7
:102F00003EF490958095709561957F4F8F4F9F4FC0
:102F10000895E89409C097FB3EF4909580957095CC
:102F200061957F4F8F4F9F4F9923A9F0F92F96E915
:102F3000BB279395F695879577956795B795F1118A
:102F4000F8CFFAF4BB0F11F460FF1BC06F5F7F4F27
:102F50008F4F9F4F16C0882311F096E911C0772339
:102F600021F09EE8872F762F05C0662371F096E842
:102F7000862F70E060E02AF09A95660F771F881F11
:102F8000DAF7880F9695879597F90895990F0008B5
:102F9000550FAA0BE0E8FEEF16161706E807F9072B
:102FA000C0F012161306E407F50798F0621B730BC6
:102FB000840B950B39F40A2661F0232B242B252B47
:102FC00021F408950A2609F4A140A6958FEF811DEA
:102FD000811D089597F99F6780E870E060E008958B
:102FE0009FEF80EC089500240A9416161706180621
:102FF0000906089500240A941216130614060506FD
:103000000895092E0394000C11F4882352F0BB0F8D
:1030100040F4BF2B11F460FF04C06F5F7F4F8F4FF0
:103020009F4F089557FD9058440F551F59F05F3F2B
:1030300071F04795880F97FB991F61F09F3F79F0DA
:1030400087950895121613061406551FF2CF46955C
:10305000F1DF08C0161617061806991FF1CF8695DE
:103060007105610508940895E894BB2766277727C2
:10307000CB0197F908950E94C61708F48FEF0895C1
:1030800016F00C9402190C94F01768940C94EA173B
:103090000E941A18A8F39923C1F3AEF3DF93CF93DC
:1030A0001F930F93FF92C92FDD2788232AF02197C2
:1030B000660F771F881FDAF720E030E040E85FEB0B
:1030C0009FE3883920F0803E38F021968F770E9468
:1030D0007016E8E0F1E004C00E947016E5E3F1E04C
:1030E0000E9410198B01BE01EC01FB2E6F57710974
:1030F0007595771F880B990B0E948B1728E132E793
:1031000041E35FE30E94A318AF2D9801AE01FF9049
:103110000F911F91CF91DF910E9487160C94011897
:103120000E94A3180C9401180E94F31738F00E9413
:10313000FA1720F0952311F00C94EA170C94F0176D
:1031400011240C9435180E94121870F3959FC1F346
:10315000950F50E0551F629FF001729FBB27F00D45
:10316000B11D639FAA27F00DB11DAA1F649F66279A
:10317000B00DA11D661F829F2227B00DA11D621FE9
:10318000739FB00DA11D621F839FA00D611D221FA3
:10319000749F3327A00D611D231F849F600D211D87
:1031A000822F762F6A2F11249F5750409AF0F1F00A
:1031B00088234AF0EE0FFF1FBB1F661F771F881F73
:1031C00091505040A9F79E3F510580F00C94EA17AA
:1031D0000C9435185F3FE4F3983ED4F386957795C9
:1031E0006795B795F795E7959F5FC1F7FE2B880F19
:1031F000911D9695879597F908950E94C617880B9B
:10320000990B08959F3F31F0915020F48795779561
:103210006795B795880F911D9695879597F90895AD
:10322000DF93CF931F930F93FF92EF92DF927B0177
:103230008C01689406C0DA2EEF010E94A318FE01EB
:10324000E894A5912591359145915591A6F3EF010B
:103250000E948716FE019701A801DA9469F7DF90B2
:10326000EF90FF900F911F91CF91DF91089597FB01
:10327000072E16F4009407D077FD09D00E94C519D7
:1032800007FC05D03EF4909581959F4F0895709569
:1032900061957F4F0895A1E21A2EAA1BBB1BFD0169
:1032A0000DC0AA1FBB1FEE1FFF1FA217B307E40725
:1032B000F50720F0A21BB30BE40BF50B661F771F7D
:1032C000881F991F1A9469F760957095809590955D
:1032D0009B01AC01BD01CF010895052E97FB1EF4A3
:1032E00000940E94841957FD07D00E944B1907FCD7
:1032F00003D04EF40C948419509540953095219547
:103300003F4F4F4F5F4F0895909580957095619511
:103310007F4F8F4F9F4F0895EE0FFF1F881F8BBF6A
:103320000790F691E02D19940E949C19332312F412
:103330008A1B9B0B0C94AD19A29FB001B39FC001D7
:10334000A39F700D811D1124911DB29F700D811DD1
:103350001124911D08950E949C19B7FF0895821BA6
:10336000930B08950E949C19A59F900DB49F900DFA
:10337000A49F800D911D11240895B7FF0C94B219DC
:103380000E94B219821B930B0895AA1BBB1B51E12B
:1033900007C0AA1FBB1FA617B70710F0A61BB70BC5
:1033A000881F991F5A95A9F780959095BC01CD016A
:1033B000089581E090E0F8940C94DE19F894FFCF22
:1033C000030417042B043F04530467047B048F0495
:1033D000A304B704CB04DF04F30407051B052F0582
:1033E000060005000500430557056B057F05040031
:1033F0001F1F1F1F1F1F1F1F0101010101010101CD
:1034000000000000101F1F1F0000001F1F1F1F1FB4
:1034100000000000011F1F1F0E0E00000000000032
:1034200041403F3E454443423132334134353642D8
:10343000373839432A302344DC05F40164000300A3
:10344000FE05780200004000140054000000000057
:1034500088074D082907D5075A0738074C07000089
:1034600000009D0D700DCD0D440D680D540D450DE2
:1034700000000000D70DD30DD00D000000003B1060
:103480004D08CD0DCC0D20202020202020202020F4
:1034900020202020202020202000486974726F7393
:1034A000743A00206B6D2F68202020005661726EE8
:1034B0006F73746E612072617A64616C6A613A2024
:1034C00000496465616C6E61207661726E6F737421
:1034D0006E613A20006D20202020200054656D7020
:1034E000657261747572613A200052617A64616C30
:1034F0006A613A2000486974726F73743A20004B15
:103500006F6566696369656E743A20002043200028
:10351000206D202020004F736E6F766E69207072D0
:10352000696B617A005072696B617A2068697472A4
:103530006F7374005072696B617A2072617A646192
:103540006C6A0047726166696B61203120006D739F
:10355000007661726E6F73746E610025006B6F652B
:10356000662074656D7000726566722072617465A4
:103570000043006D656A6E612074656D70004E6178
:10358000737461766974766520706F6E6173742EE2
:1035900020007A612075706F7261626E696B6120C4
:1035A0000055706F7261626E696B00737072656D49
:1035B000656E6A656E3A002075706F7261626E6941
:1035C0006B2E0055706F7261626E696B2031202026
:1035D0002020202020200055706F7261626E696B80
:1035E000203220202020202020200055706F726182
:1035F000626E696B2033202020202020202000557F
:10360000706F7261626E696B203420202020202050
:1036100020200055706F7261626E696B203520202A
:103620002020202020200055706F7261626E696B2F
:103630002036202020202020202000496465616C55
:103640006E61207661726E6F7374202020200056A8
:10365000706C69762074656D6570657261747572E1
:10366000652000526566726573682072617465201A
:10367000202020202020004D656A6E612074656D39
:103680007065726174757261202000506F6E617395
:103690007461766920707269767A65746F20004F64
:1036A000736E6F766E69207072696B617A2020206C
:1036B000202000486974726F73742020202020201D
:1036C0002020202020200052617A64616C6A6520ED
:1036D00020202020202020202020004772616669C1
:1036E000636E69207072696B617A20312020004717
:1036F00072616669636E69207072696B617A2032EB
:103700002020005072696B617A2020202020202028
:1037100020202020202000497A626F722070726978
:103720006B617A61202020202020004E617374613B
:1037300076697476652020202020202020200049F2
:103740007A626572692075706F7261626E696B6111
:103750002020006E616E00696E66006F766600560E
:103760007265646E6F7374200055706F7261626E63
:10377000696B3A2000537072656D656E69207672D0
:1037800065646E6F73743A2044005670697369748F
:10379000652000286D6564200020696E20002900E6
:1037A0005A61207A616B6C6A756369743A204400CF
:1037B00050524556454C494B4120535400566E6F6C
:1037C0007320757370656C004E41504143454E2027
:1037D000564E4F53005072696B617A005370726598
:0837E0006D656E6A656E000064
:00000001FF
