:100000000C9490010C94C1010C94C1010C94C10199
:100010000C94C1010C94C1010C94C1010C94C10158
:100020000C94C1010C94C1010C94C1010C94C10148
:100030000C94C1010C94C1010C94C1010C94C10138
:100040000C94C1010C94C1010C94C1010C94C10128
:100050000C94C1010C94C1010C94C1010C94810356
:100060000C94C1010C94820A0C94580A0C94C1019E
:100070000C94C1010C94C1010C94C1010C94C101F8
:100080000C94C1010C94C1010C94C1010C94C101E8
:100090000C94C1010C94C1010C94C1010C94CB03CC
:1000A0000C94C1010C94C1010C94C1010C94C101C8
:1000B0000C94C1010C94C1010C94C1010C94C101B8
:1000C0000C94C1010C94C1010C94C1010C94C101A8
:1000D0000C94C1010C94C1010C94C1010C94C10198
:1000E0000C94C10139063C062B062F063506730613
:1000F000400644064A064E06520658065C0660064E
:10010000730666066A066E0608000000BE92244961
:10011000123EABAAAA2ABECDCCCC4C3E0000008039
:10012000BEABAAAAAA3E00000000BF000000803FAC
:100130000000000000084178D3BB4387D1133D196C
:100140000E3CC3BD4282AD2B3E68EC8276BED98F99
:10015000E1A93E4C80EFFFBE01C4FF7F3F000000DD
:1001600000000C9450020C9460060C94EA020C946B
:1001700073050C946A060C9474060C9440060C9457
:10018000F7010C94E7020C9481050C946E060C9414
:1001900039060C94E3020C945C060C944E060C9405
:1001A0005F050C94F5010C941B020C94EE020C9468
:1001B00052060C94FC050C9450050C9435060C94D6
:1001C000AF050C942F060C944A060C9407020C946D
:1001D0003C060C94F8010C9458060C9466060C949A
:1001E000F6010C9423020C9473060C942D0E0C94BF
:1001F0002B060C9416050C94E4020C9444060000A3
:100200002100240027002A002D00300033000101C6
:100210000000040107010A01000022002500280057
:100220002B002E00310034000201000005010801FE
:100230000B01000020002300260029002C002F00C5
:100240003200000100000301060109010505050552
:10025000070508080808020202020A0A080804043E
:10026000040401010101010101010303030303036C
:100270000303040707070C0C0C0C0C0C0C0C0202FB
:10028000020206060606060606060B0B0B0B0B0BF8
:100290000B0B010210202008081020401020408085
:1002A000020102010804020101020408102040803A
:1002B00080402010080402018004020180402010C8
:1002C0000804020108040201010204081020408011
:1002D000010204081020408000000A0B02090C0DE6
:1002E0000E080703040100000000000000000000E9
:1002F00000000000000000000000000000000000FE
:1003000000000000121110000000000000000000BA
:1003100000000000000000000000000000002D0EA2
:1003200011241FBECFEFD1E2DEBFCDBF00E00CBF76
:1003300013E0A0E0B2E0E8EAF3E200E00BBF02C0A5
:1003400007900D92AC38B107D9F725E0ACE8B3E0DF
:1003500001C01D92A337B207E1F711E0C0E9D1E077
:1003600000E006C021970109802FFE010E94C511FF
:10037000CF38D10780E00807A9F70E94370B0C940B
:10038000D2110C94000085ED8093BC008091BC00DC
:1003900084FDFCCF1092200408954091FA03262F8B
:1003A00030E0240F311D21323105DCF4209120048E
:1003B0002430C9F4FC0180E090E0861758F43091B5
:1003C000FA032191DC01A852BC4FA30FB11D2C935D
:1003D0000196F3CF8091FA03680F6093FA0380E0EF
:1003E000089581E0089582E008950895089508959C
:1003F000E091D5038091D403E81730F4F0E0EC5499
:10040000FC4F808190E008958FEF9FEF08959091C9
:10041000D5038091D403981750F4E92FF0E0EC5401
:10042000FC4F208130E09F5F9093D50302C02FEFF7
:100430003FEFC90108958091D40390E02091D50346
:10044000821B91090895CF92DF92EF92FF920F9352
:100450001F93CF93DF937C01CB018A012091B303DB
:10046000222389F0EB016B01C40ED51ECC15DD05EE
:1004700069F06991D701ED91FC910190F081E02D37
:10048000C7011995F3CF642F0E94CD01C801DF91F8
:10049000CF911F910F91FF90EF90DF90CF90089533
:1004A000CF93DF931F92CDB7DEB769832091B3035B
:1004B0002223D1F02091D603203240F021E030E019
:1004C000FC013383228380E090E015C08091D70344
:1004D000E82FF0E0ED56FC4F998190838F5F809379
:1004E000D7038093D60305C061E0CE0101960E9438
:1004F000CD0181E090E00F90DF91CF910895CF93EF
:10050000FC01C48121E02093B303C09392031092B5
:10051000D7031092D6038385682B8CEE94E00E945B
:1005200050029091D603913208F045C0809120048A
:100530008111FCCF82E08093200481E0809322042B
:100540008FEF80931F041092440490934304A3E917
:10055000B3E0E3E2F4E080E0981721F02D912193DD
:100560008F5FFACF1092450480914504CC0FC82BC1
:10057000C093450480912104813061F410922104DC
:10058000809145048093BB008091BC0083FDF8CF2F
:1005900085EC01C085EE8093BC0080912004823000
:1005A000E1F380911F048F3F31F080911F0480326E
:1005B00011F080911F041092D7031092D60310926D
:1005C000B303CF910895089580E090E00895862FB9
:1005D0000C944007862F642F0C946907862F642F94
:1005E0000C949807AF92BF92CF92DF92EF92FF9256
:1005F0000F931F93CF93DF93EC017B01CB018C1BF7
:100600009D0B04972CF18E01000F111F040F151F75
:100610006E015E0183E0A80EB11CAC14BD04ACF108
:10062000CE14DF0494F56C2D6C1B80E00E940C0747
:10063000F801619171918F0187E695E00E94200990
:1006400060E083E10E940C07FFEFCF1ADF0AE5CFDD
:100650008B0104501109000F111F040F151FD0E06A
:10066000CC5FC61B6D2F80E00E940C07F8016191E2
:1006700071918F0187E695E00E9420096C2F83E13C
:100680000E940C07DF5FD43069F7DF91CF911F9193
:100690000F91FF90EF90DF90CF90BF90AF900895B3
:1006A0003FB7F89480914B0490914C04A0914D0475
:1006B000B0914E0426B5A89B05C02F3F19F00196B6
:1006C000A11DB11D3FBFBA2FA92F982F8827820FD8
:1006D000911DA11DB11DBC01CD0142E0660F771F28
:1006E000881F991F4A95D1F708952FB7F894609104
:1006F0004704709148048091490490914A042FBFA7
:1007000008951F920F920FB60F9211242F933F93CB
:100710008F939F93AF93BF93809147049091480428
:10072000A0914904B0914A043091460423E0230F7C
:100730002D3720F40196A11DB11D05C026E8230F19
:100740000296A11DB11D2093460480934704909307
:100750004804A0934904B0934A0480914B049091BB
:100760004C04A0914D04B0914E040196A11DB11D01
:1007700080934B0490934C04A0934D04B0934E048B
:10078000BF91AF919F918F913F912F910F900FBE8D
:100790000F901F9018951F920F920FB60F92112471
:1007A0000BB60F922F933F934F935F936F937F936B
:1007B0008F939F93AF93BF93EF93FF938091B90073
:1007C000887F803609F49CC068F5883209F45BC0E4
:1007D00090F4803109F454C038F4882309F4F6C049
:1007E000883009F44DC0F6C0883109F44CC080321D
:1007F00009F45DC0EFC0803409F468C048F4803368
:1008000009F455C0883309F0E5C080931F04D8C0AF
:10081000803509F44FC0883509F45DC0883409F08B
:10082000D9C0D6C0883909F4C7C0A8F4883709F4FC
:1008300067C038F4883609F463C0803709F460C0B3
:10084000C9C0883809F4B8C0803909F45FC080385D
:1008500009F0C0C05BC0803B09F486C038F4803A20
:1008600009F466C0883A09F47FC0B4C0803C09F43A
:10087000A7C0883C09F4A4C0883B09F48AC0AAC078
:100880008091450410C090914404809143049817CE
:1008900070F5E091440481E08E0F80934404F0E011
:1008A000ED5DFB4F80818093BB0085EC86C080931B
:1008B0001F048EC0E091440481E08E0F80934404B5
:1008C0008091BB00F0E0ED5DFB4F8083909144048C
:1008D000809143046EC0E091440481E08E0F8093C8
:1008E00044048091BB00F0E0ED5DFB4F808380917C
:1008F000220481116DC081E08093210484EA61C0EB
:1009000083E08093200410921E04CFCF80911E04B8
:10091000803208F051C0E0911E0481E08E0F809378
:100920001E048091BB00F0E0E250FC4F8083BDCFFD
:1009300085EC8093BC001092200480911E048032CC
:1009400030F4E0911E04F0E0E250FC4F1082609120
:100950001E0470E0E091FC03F091FD038EEF93E044
:10096000199510921E0436C084E0809320041092E2
:10097000FB031092FA03E091F803F091F903199543
:100980008091FA03811105C081E08093FA031092EF
:10099000D803E091FB0381E08E0F8093FB03F0E02E
:1009A000E852FC4F80818093BB009091FB038091C3
:1009B000FA03981708F479CF85E88093BC000AC041
:1009C00085EC8093BC001092200404C010921F0498
:1009D0000E94C301FF91EF91BF91AF919F918F91C1
:1009E0007F916F915F914F913F912F910F900BBE2F
:1009F0000F900FBE0F901F9018950F931F93CF93DA
:100A00008C01C62F0E947F026C2F6460C8010E9477
:100A10007F026C2F6B7FC8010E947F0283EC90E005
:100A20000197F1F7CF911F910F9108950F931F93A5
:100A3000CF938C01C62F607F61600E94FD0480E12E
:100A4000C89FB00111246160C8010E94FD0481E0CB
:100A500090E0CF911F910F91089596E0899FD0016A
:100A60001124A850BB4F90967C936E935F9791E0B2
:100A700091969C93919790916405E0916505F09112
:100A80006605992339F0309751F0811108C08091A3
:100A9000140504C0309719F05C968C911994089550
:100AA000FC01538D448D252F30E0842F90E0821B74
:100AB000930B541710F0CF96089501970895FC01F9
:100AC000918D828D981761F0828DDF01A80FB11D85
:100AD0005D968C91928D9F5F9F73928F90E00895A9
:100AE0008FEF9FEF0895FC01918D828D981731F063
:100AF000828DE80FF11D858D90E008958FEF9FEFB7
:100B00000895FC01918D228D892F90E0805C9F4F8C
:100B1000821B91098F7399270895FC01848DDF0151
:100B2000A80FB11DA35ABF4F2C91848D90E0019660
:100B30008F739927848FA689B7892C93A089B1894F
:100B40008C91837080648C93938D848D981306C0F0
:100B50000288F389E02D80818F7D80830895EF9254
:100B6000FF920F931F93CF93DF93EC0181E0888F67
:100B70009B8D8C8D981305C0E889F989808185FD4E
:100B800026C0F62E0B8D10E00F5F1F4F0F7311273D
:100B9000E02E8C8DE8120CC00FB607FCFACFE88966
:100BA000F989808185FFF5CFCE010E948D05F1CFB7
:100BB0008B8DFE01E80FF11DE35AFF4FF0829FB7C6
:100BC000F8940B8FEA89FB89808180620AC09FB705
:100BD000F894EE89FF896083E889F98980818370C0
:100BE000806480839FBF81E090E0DF91CF911F916F
:100BF0000F91FF90EF900895CF93DF93EC01888DD4
:100C00008823C9F0EA89FB89808185FD05C0A88910
:100C1000B9898C9186FD0FC00FB607FCF5CF808196
:100C200085FFF2CFA889B9898C9185FFEDCFCE01E0
:100C30000E948D05E7CFDF91CF91089590E0FC01F0
:100C40003197E231F10508F04EC08827EE58FF4F8A
:100C50008F4F0C94C511809180008F7703C08091D5
:100C600080008F7D80938000089580918000877F31
:100C7000F9CF84B58F7702C084B58F7D84BD089588
:100C80008091B0008F7703C08091B0008F7D8093FA
:100C9000B0000895809190008F7707C080919000F8
:100CA0008F7D03C080919000877F8093900008958E
:100CB0008091A0008F7707C08091A0008F7D03C036
:100CC0008091A000877F8093A000089580912001EB
:100CD0008F7707C0809120018F7D03C08091200114
:100CE000877F809320010895CF92DF92EF92FF9249
:100CF0000F931F93CF93DF936C017A018B01C0E0B8
:100D0000D0E0CE15DF0581F0D8016D918D01D601BF
:100D1000ED91FC910190F081E02DC6011995892B90
:100D200011F02196EECF7E01C701DF91CF911F9187
:100D30000F91FF90EF90DF90CF9008950F931F9346
:100D4000CF93DF93C82FD62F86E0C89FF0011124E0
:100D5000E850FB4F11A2878D90A181309105D9F009
:100D600040F082309105A9F10397F1F560E070E061
:100D700034C06623C9F161E070E08C2F0E942D051C
:100D80000E9475036093500570935105809352053E
:100D90009093530529C00E9475030091500510914E
:100DA00051052091520530915305AB01BC01401B08
:100DB000510B620B730B8091620590916305A0E06B
:100DC000B0E084179507A607B70718F462E070E053
:100DD00004C0D11109C063E070E08C2FDF91CF9186
:100DE0001F910F910C942D05DF91CF911F910F91C1
:100DF00008950E94CD11CF93C82F682F607F87E69A
:100E000095E00E94FD0480E1C89FB001112487E6AF
:100E100095E0CF910C94FD04CF93DF93CDB7DEB76F
:100E200028970FB6F894DEBF0FBECDBF98E0E6E37B
:100E3000F2E0DE01119601900D929A95E1F7909102
:100E40006F05961710F46FEF690FFE013196E60FEC
:100E5000F11DE60FF11D9081890F806828960FB66D
:100E6000F894DEBF0FBECDBFDF91CF910C94FB068F
:100E700081E00E94FB068BE39FE10197F1F7089563
:100E8000CF93DF93282F30E0F901E852FD4F849192
:100E9000F901EE56FD4FD491F901E45BFD4FC49189
:100EA000CC2391F081110E941E06EC2FF0E0EE0F92
:100EB000FF1FEE5CFD4FA591B491EC91ED2381E015
:100EC00090E021F480E002C080E090E0DF91CF91DB
:100ED00008951F93CF93DF93282F30E0F901E85254
:100EE000FD4F8491F901EE56FD4FD491F901E45B79
:100EF000FD4FC491CC23C1F0162F81110E941E0614
:100F0000EC2FF0E0EE0FFF1FE85EFD4FA591B491CE
:100F10009FB7F894111104C08C91D095D82302C0CA
:100F2000EC91DE2BDC939FBFDF91CF911F91089551
:100F3000CF93DF9390E0FC01EE56FD4F2491FC012E
:100F4000E45BFD4F8491882361F190E0880F991F45
:100F5000FC01E250FE4FC591D491FC01E85EFD4FCB
:100F6000A591B491611109C09FB7F894888120952B
:100F700082238883EC912E230BC0623061F49FB7EB
:100F8000F8948881322F309583238883EC912E2B1F
:100F90002C939FBF06C08FB7F894E8812E2B28832F
:100FA0008FBFDF91CF9108956F927F928F929F9222
:100FB000AF92BF92CF92DF92EF92FF920F931F9367
:100FC000CF93DF9381E0809364050E9475030091C5
:100FD0005405109155052091560530915705AB01E8
:100FE000BC01401B510B620B730B8091600590910B
:100FF0006105A0E0B0E084179507A607B70708F0E1
:10100000E6C0C0E080915E05C81730F0712C812CDD
:10101000912C5401839440C0E0915A05F0915B05F6
:10102000EC0FF11D62E080810E949807CF5FEACF4C
:10103000C62DD0E0E0915A05F0915B05EC0FFD1F45
:1010400080810E9440072496CC0FDD1FC850DB4FE3
:10105000892B09F04BC0888199818C299D2999831E
:101060008883639480915E05681610F3E0915C05B7
:10107000F0915D05E00FF11F61E080810E9469073A
:1010800080915C0590915D05FC01E00FF11F60E02F
:1010900080810E949807739480915F05781658F5B7
:1010A000072D10E0E0915C05F0915D05E00FF11F68
:1010B00061E080810E949807E0915C05F0915D05F8
:1010C000E00FF11F60E080810E946907D501C40133
:1010D000072C04C0880F991FAA1FBB1F0A94D2F7C0
:1010E0006C017C01E094F094612CBCCF88819981E3
:1010F0008E219F21B4CF28EFE22E24E0F22EF701BB
:101100008FEF9FEF278D30A1232B21F4148E968F24
:10111000858F11A2369625E0E433F20799F7C0E0F7
:1011200096E0D92E80915E05C81758F5D0E00C2FB7
:1011300010E0000F111F00501B4F20915F05D217C8
:10114000F0F4F801408151810D2E02C0569547956B
:101150000A94E2F7642F6170C29F900111242D0F51
:10116000311DE8EFF4E080E0A58DB68D2A173B072E
:1011700009F44DC08F5F36968A30B1F72CC0CF5F2F
:10118000D1CFC0E0F70181A18111C1E0F6E0EF0EFF
:10119000F11C24E3E21625E0F206A1F70E94750394
:1011A00060935405709355058093560590935705A9
:1011B000CC2369F080911905882349F080911705A7
:1011C00090911805019719F4809114052AC0109286
:1011D000640580E026C040FF1CC0E8EFF4E080E03A
:1011E00090E0448D411117C0E0915805F0915905E8
:1011F000E20FF31F4081D89EF001D99EF00D11241B
:10120000E850FB4F448F368F258F10A2178E0E9417
:101210009E06DF5F92CF019636968A30910509F7D8
:10122000F8CFDF91CF911F910F91FF90EF90DF905A
:10123000CF90BF90AF909F908F907F906F900895C8
:101240006115710579F0FB0101900020E9F73197F4
:10125000AF01461B570BDC01ED91FC910280F3813D
:10126000E02D199480E090E008958F929F92AF92C4
:10127000BF92EF92FF920F931F93CF93DF93CDB75F
:10128000DEB7A1970FB6F894DEBF0FBECDBF7C01CD
:10129000FA01CB0119A2223008F42AE08E010F5D79
:1012A0001F4F822E912CA12CB12CBF01A5019401BE
:1012B0000E94A311F901CA01015011096A3014F406
:1012C000605D01C0695CD8016C93232B242B252B16
:1012D00061F7B801C7010E942009A1960FB6F894E2
:1012E000DEBF0FBECDBFDF91CF911F910F91FF9059
:1012F000EF90BF90AF909F908F9008958F929F92A4
:10130000AF92BF92CF92DF92EF92FF920F931F9313
:10131000CF93DF936B017C01142F9B01AC010E94E2
:101320006911882319F06FE773E027C04601570160
:10133000E894B7F82FEF3FEF4FE75FE7C501B4013F
:101340000E94691181110DC02FEF3FEF4FE75FE75A
:10135000C501B4010E944F0F18161CF463E873E036
:101360000CC02FEF3FEF4FE75FE4C701B6010E94CB
:10137000A710181694F467E873E087E695E0DF910C
:10138000CF911F910F91FF90EF90DF90CF90BF9082
:10139000AF909F908F900C9420092FEF3FEF4FE775
:1013A0005FECC701B6010E944F0F87FDE4CF20E03C
:1013B00030E0A901C701B6010E944F0F87FF0BC0A3
:1013C0006DE287E695E00E941605EC01F7FAF094CD
:1013D000F7F8F09402C0C0E0D0E000E060E070E018
:1013E00080E09FE3101741F020E030E040E251E45C
:1013F0000E94540F0F5FF6CFA70196010E94E30EE3
:101400006B017C010E94C60F4B015C012AE0AB011D
:10141000BC0187E695E00E943509C80FD91F11234A
:10142000C9F1C501B4010E94F50F9B01AC01C701D0
:10143000B6010E94E20E6B017C016EE287E695E048
:101440000E941605C80FD91F20E030E040E251E4A9
:10145000C701B6010E94FC104B015C010E94C60F3F
:101460006B01E12CF12C2AE0B701A60187E695E09B
:101470000E943509C80FD91FC701B6010E94F50F98
:101480009B01AC01C501B4010E94E20E6B017C011D
:101490001150D1F6CE01DF91CF911F910F91FF90A6
:1014A000EF90DF90CF90BF90AF909F908F90089576
:1014B0001F920F920FB60F9211240BB60F922F931B
:1014C0003F934F935F936F937F938F939F93AF93CC
:1014D000BF93EF93FF938FE494E00E948D05FF91FB
:1014E000EF91BF91AF919F918F917F916F915F919C
:1014F0004F913F912F910F900BBE0F900FBE0F9009
:101500001F9018951F920F920FB60F9211240BB6D1
:101510000F922F938F939F93EF93FF93E0915F042C
:10152000F09160048081E0916504F091660482FD91
:1015300012C09081809168048F5F8F73209169043D
:10154000821751F0E0916804F0E0E15BFB4F958F6A
:101550008093680401C08081FF91EF919F918F91EA
:101560002F910F900BBE0F900FBE0F901F901895EC
:101570008F929F92AF92BF92CF92DF92EF92FF92A3
:101580006B017C010E9450034B015C01C114D1042A
:10159000E104F104F1F00E945003DC01CB01881951
:1015A0009909AA09BB09883E9340A105B10570F3CA
:1015B00021E0C21AD108E108F10888EE880E83E024
:1015C000981EA11CB11CC114D104E104F10419F747
:1015D000DDCFFF90EF90DF90CF90BF90AF909F90C6
:1015E0008F900895CF92DF92EF92FF920F931F9307
:1015F000E82FF92F05C0015011092109310961F1C6
:10160000908196239417B9F305C00150110921095F
:10161000310911F1908196239413F7CFC12CD12C6D
:10162000E12CF12C0AC08FEFC81AD80AE80AF80A90
:101630000C151D052E053F0579F080818623841742
:1016400091F36C2D7D2D8E2D9F2D1F910F91FF906D
:10165000EF90DF90CF90089560E070E080E090E040
:101660001F910F91FF90EF90DF90CF9008957894A5
:1016700084B5826084BD84B5816084BD85B5826097
:1016800085BD85B5816085BD80916E008160809348
:101690006E001092810080918100826080938100B1
:1016A00080918100816080938100809180008160C1
:1016B000809380008091B10084608093B10080911C
:1016C000B00081608093B00080919100826080932F
:1016D00091008091910081608093910080919000B1
:1016E0008160809390008091A10082608093A1002E
:1016F0008091A10081608093A1008091A000816011
:101700008093A000809121018260809321018091CB
:10171000210181608093210180912001816080936B
:10172000200180917A00846080937A0080917A0011
:10173000826080937A0080917A00816080937A0041
:1017400080917A00806880937A001092C100E091C5
:101750005F04F091600482E08083E0915B04F0918B
:101760005C041082E0915D04F0915E048FEC808354
:1017700010926704E0916304F091640486E0808332
:10178000E0916104F0916204808180618083E09146
:101790006104F0916204808188608083E09161043B
:1017A000F0916204808180688083E0916104F0910F
:1017B000620480818F7D808360E087E30E949807C8
:1017C00061E083E00E94980760E082E00E94980751
:1017D0001092D5031092D4031092D7031092D6031F
:1017E0001092200481E0809322041092210461E091
:1017F00084E10E94690761E085E10E9469078091A8
:10180000B9008E7F8093B9008091B9008D7F80935D
:10181000B90088E48093B80085E48093BC0085EF2C
:1018200091E09093F9038093F80386EF91E0909311
:10183000FD038093FC0310926C058091710582304A
:1018400018F098E090936C0580936F0562E370E068
:1018500080E090E00E94B80A6091720587E695E00A
:101860000E947F0268EE73E080E090E00E94B80A78
:1018700060E387E695E00E94FD04CBE4D6E4CE0168
:101880000197F1F760E387E695E00E94FD04219758
:10189000F1F760E387E695E00E94FD0483E592E0BE
:1018A0000197F1F760E287E695E00E94FD048091E0
:1018B0006C0580620E94FB0684E080936D058CE0DD
:1018C0000E94FB060E94380782E080936E0586E046
:1018D0000E94FB0682E00E94FB068BE39FE10197DA
:1018E000F1F788E08093720560E087E695E00E945A
:1018F0007F0280916D05982F926090936D058A60AC
:101900000E94FB0660911C0270911D024EE052E0A5
:1019100080E090E00E94F202CEE0D2E02CE1A22E24
:1019200022E0B22E33E0232E312C43E2842E912C80
:101930000E94D40720919003309191032115310525
:1019400009F03CC1853309F039C10E943807809104
:101950006D058D7F80936D0588600E94FB060E9457
:10196000750300918C0310918D0320918E033091AB
:101970008F03DC01CB01801B910BA20BB30B853FC6
:101980009140A105B10508F408C180917B00877FD3
:1019900080937B0081E480937C0080917A00806456
:1019A00080937A0080917A0086FDFCCF6091780068
:1019B0008091790070E0782B072E000C880B990B32
:1019C0000E94F70F9B01AC0160E070E080E894E4B6
:1019D0000E94540F20E030E040E85FE30E94E20EF6
:1019E00020E030E44CE156E40E94FC100E94B41068
:1019F0006B017C0129E537E44CEB53E30E94FC10BA
:101A0000A70196010E94FC1023E73FE745E759E351
:101A10000E94E30EA70196010E94FC102BEE3FEFFF
:101A200043E95AE30E94E30E9B01AC0160E070E0E1
:101A300080E89FE30E94540F23E333E948E853E42E
:101A40000E94E20E2B013C0160E083E00E946907E6
:101A5000C1010197F1F761E083E00E946907C401C9
:101A60000197F1F760E083E00E946907E4E9F2E0A2
:101A70006491EEE4F2E08491E82FF0E0EE0FFF1FB6
:101A8000EE5CFD4F8591949100E21EE420E030E091
:101A9000462F0E94F20A611571058105910551F0EA
:101AA0006B017C01FFEFCF1ADF0AEF0AFF0A2FE07C
:101AB000F22203C0C12CD12C760186010D2C000C22
:101AC000EE08FF08F7FE0EC06DE28FE494E00E947E
:101AD000AF0544275527BA014C195D096E097F09E6
:101AE0002AE003C02AE0B701A6018FE494E00E9437
:101AF000350968E772E08FE494E00E94200960E015
:101B000080E00E940C076BE772E087E695E00E9498
:101B1000200942E0C301B2010E947E0969E872E037
:101B200087E695E00E94200961E080E00E940C07B2
:101B30006EE872E087E695E00E942009B801110F77
:101B4000880B990B0E94F70F26E933E44BE05DE325
:101B50000E94FC1020E030E040E05FE30E94FC10B7
:101B600042E00E947E0969E972E087E695E00E9402
:101B7000200980918C0390918D03A0918E03B091E8
:101B80008F038C509E4FAF4FBF4F80938C03909329
:101B90008D03A0938E03B0938F030E94D4078133EB
:101BA00009F0DDCE80916D05982F926090936D05C0
:101BB0008A600E94FB060E94380702C0813339F414
:101BC000F50160817181AE0180E090E02BC082332D
:101BD00079F4121613060CF0ABCEC901019790935D
:101BE000910380939003F50160817181AE011AC069
:101BF0008833D9F4F50160817181CB0101972817F1
:101C000039073CF42F5F3F4F3093910320939003AB
:101C100004C01092910310929003AE018091900342
:101C2000909191030E94F20283CE813409F080CE1C
:101C3000109291031092900360910C0270910D022A
:101C400040E052E080E090E00E94F2028CE0A82E9A
:101C500082E0B82EC0E0D2E06BCE10925204109217
:101C6000510488EE93E0A0E0B0E080935304909399
:101C70005404A0935504B093560422E432E0309308
:101C8000500420934F0425EC30E030935C04209303
:101C90005B0424EC30E030935E0420935D0420EC80
:101CA00030E03093600420935F0421EC30E0309307
:101CB00062042093610422EC30E0309364042093AA
:101CC000630426EC30E030936604209365041092A0
:101CD00068041092690410926A0410926B041092C6
:101CE000EF041092EE048093F0049093F104A0931B
:101CF000F204B093F30484E592E09093ED048093B2
:101D0000EC0410926A051092690580E792E09093C6
:101D10006805809367058FE380936B0584E180936A
:101D2000700584E080937105109272051092FA0498
:101D30001092FE041092FD041092FF0486E692E0D9
:101D40009093F9048093F804E8EFF4E084E395E0DD
:101D5000148E10A2178E11A236968E179F07C1F708
:101D600082E292E090935B0580935A058EE192E0C7
:101D700090935D0580935C0584E080935E0580937D
:101D80005F0586E292E090935905809358058AE0BA
:101D900090E0909361058093600584EF91E09093CB
:101DA0006305809362051092660510926505109296
:101DB0005405109255051092560510925705109231
:101DC000640508955058BB27AA270E94FA0E0C9468
:101DD0006D100E945F1038F00E94661020F039F4F8
:101DE0009F3F19F426F40C945C100EF4E095E7FB89
:101DF0000C945610E92F0E947E1058F3BA17620710
:101E000073078407950720F079F4A6F50C94A010C9
:101E10000EF4E0950B2EBA2FA02D0B01B901900105
:101E20000C01CA01A0011124FF27591B99F0593F49
:101E300050F4503E68F11A16F040A22F232F342F91
:101E40004427585FF3CF469537952795A795F040DF
:101E50005395C9F77EF41F16BA0B620B730B840BF4
:101E6000BAF09150A1F0FF0FBB1F661F771F881FAC
:101E7000C2F70EC0BA0F621F731F841F48F4879504
:101E800077956795B795F7959E3F08F0B0CF9395F6
:101E9000880F08F09927EE0F9795879508950E946F
:101EA000321008F481E008950E94680F0C946D10C0
:101EB0000E94661058F00E945F1040F029F45F3FC6
:101EC00029F00C94561051110C94A1100C945C1034
:101ED0000E947E1068F39923B1F3552391F3951B6B
:101EE000550BBB27AA2762177307840738F09F5F3B
:101EF0005F4F220F331F441FAA1FA9F335D00E2EA8
:101F00003AF0E0E832D091505040E695001CCAF714
:101F10002BD0FE2F29D0660F771F881FBB1F2617D7
:101F200037074807AB07B0E809F0BB0B802DBF01AE
:101F3000FF2793585F4F3AF09E3F510578F00C947D
:101F400056100C94A1105F3FE4F3983ED4F38695AD
:101F500077956795B795F7959F5FC9F7880F911D9E
:101F60009695879597F90895E1E0660F771F881F8A
:101F7000BB1F621773078407BA0720F0621B730B3D
:101F8000840BBA0BEE1F88F7E09508950E94861027
:101F900088F09F5798F0B92F9927B751B0F0E1F02A
:101FA000660F771F881F991F1AF0BA95C9F714C0DA
:101FB000B13091F00E94A010B1E008950C94A010EF
:101FC000672F782F8827B85F39F0B93FCCF3869513
:101FD00077956795B395D9F73EF490958095709570
:101FE00061957F4F8F4F9F4F0895E89409C097FBED
:101FF0003EF490958095709561957F4F8F4F9F4FE0
:102000009923A9F0F92F96E9BB279395F695879523
:1020100077956795B795F111F8CFFAF4BB0F11F4E6
:1020200060FF1BC06F5F7F4F8F4F9F4F16C088238D
:1020300011F096E911C0772321F09EE8872F762FC3
:1020400005C0662371F096E8862F70E060E02AF004
:102050009A95660F771F881FDAF7880F96958795F0
:1020600097F90895990F0008550FAA0BE0E8FEEFC5
:1020700016161706E807F907C0F012161306E4074C
:10208000F50798F0621B730B840B950B39F40A2645
:1020900061F0232B242B252B21F408950A2609F423
:1020A000A140A6958FEF811D811D089597F99F6727
:1020B00080E870E060E008959FEF80EC08950024D0
:1020C0000A941616170618060906089500240A949D
:1020D00012161306140605060895092E0394000C23
:1020E00011F4882352F0BB0F40F4BF2B11F460FFB2
:1020F00004C06F5F7F4F8F4F9F4F089557FD9058DB
:10210000440F551F59F05F3F71F04795880F97FBBB
:10211000991F61F09F3F79F0879508951216130675
:102120001406551FF2CF4695F1DF08C016161706A4
:102130001806991FF1CF86957105610508940895D9
:10214000E894BB2766277727CB0197F908950E946B
:10215000321008F48FEF089516F00C946E110C9461
:102160005C1068940C9456100E948610A8F3992372
:10217000C1F3AEF3DF93CF931F930F93FF92C92F59
:10218000DD2788232AF02197660F771F881FDAF74B
:1021900020E030E040E85FEB9FE3883920F0803EAC
:1021A00038F021968F770E94E30EE8E0F1E004C05A
:1021B0000E94E30EE5E3F1E00E947C118B01BE0179
:1021C000EC01FB2E6F5771097595771F880B990BE2
:1021D0000E94F70F28E132E741E35FE30E940F110D
:1021E000AF2D9801AE01FF900F911F91CF91DF911C
:1021F0000E94FA0E0C946D100E940F110C946D1039
:102200000E945F1038F00E94661020F0952311F0B4
:102210000C9456100C945C1011240C94A1100E9484
:102220007E1070F3959FC1F3950F50E0551F629F8C
:10223000F001729FBB27F00DB11D639FAA27F00D1F
:10224000B11DAA1F649F6627B00DA11D661F829F46
:102250002227B00DA11D621F739FB00DA11D621F2B
:10226000839FA00D611D221F749F3327A00D611D48
:10227000231F849F600D211D822F762F6A2F11242A
:102280009F5750409AF0F1F088234AF0EE0FFF1F5D
:10229000BB1F661F771F881F91505040A9F79E3FB4
:1022A000510580F00C9456100C94A1105F3FE4F39C
:1022B000983ED4F3869577956795B795F795E7950A
:1022C0009F5FC1F7FE2B880F911D9695879597F913
:1022D00008950E943210880B990B08959F3F31F0AA
:1022E000915020F4879577956795B795880F911D44
:1022F0009695879597F90895DF93CF931F930F9342
:10230000FF92EF92DF927B018C01689406C0DA2E77
:10231000EF010E940F11FE01E894A59125913591DE
:1023200045915591A6F3EF010E94FA0EFE01970127
:10233000A801DA9469F7DF90EF90FF900F911F9159
:10234000CF91DF910895A1E21A2EAA1BBB1BFD01BC
:102350000DC0AA1FBB1FEE1FFF1FA217B307E40784
:10236000F50720F0A21BB30BE40BF50B661F771FDC
:10237000881F991F1A9469F76095709580959095BC
:102380009B01AC01BD01CF010895EE0FFF1F881F17
:102390008BBF0790F691E02D199481E090E0F894BE
:0823A0000C94D211F894FFCF58
:1023A800A302B702CB02DF02F302070306001B03F6
:1023B8002F0343035703F30207036B03070041404E
:1023C8003F3E454443423132334134353642373853
:1023D80039432A3023440000400014005400000010
:1023E8000000AF0574065005FC0581055F057305FF
:1023F8000000000050022302E402F7011B0207025A
:10240800F80100000000EE02EA02E7020000000006
:1024180016057406E402E3020D0A0054656D706542
:102428007261747572613A20002043202000526165
:102438007A64616C6A613A200020636D2020202054
:102448002020005469736120202020202020202093
:10245800202020202020004E6173746176697476F4
:10246800652073656E7A6F422020004E6173746137
:102478007669747665207072696B617A42200053C0
:10248800706C6F736E65206E6173746176697476B3
:10249800422000506F6E617374617669206E6173BB
:1024A800746176697420005465737420202020209C
:1024B80020202020202020202020005072696B61DD
:1024C8007A20202020202020202020202020004E9C
:1024D8006173746176697476652073656E7A6F725C
:1024E8002020004E6173746176697476652070727D
:1024F800696B617A61200053706C6F736E65206E32
:10250800617374617669747665200052617A7369C3
:10251800726C6A69766F7374202020202020006E08
:0C252800616E00696E66006F7666000050
:00000001FF
