:100000000C9498010C94C9010C94C9010C94C90179
:100010000C94C9010C94C9010C94C9010C94C90138
:100020000C94C9010C94C9010C94C9010C94C90128
:100030000C94C9010C94C9010C94C9010C94C90118
:100040000C94C9010C94C9010C94C9010C94C90108
:100050000C94C9010C94C9010C94C9010C94AB0D0A
:100060000C94C9010C943F0C0C94150C0C94C90110
:100070000C94C9010C94C9010C94C9010C94C901D8
:100080000C94C9010C94C9010C94C9010C94C901C8
:100090000C94C9010C94C9010C94C9010C94140E60
:1000A0000C94C9010C94C9010C94C9010C94C901A8
:1000B0000C94C9010C94C9010C94C9010C94C90198
:1000C0000C94C9010C94C9010C94C9010C94C90188
:1000D0000C94C9010C94C9010C94C9010C94C90178
:1000E0000C94C901B107B407A307A707AD07EB0735
:1000F000B807BC07C207C607CA07D007D407D80786
:10010000EB07DE07E207E60708000000BE9224497D
:10011000123EABAAAA2ABECDCCCC4C3E0000008039
:10012000BEABAAAAAA3E00000000BF000000803FAC
:100130000000000000084178D3BB4387D1133D196C
:100140000E3CC3BD4282AD2B3E68EC8276BED98F99
:10015000E1A93E4C80EFFFBE01C4FF7F3F000000DD
:1001600000000C94C6070C94C2070C94C8060C94AB
:100170000F0D0C94F9060C94BC070C94E40C0C9431
:10018000A7070C949A030C94720D0C94AD070C9471
:10019000760D0C94B1070C94AF020C94DE070C940E
:1001A000F30C0C94070D0C94E20C0C94A5040C9425
:1001B000E2070C9443150C94E30C0C94B4070C94D4
:1001C000EB060C94A3070C946C0D0C94EB070C94A9
:1001D0006F0D0C9474070C94D7060C94E10C0C94DE
:1001E000A0050C94EC070C94E6070C94D8070C942B
:1001F0003C0D0C94B8070C946B0D0C9427070C94D1
:10020000D0070C94DA0F0C94D4070C94CA070000A2
:100210002100240027002A002D00300033000101B6
:100220000000040107010A01000022002500280047
:100230002B002E00310034000201000005010801EE
:100240000B01000020002300260029002C002F00B5
:100250003200000100000301060109010505050542
:10026000070508080808020202020A0A080804042E
:10027000040401010101010101010303030303035C
:100280000303040707070C0C0C0C0C0C0C0C0202EB
:10029000020206060606060606060B0B0B0B0B0BE8
:1002A0000B0B010210202008081020401020408075
:1002B000020102010804020101020408102040802A
:1002C00080402010080402018004020180402010B8
:1002D0000804020108040201010204081020408001
:1002E000010204081020408000000A0B02090C0DD6
:1002F0000E080703040100000000000000000000D9
:1003000000000000000000000000000000000000ED
:1003100000000000121110000000000000000000AA
:100320000000000000000000000000000000431575
:1003300011241FBECFEFD1E2DEBFCDBF00E00CBF66
:1003400016E0A0E0B2E0E0EEF2E300E00BBF02C096
:1003500007900D92A832B107D9F728E0A8E2B6E0DD
:1003600001C01D92A634B207E1F711E0C8E9D1E05F
:1003700000E006C021970109802FFE010E942B1981
:10038000C739D10780E00807A9F70E947F110C94B4
:100390006E190C9400008F929F92AF92BF92CF92F1
:1003A000DF92EF92FF920F931F93CF93DF93FC01A5
:1003B0000F97DCF168017901CB01BA018F0120E0D0
:1003C00030E048EC52E40E942F180E94F216EB0134
:1003D000B801110F880B990B0E942A1726E636E602
:1003E00046E650E40E9480164B015C01C701B6014D
:1003F0000E942A179B01AC01C501B4010E942F186D
:1004000020E030E04AE754E40E9480160E94F21691
:10041000AB01BC01CE01BA010E94D618CB01693CE8
:1004200071052CF088EC90E002C080E090E0DF9154
:10043000CF911F910F91FF90EF90DF90CF90BF90E1
:10044000AF909F908F900895BF92CF92DF92EF92DE
:10045000FF920F931F93CF93DF938C017B016A016F
:100460006430710534F0043011055CF5C0E0D0E073
:1004700024C0C4E0D0E0C61BD70B34E0B32E6B2DF4
:100480006C1B80E00E94160986EC92E00E949C089A
:100490002197A9F7E8CF6C2F80E00E941609F6019A
:1004A000819191916F010E949C08602F83E10E94CD
:1004B00016092196C430D10519F1CE15DF055CF37C
:1004C0001FC0E8012397CE01880F991FC80ED91EBF
:1004D000B12CCE15DF05A4F40C171D078CF06B2D85
:1004E00080E00E941609F601819191916F010E94AE
:1004F0009C0863E083E10E9416092196B394E9CF3A
:10050000DF91CF911F910F91FF90EF90DF90CF90EF
:10051000BF90089588E30E94F50D9C01990F440B4C
:10052000550B213084E038074105510534F457FF5D
:1005300008C020E030E0A90104C020E034E040E041
:1005400050E0ACEDB0E00E943319DC01CB012AE0B1
:10055000B595A795979587952A95D1F70895CF9248
:10056000DF92EF92FF920E948B080E94100A8AEDA0
:1005700092E00E949C080E949F0D6B017C010E94EA
:100580009F0DAB01BC014C195D096E097F09E0911B
:100590008202F091830282819381092E000CAA0BC2
:1005A000BB0B84179507A607B707D0F461E088E076
:1005B0000E9416090E948A020E94E80883EE92E0D7
:1005C0000E949C08E0918202F091830282819381D3
:1005D000092E000CAA0BBB0BC80ED91EEA1EFB1E6F
:1005E0000E94C90A8A3259F6FF90EF90DF90CF90AF
:1005F0000C9493080F931F9360E083E00E945E0ABF
:1006000083E090E00197F1F761E083E00E945E0AE9
:1006100083E290E00197F1F760E083E00E945E0AD8
:10062000E4EAF2E06491EEE5F2E0E491F0E0EE0F4E
:10063000FF1FEE5BFD4F8591949100E21EE420E0E8
:1006400030E0462F0E943A11611571058105910530
:1006500039F0DC01CB010196A11DB11DBF7003C0B3
:1006600080E090E0DC01BC01990F880B990B0E949F
:100670002A1726E933E44BE05DE30E942F1820E0BF
:1006800030E040E05FE30E942F181F910F91089522
:10069000CF92DF92EF92FF9287E30E94F50DBC01AB
:1006A000990F880B990B0E942A179B01AC0160E0FF
:1006B00070E080E894E40E94801620E030E040E89A
:1006C0005FE30E940E1620E030E44CE156E40E9405
:1006D0002F180E94E7176B017C0129E537E44CEBEA
:1006E00053E30E942F18A70196010E942F1823E7B9
:1006F0003FE745E759E30E940F16A70196010E94C4
:100700002F182BEE3FEF43E95AE30E940F169B018F
:10071000AC0160E070E080E89FE30E94801623E374
:1007200033E948E853E40E940E16FF90EF90DF9003
:10073000CF9008954F925F926F927F928F929F9287
:10074000AF92BF92CF92DF92EF92FF920F931F93DF
:10075000CF93DF930E948B080E94100A0E949F0D86
:100760006B017C01CAE0D0E00E949F0DAB01BC018F
:100770004C195D096E097F09E0918202F0918302B4
:1007800082819381092E000CAA0BBB0B841795075D
:10079000A607B70708F0C2C060E080E00E94160913
:1007A00086EC92E00E949C0861E080E00E941609BD
:1007B00086EC92E00E949C0862E086E00E941609A6
:1007C00085E00E94DF0863E086E00E94160985E06C
:1007D0000E94DF0810E0612F83E10E94160986E085
:1007E0000E94DF081F5F1430B1F70E9448034B01DD
:1007F0005C01E0918202F091830266817781072E8D
:10080000000C880B990B0E942A179B01AC01C501B3
:10081000B4010E947B1687FF04C00E94FA020E9466
:100820008A02E0918202F091830284819581BE0167
:100830000E94D61820813181629FC001639F900D74
:10084000729F900D1124BE010E94D6184B01770FA4
:10085000AA08BB080E94FA022B013C010E948A02EE
:1008600095018401B301A2010E94CB019C01990F63
:10087000440B550B273931054105510534F457FF19
:1008800008C020E030E0A90104C026E930E040E0E3
:1008900050E0A0EFBFEF0E94411926E930E040E0B0
:1008A00050E00E940C1949015A0180E1880E911C08
:1008B000A11CB11C61E0882D0E94160981E00E94F4
:1008C000DF0812E0180D61E0812F0E94160981E017
:1008D0000E94DF0860E0882D0E94160982E00E94D5
:1008E000DF0860E081E0880D0E94160983E00E9425
:1008F000DF0860E0812F0E94160984E00E94DF0873
:10090000E0918202F091830282819381092E000C92
:10091000AA0BBB0BC80ED91EEA1EFB1E0E94C90AF9
:100920008A3209F021CFDF91CF911F910F91FF9073
:10093000EF90DF90CF90BF90AF909F908F907F907F
:100940006F905F904F900C9493082F923F924F922C
:100950005F926F927F928F929F92AF92BF92CF924F
:10096000DF92EF92FF920F931F93CF93DF9300D00C
:100970001F92CDB7DEB70E948B080E94100A60E07C
:1009800080E00E9416098CEE92E00E949C0862E0D2
:1009900080E00E94160981E093E00E949C080E947A
:1009A0009F0D6B017C018AE0282E312C0E949F0D47
:1009B000AB01BC014C195D096E097F09E09182020F
:1009C000F091830282819381092E000CAA0BBB0B4C
:1009D00084179507A607B70708F093C00E94FA028C
:1009E0000E94F2164B015C01E0918202F0918302B9
:1009F000208131813A8329830E948A028C010E94DE
:100A000048032B013C0180918202909183029C83D8
:100A10008B83FC0166817781072E000C880B990B74
:100A20000E942A179B01AC01C301B2010E947B16F0
:100A300087FD05C0B801110F880B990B1BC0EB8116
:100A4000FC8184819581B1010E94D6182081318179
:100A5000629FC001639F900D729F900D1124B101A0
:100A60000E94D6187A8369830E948A02BC01990F7A
:100A7000880B990B0E942A1726E636E646E650E4D4
:100A80000E9480162B013C0129813A81B901330F64
:100A9000880B990B0E942A179B01AC01C301B2017C
:100AA0000E942F1820E030E04AE754E40E948016AC
:100AB0000E94F2167A83698361E088E00E94160939
:100AC000C4010E94E80885E193E00E949C0863E06D
:100AD00088E00E94160989819A810E94E80885E1D0
:100AE00093E00E949C08E0918202F091830282814F
:100AF0009381092E000CAA0BBB0BC80ED91EEA1E4F
:100B0000FB1E0E94C90A8A3209F050CF0E94930846
:100B10000F900F900F900F90DF91CF911F910F9139
:100B2000FF90EF90DF90CF90BF90AF909F908F900D
:100B30007F906F905F904F903F902F900C948B0818
:100B40002F923F924F925F926F927F928F929F92DD
:100B5000AF92BF92CF92DF92EF92FF920F931F93CB
:100B6000CF93DF9300D01F92CDB7DEB70E948B08E2
:100B70000E94100A60E080E00E9416098CE193E078
:100B80000E949C0861E080E00E9416098AE293E0DE
:100B90000E949C0862E080E00E94160985E393E0D1
:100BA0000E949C0863E080E00E9416098FE393E0B6
:100BB0000E949C080E949F0D6B017C010E949F0D6A
:100BC000AB01BC014C195D096E097F09E0918202FD
:100BD000F091830282819381092E000CAA0BBB0B3A
:100BE00084179507A607B70708F090C00E9448032E
:100BF0002B013C010E94FA024B015C010E948A0217
:100C00009C838B8380918202909183029A83898353
:100C1000FC01208031808101032C000C220B330B5E
:100C2000B501A4018B819C810E94CB018C01E981DB
:100C3000FA8166817781072E000C880B990B0E9440
:100C40002A179B01AC01C301B2010E947B1687FFEA
:100C50001EC0E981FA81848195816AE070E00E947A
:100C6000D618629DC001639D900D729D900D112458
:100C70006AE070E00E94D6188B01770F220B330BCD
:100C8000B501A4018B819C810E94CB018C0160E0A5
:100C90008CE00E94160942E0C301B2010E944209A1
:100CA0008CE493E00E949C0861E089E00E941609B0
:100CB00042E0C501B4010E94420980E593E00E9430
:100CC0009C0862E088E00E9416098B819C810E944A
:100CD000E80883EE92E00E949C0863E08BE00E94AB
:100CE0001609C8010E94E80886ED92E00E949C085F
:100CF000E0918202F091830282819381092E000C9F
:100D0000AA0BBB0BC80ED91EEA1EFB1E0E94C90A05
:100D10008A3209F053CF0E9493080F900F900F90E2
:100D20000F90DF91CF911F910F91FF90EF90DF9087
:100D3000CF90BF90AF909F908F907F906F905F907B
:100D40004F903F902F900C948B0896E0899FD00194
:100D50001124A35FB84F90967C936E935F9791E0B8
:100D600091969C93919790917907E0917A07F091F1
:100D70007B07992339F0309751F0811108C0809199
:100D8000290704C0309719F05C968C911994089546
:100D9000FC01538D448D252F30E0842F90E0821B81
:100DA000930B541710F0CF96089501970895FC0106
:100DB000918D828D981761F0828DDF01A80FB11D92
:100DC0005D968C91928D9F5F9F73928F90E00895B6
:100DD0008FEF9FEF0895FC01918D828D981731F070
:100DE000828DE80FF11D858D90E008958FEF9FEFC4
:100DF0000895FC01918D228D892F90E0805C9F4F9A
:100E0000821B91098F7399270895FC01848DDF015E
:100E1000A80FB11DA35ABF4F2C91848D90E001966D
:100E20008F739927848FA689B7892C93A089B1895C
:100E30008C91837080648C93938D848D981306C0FD
:100E40000288F389E02D80818F7D80830895EF9261
:100E5000FF920F931F93CF93DF93EC0181E0888F74
:100E60009B8D8C8D981305C0E889F989808185FD5B
:100E700026C0F62E0B8D10E00F5F1F4F0F7311274A
:100E8000E02E8C8DE8120CC00FB607FCFACFE88973
:100E9000F989808185FFF5CFCE010E940507F1CF4A
:100EA0008B8DFE01E80FF11DE35AFF4FF0829FB7D3
:100EB000F8940B8FEA89FB89808180620AC09FB712
:100EC000F894EE89FF896083E889F98980818370CD
:100ED000806480839FBF81E090E0DF91CF911F917C
:100EE0000F91FF90EF900895CF93DF93EC01888DE1
:100EF0008823C9F0EA89FB89808185FD05C0A8891E
:100F0000B9898C9186FD0FC00FB607FCF5CF8081A3
:100F100085FFF2CFA889B9898C9185FFEDCFCE01ED
:100F20000E940507E7CFDF91CF91089590E0FC0183
:100F30003197E231F10508F04EC08827EE58FF4F97
:100F40008F4F0C942B19809180008F7703C0809174
:100F500080008F7D80938000089580918000877F3E
:100F6000F9CF84B58F7702C084B58F7D84BD089595
:100F70008091B0008F7703C08091B0008F7D809307
:100F8000B0000895809190008F7707C08091900005
:100F90008F7D03C080919000877F8093900008959B
:100FA0008091A0008F7707C08091A0008F7D03C043
:100FB0008091A000877F8093A000089580912001F8
:100FC0008F7707C0809120018F7D03C08091200121
:100FD000877F809320010895CF92DF92EF92FF9256
:100FE0000F931F93CF93DF936C017A018B01C0E0C5
:100FF000D0E0CE15DF0581F0D8016D918D01D601CD
:10100000ED91FC910190F081E02DC6011995892B9D
:1010100011F02196EECF7E01C701DF91CF911F9194
:101020000F91FF90EF90DF90CF9008950F931F9353
:10103000CF93DF93C82FD62F86E0C89FF0011124ED
:10104000E35FF84F11A2878D90A181309105D9F00F
:1010500040F082309105A9F10397F1F560E070E06E
:1010600034C06623C9F161E070E08C2F0E94A506B0
:101070000E949F0D609365077093660780936707D2
:101080009093680729C00E949F0D009165071091F9
:1010900066072091670730916807AB01BC01401BD0
:1010A000510B620B730B8091770790917807A0E04A
:1010B000B0E084179507A607B70718F462E070E060
:1010C00004C0D11109C063E070E08C2FDF91CF9193
:1010D0001F910F910C94A506DF91CF911F910F9155
:1010E0000895009769F0FC0101900020E9F731971D
:1010F000AF01481B590BBC018CE797E00C94EC073F
:1011000080E090E008950E94691940E0682F8CE724
:1011100097E00C94C30F81E00E9485088BE39FE168
:101120000197F1F70895ECE7F7E08681982F926038
:1011300096838A600C9485080C9471088F929F9214
:10114000AF92BF920F931F93CF93DF93CDB7DEB7CC
:10115000A1970FB6F894DEBF0FBECDBF19A24230E3
:1011600008F44AE08E010F5D1F4F842E912CA12CB4
:10117000B12CA50194010E94EA18E62FB901CA0119
:1011800001501109EA3014F4E05D01C0E95CD801B6
:10119000EC93232B242B252B61F7C8010E947108A7
:1011A000A1960FB6F894DEBF0FBECDBFDF91CF91F1
:1011B0001F910F91BF90AF909F908F90089541E045
:1011C000682F8CE797E00E94C30F81E090E00895BC
:1011D000CF92DF92EF92FF92CF93DF936C01990F42
:1011E000EE08FF08F7FE17C08DE20E94DF08EC0151
:1011F00066277727CB016C197D098E099F094AE084
:101200000E949E088C0F9D1FDF91CF91FF90EF9061
:10121000DF90CF9008954AE0C701B601DF91CF91EA
:10122000FF90EF90DF90CF900C949E08CF93DF93C8
:10123000CDB7DEB728970FB6F894DEBF0FBECDBF8F
:1012400098E0E4E8F2E0DE01119601900D929A95A3
:10125000E1F790918407961710F46FEF690FFE0184
:101260003196E60FF11DE60FF11D9081890F806820
:1012700028960FB6F894DEBF0FBECDBFDF91CF9199
:101280000C9485088F929F92AF92BF92CF92DF927B
:10129000EF92FF920F931F93CF93DF936B017C012B
:1012A000142F9B01AC010E949C18882319F083E93C
:1012B00095E027C046015701E894B7F82FEF3FEFBC
:1012C0004FE75FE7C501B4010E949C1881110DC072
:1012D0002FEF3FEF4FE75FE7C501B4010E947B1698
:1012E00018161CF487E995E00CC02FEF3FEF4FE78D
:1012F0005FE4C701B6010E94DA17181684F48BE97F
:1013000095E0DF91CF911F910F91FF90EF90DF90CB
:10131000CF90BF90AF909F908F900C9471082FEF5B
:101320003FEF4FE75FECC701B6010E947B1687FDD8
:10133000E6CF20E030E0A901C701B6010E947B168C
:1013400087FF09C08DE20E94DF08EC01F7FAF094F4
:10135000F7F8F09402C0C0E0D0E000E060E070E098
:1013600080E09FE3101741F020E030E040E251E4DC
:101370000E9480160F5FF6CFA70196010E940F16FC
:101380006B017C010E94F9164B015C014AE00E944E
:101390009E08C80FD91F1123A9F1C501B4010E94ED
:1013A00028179B01AC01C701B6010E940E166B0104
:1013B0007C018EE20E94DF08C80FD91F20E030E0D8
:1013C00040E251E4C701B6010E942F184B015C01B5
:1013D0000E94F9166B01E12CF12C4AE0C701B6011D
:1013E0000E949E08C80FD91FC701B6010E94281786
:1013F0009B01AC01C501B4010E940E166B017C017A
:101400001150E1F6CE01DF91CF911F910F91FF9026
:10141000EF90DF90CF90BF90AF909F908F90089506
:10142000ECE7F7E086818D7F868388600C948508E1
:101430000F931F93CF93DF938B01877028E0829FD8
:10144000C001112480640E948508E801085F1F4FD5
:1014500069918CE797E00E94DA0FC017D107C1F7B6
:10146000DF91CF911F910F910895CF93DF93282F94
:1014700030E0F901E851FD4F8491F901EE55FD4F3F
:10148000D491F901E45AFD4FC491CC2391F081111C
:101490000E949607EC2FF0E0EE0FFF1FEE5BFD4F72
:1014A000A591B491EC91ED2381E090E021F480E0EE
:1014B00002C080E090E0DF91CF9108951F93CF9319
:1014C000DF93282F30E0F901E851FD4F8491F901B5
:1014D000EE55FD4FD491F901E45AFD4FC491CC2350
:1014E000C1F0162F81110E949607EC2FF0E0EE0F4D
:1014F000FF1FE85DFD4FA591B4919FB7F8941111BE
:1015000004C08C91D095D82302C0EC91DE2BDC93E3
:101510009FBFDF91CF911F910895CF93DF9390E00C
:10152000FC01EE55FD4F2491FC01E45AFD4F8491DE
:10153000882361F190E0880F991FFC01E25FFD4F65
:10154000C591D491FC01E85DFD4FA591B491611165
:1015500009C09FB7F8948881209582238883EC91F5
:101560002E230BC0623061F49FB7F8948881322F2C
:10157000309583238883EC912E2B2C939FBF06C03C
:101580008FB7F894E8812E2B28838FBFDF91CF91FE
:1015900008956F927F928F929F92AF92BF92CF9257
:1015A000DF92EF92FF920F931F93CF93DF9381E02F
:1015B000809379070E949F0D0091690710916A0737
:1015C00020916B0730916C07AB01BC01401B510BA4
:1015D000620B730B8091750790917607A0E0B0E0E5
:1015E00084179507A607B70708F0E6C0C0E080910A
:1015F0007307C81730F0712C812C912C54018394FF
:1016000040C0E0916F07F0917007EC0FF11D62E0B0
:1016100080810E948D0ACF5FEACFC62DD0E0E09195
:101620006F07F0917007EC0FFD1F80810E94350A53
:101630002496CC0FDD1FC35FD84F892B09F04BC018
:10164000888199818C299D299983888363948091CD
:101650007307681610F3E0917107F0917207E00FBD
:10166000F11F61E080810E945E0A80917107909174
:101670007207FC01E00FF11F60E080810E948D0A7B
:10168000739480917407781658F5072D10E0E09157
:101690007107F0917207E00FF11F61E080810E94F5
:1016A0008D0AE0917107F0917207E00FF11F60E081
:1016B00080810E945E0AD501C401072C04C0880FF6
:1016C000991FAA1FBB1F0A94D2F76C017C01E094FA
:1016D000F094612CBCCF888199818E219F21B4CF59
:1016E0002DE0E22E27E0F22EF7018FEF9FEF278DFE
:1016F00030A1232B21F4148E968F858F11A236965C
:1017000027E0E934F20799F7C0E096E0D92E8091FE
:101710007307C81758F5D0E00C2F10E0000F111F09
:101720000B5E184F20917407D217F0F4F801408136
:1017300051810D2E02C0569547950A94E2F7642F09
:101740006170C29F900111242D0F311DEDE0F7E073
:1017500080E0A58DB68D2A173B0709F44DC08F5F39
:1017600036968A30B1F72CC0CF5FD1CFC0E0F701F9
:1017700081A18111C1E0F6E0EF0EF11C29E4E2162F
:1017800027E0F206A1F70E949F0D6093690770930E
:101790006A0780936B0790936C07CC2369F0809164
:1017A0002E07882349F080912C0790912D070197EF
:1017B00019F4809129072AC01092790780E026C089
:1017C00040FF1CC0EDE0F7E080E090E0448D411167
:1017D00017C0E0916D07F0916E07E20FF31F408193
:1017E000D89EF001D99EF00D1124E35FF84F448F8D
:1017F000368F258F10A2178E0E941608DF5F92CFBA
:10180000019636968A30910509F7F8CFDF91CF918E
:101810001F910F91FF90EF90DF90CF90BF90AF900E
:101820009F908F907F906F9008951F920F920FB6A8
:101830000F9211240BB60F922F933F934F935F9308
:101840006F937F938F939F93AF93BF93EF93FF9388
:1018500084E696E00E940507FF91EF91BF91AF915A
:101860009F918F917F916F915F914F913F912F91B8
:101870000F900BBE0F900FBE0F901F9018951F92E8
:101880000F920FB60F9211240BB60F922F938F93D6
:101890009F93EF93FF93E0917406F091750680811A
:1018A000E0917A06F0917B0682FD12C090818091D2
:1018B0007D068F5F8F7320917E06821751F0E09135
:1018C0007D06F0E0EC59F94F958F80937D0601C0BD
:1018D0008081FF91EF919F918F912F910F900BBE7F
:1018E0000F900FBE0F901F9018958F929F92AF92FE
:1018F000BF92CF92DF92EF92FF926B017C010E9428
:101900007A0D4B015C01C114D104E104F104F1F042
:101910000E947A0DDC01CB0188199909AA09BB093B
:10192000883E9340A105B10570F321E0C21AD108A9
:10193000E108F10888EE880E83E0981EA11CB11C16
:10194000C114D104E104F10419F7DDCFFF90EF9049
:10195000DF90CF90BF90AF909F908F90089585EDCE
:101960008093BC008091BC0084FDFCCF1092910755
:1019700008954091F607262F30E0240F311D2132C3
:101980003105DCF4209191072430C9F4FC0180E09A
:1019900090E0861758F43091F6072191DC01AA52A5
:1019A000B84FA30FB11D2C930196F3CF8091F6078A
:1019B000680F6093F60780E0089581E0089582E063
:1019C0000895089508950895E0918A078091890700
:1019D000E81730F4F0E0EA54F84F808190E0089581
:1019E0008FEF9FEF089590918A078091890798174C
:1019F00050F4E92FF0E0EA54F84F208130E09F5F87
:101A000090938A0702C02FEF3FEFC901089580919C
:101A1000890790E020918A07821B91090895CF924F
:101A2000DF92EF92FF920F931F93CF93DF937C018E
:101A3000CB018A012091B507222389F0EB016B01CC
:101A4000C40ED51ECC15DD0569F06991D701ED9165
:101A5000FC910190F081E02DC7011995F3CF642F1F
:101A60000E94B90CC801DF91CF911F910F91FF9097
:101A7000EF90DF90CF900895CF93DF931F92CDB773
:101A8000DEB769832091B5072223D1F020918B071F
:101A9000203240F021E030E0FC013383228380E0FB
:101AA00090E015C080918C07E82FF0E0EB56F84FDE
:101AB000998190838F5F80938C0780938B0705C0FB
:101AC00061E0CE0101960E94B90C81E090E00F9098
:101AD000DF91CF910895089580E090E00895862FDA
:101AE0000C94350A862F642F0C945E0A862F642F7F
:101AF0000C948D0A3FB7F894809142089091430866
:101B0000A0914408B091450826B5A89B05C02F3F79
:101B100019F00196A11DB11D3FBFBA2FA92F982F13
:101B20008827820F911DA11DB11DBC01CD0142E08E
:101B3000660F771F881F991F4A95D1F708952FB711
:101B4000F89460913E0870913F0880914008909110
:101B500041082FBF08951F920F920FB60F921124C4
:101B60002F933F938F939F93AF93BF9380913E08A2
:101B700090913F08A0914008B091410830913D08F4
:101B800023E0230F2D3720F40196A11DB11D05C0C0
:101B900026E8230F0296A11DB11D20933D088093D6
:101BA0003E0890933F08A0934008B093410880916D
:101BB000420890914308A0914408B09145080196CD
:101BC000A11DB11D8093420890934308A09344083F
:101BD000B0934508BF91AF919F918F913F912F9105
:101BE0000F900FBE0F901F901895863308F0865304
:101BF00090917B00282F2870977F922B90937B00E9
:101C00008770806480937C0080917A0080648093E8
:101C10007A0080917A0086FDFCCF80917800209137
:101C2000790090E0922B08951F920F920FB60F92B9
:101C300011240BB60F922F933F934F935F936F93A3
:101C40007F938F939F93AF93BF93EF93FF93809175
:101C5000B900887F803609F49CC068F5883209F4A1
:101C60005BC090F4803109F454C038F4882309F43F
:101C7000F6C0883009F44DC0F6C0883109F44CC074
:101C8000803209F45DC0EFC0803409F468C048F4C4
:101C9000803309F455C0883309F0E5C080931908F2
:101CA000D8C0803509F44FC0883509F45DC0883448
:101CB00009F0D9C0D6C0883909F4C7C0A8F488375C
:101CC00009F467C038F4883609F463C0803709F432
:101CD00060C0C9C0883809F4B8C0803909F45FC051
:101CE000803809F0C0C05BC0803B09F486C038F47E
:101CF000803A09F466C0883A09F47FC0B4C0803CD9
:101D000009F4A7C0883C09F4A4C0883B09F48AC040
:101D1000AAC080913C0810C090913B0880913A087D
:101D2000981770F5E0913B0881E08E0F80933B0897
:101D3000F0E0E65EF74F80818093BB0085EC86C0C3
:101D4000809319088EC0E0913B0881E08E0F80934C
:101D50003B088091BB00F0E0E65EF74F80839091F6
:101D60003B0880913A086EC0E0913B0881E08E0FFD
:101D700080933B088091BB00F0E0E65EF74F8083E4
:101D80008091930781116DC081E08093920784EA6E
:101D900061C083E08093910710921808CFCF8091A3
:101DA0001808803208F051C0E091180881E08E0FC9
:101DB000809318088091BB00F0E0E850F84F8083D2
:101DC000BDCF85EC8093BC001092910780911808DC
:101DD000803230F4E0911808F0E0E850F84F1082BB
:101DE0006091180870E0E0918F07F091900788EFFC
:101DF00097E019951092180836C084E080939107F7
:101E00001092F7071092F607E0918D07F0918E0778
:101E100019958091F607811105C081E08093F6073E
:101E20001092D607E091F70781E08E0F8093F707B5
:101E3000F0E0EA52F84F80818093BB009091F70761
:101E40008091F607981708F479CF85E88093BC0055
:101E50000AC085EC8093BC001092910704C01092D8
:101E600019080E94AF0CFF91EF91BF91AF919F9124
:101E70008F917F916F915F914F913F912F910F9033
:101E80000BBE0F900FBE0F901F901895CF93FC01C3
:101E9000C48121E02093B507C093940710928C076A
:101EA00010928B078385682B81E097E00E943C0DA0
:101EB00090918B07913208F045C080919107811174
:101EC000FCCF82E08093910781E0809393078FEFAE
:101ED0008093190810923B0890933A08A5E9B7E05F
:101EE000EAE1F8E080E0981721F02D9121938F5FCF
:101EF000FACF10923C0880913C08CC0FC82BC093BD
:101F00003C0880919207813061F410929207809191
:101F10003C088093BB008091BC0083FDF8CF85EC2A
:101F200001C085EE8093BC00809191078230E1F37F
:101F3000809119088F3F31F080911908803211F09B
:101F40008091190810928C0710928B071092B50798
:101F5000CF9108950F931F93CF938C01C62F0E94AA
:101F6000460F6C2F6460C8010E94460F6C2F6B7F78
:101F7000C8010E94460F83EC90E00197F1F7CF91E2
:101F80001F910F9108950F931F93CF93DF938C01AF
:101F9000C62FD42F607F642B0E94AA0F80E1C89FB8
:101FA000B00111246D2BC801DF91CF911F910F91CA
:101FB0000C94AA0F41E00E94C30F81E090E00895C5
:101FC000CF92DF92EF92FF920F931F93CF93DF9305
:101FD000CDB7DEB72A970FB6F894DEBF0FBECDBFE0
:101FE0006C01E982FA820B831C832D833E834F832D
:101FF000588769877A87CE0101967C0100E010E05E
:10200000F70161917F01C8018C0D9D1D0E94001692
:102010000F5F1F4F0A30110599F72A960FB6F894F3
:10202000DEBF0FBECDBFDF91CF911F910F91FF900B
:10203000EF90DF90CF9008959F92AF92BF92CF9292
:10204000DF92EF92FF920F931F93CF93DF936C0178
:102050005B01EA0179010E948B0860E080E00E9448
:1020600016098FE995E00E949C08C6010E949C0811
:1020700082E393E00E949C0861E080E00E941609E0
:10208000888199810E94E808C5010E949C0862E04D
:1020900080E00E94160989EA95E00E949C08609100
:1020A000880770E06F5F7F4F80E090E04AE00E9419
:1020B0009E0863E080E00E94160985EB95E00E948F
:1020C0009C080E94C90A843471F08A32D1F7DF91EA
:1020D000CF911F910F91FF90EF90DF90CF90BF9025
:1020E000AF909F9008950E948B0860E080E00E946E
:1020F00016098AEC95E00E949C08C6010E949C0883
:1021000082E393E00E949C0861E080E00E9416094F
:1021100083ED95E00E949C08C8010E94E80889EDC3
:1021200095E00E949C08C7010E94E8088EED95E0AA
:102130000E949C0862E080E00E94160980EE95E013
:102140000E949C0863E080E00E941609A12CB12C3B
:10215000C12CD12C8AE0982E85E0A816B10439F460
:102160000E948B080E94100A80EF95E044C00E94F4
:10217000C90A90ED980F9A3018F0843469F710C0AE
:102180009C9C90019D9C300D1124892F90E0690149
:10219000C80ED91E0E94E808EFEFAE1ABE0ADCCFC7
:1021A000C016D10614F1EC14FD04FCF0D982C882EB
:1021B00080918807E0918202F0918302E080F180B3
:1021C0000281138124813581468157816085718523
:1021D000EAE08E9FC00111240E94E00F0E948B084C
:1021E0000E94100A8DEF95E006C00E948B080E94A5
:1021F000100A88E096E00E949C0868EE73E080E098
:1022000090E00E94750CDF91CF911F910F91FF908C
:10221000EF90DF90CF90BF90AF909F900C94930879
:10222000CF93DF93EC010E948B0861E080E00E9475
:10223000160985E196E00E949C0862E080E00E9419
:1022400016098CE196E00E949C0863E080E00E9401
:102250001609CE010E949C080E94100A68EE73E0E5
:1022600080E090E00E94750C0E949308DF91CF916E
:102270000C948B08CF92DF92EF92FF920F931F93F3
:10228000E82FF92F05C0015011092109310961F129
:10229000908196239417B9F305C0015011092109C3
:1022A000310911F1908196239413F7CFC12CD12CD1
:1022B000E12CF12C0AC08FEFC81AD80AE80AF80AF4
:1022C0000C151D052E053F0579F0808186238417A6
:1022D00091F36C2D7D2D8E2D9F2D1F910F91FF90D1
:1022E000EF90DF90CF90089560E070E080E090E0A4
:1022F0001F910F91FF90EF90DF90CF900895789409
:1023000084B5826084BD84B5816084BD85B58260FA
:1023100085BD85B5816085BD80916E0081608093AB
:102320006E00109281008091810082608093810014
:102330008091810081608093810080918000816024
:10234000809380008091B10084608093B10080917F
:10235000B00081608093B000809191008260809392
:102360009100809191008160809391008091900014
:102370008160809390008091A10082608093A10091
:102380008091A10081608093A1008091A000816074
:102390008093A0008091210182608093210180912F
:1023A00021018160809321018091200181608093CF
:1023B000200180917A00846080937A0080917A0075
:1023C000826080937A0080917A00816080937A00A5
:1023D00080917A00806880937A001092C100E09129
:1023E0007406F091750682E08083E0917006F091AA
:1023F00071061082E0917206F09173068FEC808373
:1024000010927C06E0917806F091790686E0808350
:10241000E0917606F0917706808180618083E0917B
:102420007606F0917706808188608083E091760659
:10243000F0917706808180688083E0917606F09144
:10244000770680818F7D808360E087E30E948D0A1C
:1024500061E083E00E948D0A60E082E00E948D0AC4
:1024600010928A071092890710928C0710928B079E
:102470001092910781E0809393071092920761E098
:1024800084E10E945E0A61E085E10E945E0A80911B
:10249000B9008E7F8093B9008091B9008D7F8093C1
:1024A000B90088E48093B80085E48093BC0081EE95
:1024B0009CE090938E0780938D0782EE9CE0909332
:1024C000900780938F071092810780918607823052
:1024D00018F098E0909381078093840762E370E09E
:1024E00080E090E00E94750C609187078CE797E090
:1024F0000E94460F68EE73E080E090E00E94750C49
:1025000060E38CE797E00E94AA0FCBE4D6E4CE010B
:102510000197F1F760E38CE797E00E94AA0F2197FB
:10252000F1F760E38CE797E00E94AA0F83E592E061
:102530000197F1F760E28CE797E00E94AA0F809183
:10254000810780620E94850884E0809382078CE086
:102550000E9485080E948B0882E08093830786E0B2
:102560000E94850882E00E9485088BE39FE1019725
:10257000F1F788E08093870760E08CE797E00E949E
:10258000460F0E94930868E572E081E00E94180AF5
:1025900060E572E082E00E94180A68E472E083E07D
:1025A0000E94180A60E472E084E00E94180A68E35E
:1025B00072E085E00E94180A60E372E086E00E9403
:1025C000180AC0E0D0E0CE01885D994F7C0100E0A0
:1025D00010E0C8018C0F9D1F0E94F815F701819330
:1025E0007F010F5F1F4F0A30110599F72A96CC33F0
:1025F000D10549F78CE390E00E94F8158093880795
:10260000FAE08F9FC0011124885D994F9093830257
:102610008093820260912E0270912F0246E252E076
:1026200080E090E00E942402C6E2D2E04EE2C42E96
:1026300042E0D42E5FEA452E52E0552E6AE9662E1E
:1026400063E0762E75EAA72E74E0B72EE0EA8E2EB0
:10265000E5E09E2EF601008111810E948B08AE01FB
:10266000B80180E090E00E942402E12CF12C1801D6
:10267000F1E02F1A31080E94C90A8A3209F4EEC12A
:10268000823361F41E141F0424F421E0E21AF108DD
:1026900013C0780181E0E81AF1080EC0883319F000
:1026A000853349F70FC0E214F30424F49FEFE91ACD
:1026B000F90A02C0E12CF12CAE01B801C7010E9459
:1026C0002402D9CFE2E0C632DE0779F5F1E0EF1659
:1026D000F104E9F064F4EF2809F0BCCFE091820244
:1026E000F09183020084F185E02D1995B3CF82E04B
:1026F000E816F10499F093E0E916F10409F0AACF85
:10270000C0E0D2E080E2C82E82E0D82EA3CFC6E19E
:10271000D2E024E2C22E22E0D22E9CCFCCE0D2E046
:1027200092E2C92E92E0D92E95CFE2E0C631DE07C3
:1027300009F0A8C0F1E0EF16F10409F450C04CF51F
:102740008FEFE816F80639F4C6E2D2E03EE2C32E77
:1027500032E0D32E7FCFEF2809F07CCFE0918202C8
:10276000F0918302682D9186808680918807E080B1
:10277000F1800281138124813581468157817185E1
:10278000EAE08E9FC00111240E94E00F86E593E0ED
:1027900040C093E0E916F10409F459C0ECF1F4E00B
:1027A000EF16F10409F056CFE0918202F091830216
:1027B0006A2DB186A08680918807E080F180028131
:1027C000138124813581468157817185EAE08E9F8E
:1027D000C00111240E94E00F88ED92E01AC0E09140
:1027E0008202F0918302642D518640868091880791
:1027F000E080F180028113812481358146815781F7
:102800007185FAE08F9FC00111240E94E00F85E6D8
:1028100093E00E9410111ECFE0918202F09183029A
:102820006A2DB186A08680918807E080F1800281C0
:10283000138124813581468157817185EAE08E9F1D
:10284000C00111240E94E00F84E793E0E2CFE09101
:102850008202F0918302662D7186608680918807DE
:10286000E080F18002811381248135814681578186
:102870007185FAE08F9FC00111240E94E00F83E868
:1028800093E0C7CFF2E0CC30DF0709F09CC021E035
:10289000E216F10409F468C0ACF49FEFE916F906FA
:1028A00009F452CFEF2809F0D5CE40918202509121
:1028B000830204EF11E028E833E16EE873E081E978
:1028C00093E07EC0E3E0EE16F10409F46BC00CF473
:1028D0005AC024E0E216F10409F0BCCE2090820236
:1028E000309083028AE0E8E7F2E0D10101900D9296
:1028F0008A95E1F780918807F101E080F1800281FB
:102900001381248135814681578160857185FAE084
:102910008F9FC00111240E94E00F0091880710E0F2
:102920000F5F1F4F0E948B0860E080E00E94160935
:102930008EEB93E00E949C0861E080E00E94160903
:1029400082ED93E00E949C08C8010E94E8080E9462
:10295000100A68EE73E080E090E00E94750C0E941F
:1029600093080E948B0876CE409182025091830298
:102970004C5F5F4F04E610E02CE231E06BE973E05E
:102980008DE993E01DC040918202509183024E5F19
:102990005F4F04E610E020ED37E06EE873E087EA71
:1029A00093E00EC040918202509183024A5F5F4FD4
:1029B00000E010E02EE130E061EB73E083EB93E0A8
:1029C0000E941C1047CE22E0C030D20709F042CE50
:1029D0008FEFE816F80609F4B7CEE0928807EAE030
:1029E000EE9EC0011124885D994F909383028093DD
:1029F00082026E2D8CE390E00E940016C091880741
:102A0000D0E021960E948B0860E080E00E941609C9
:102A100081EE93E00E949C0861E080E00E9416092C
:102A20008BEE93E00E949C0862E080E00E94160911
:102A3000CE010E94E80887EF93E00E949C080E9464
:102A4000100A68EE73E080E090E00E94750C0E942E
:102A500093080E948B08CCE0D2E0FCCDF2E0C632B5
:102A6000DF0709F4F7CD22E0C631D20709F46CCEB6
:102A700082E0CC30D80709F467CE92E0C030D907A5
:102A800009F0E8CD61CE109267061092660688EED6
:102A900093E0A0E0B0E08093680690936906A0936D
:102AA0006A06B0936B0620E932E030936506209306
:102AB000640625EC30E0309371062093700624EC18
:102AC00030E0309373062093720620EC30E03093B0
:102AD00075062093740621EC30E03093770620933E
:102AE000760622EC30E0309379062093780626ECC7
:102AF00030E030937B0620937A0610927D06109288
:102B00007E0610927F0610928006109204071092A3
:102B100003078093050790930607A0930707B093D8
:102B2000080782EA92E090930207809301071092CF
:102B30007F0710927E078EEB92E090937D07809343
:102B40007C078FE38093800784E18093850784E08E
:102B5000809386071092870710920F071092130731
:102B6000109212071092140784EB92E090930E07D4
:102B700080930D07EDE0F7E089E497E0148E10A252
:102B8000178E11A236968E179F07C1F784E692E042
:102B90009093700780936F0780E692E0909372079E
:102BA0008093710784E0809373078093740788E6AD
:102BB00092E090936E0780936D078AE090E0909387
:102BC00076078093750784EF91E090937807809360
:102BD000770710927B0710927A071092690710927C
:102BE0006A0710926B0710926C071092790708958C
:102BF000F999FECF92BD81BDF89A992780B50895C5
:102C0000262FF999FECF1FBA92BD81BD20BD0FB608
:102C1000F894FA9AF99A0FBE019608955058BB2776
:102C2000AA270E9426160C94A0170E94921738F02B
:102C30000E94991720F039F49F3F19F426F40C9460
:102C40008F170EF4E095E7FB0C948917E92F0E948B
:102C5000B11758F3BA17620773078407950720F076
:102C600079F4A6F50C94D3170EF4E0950B2EBA2F39
:102C7000A02D0B01B90190010C01CA01A001112482
:102C8000FF27591B99F0593F50F4503E68F11A162E
:102C9000F040A22F232F342F4427585FF3CF4695BF
:102CA00037952795A795F0405395C9F77EF41F16E1
:102CB000BA0B620B730B840BBAF09150A1F0FF0FAB
:102CC000BB1F661F771F881FC2F70EC0BA0F621F97
:102CD000731F841F48F4879577956795B795F79587
:102CE0009E3F08F0B0CF9395880F08F09927EE0F1C
:102CF0009795879508950E94651708F481E00895D7
:102D00000E9494160C94A0170E94991758F00E94E4
:102D1000921740F029F45F3F29F00C948917511164
:102D20000C94D4170C948F170E94B11768F3992351
:102D3000B1F3552391F3951B550BBB27AA276217B7
:102D40007307840738F09F5F5F4F220F331F441FC4
:102D5000AA1FA9F335D00E2E3AF0E0E832D09150F8
:102D60005040E695001CCAF72BD0FE2F29D0660FE5
:102D7000771F881FBB1F261737074807AB07B0E828
:102D800009F0BB0B802DBF01FF2793585F4F3AF02E
:102D90009E3F510578F00C9489170C94D4175F3F2F
:102DA000E4F3983ED4F3869577956795B795F795B4
:102DB0009F5FC9F7880F911D9695879597F908959C
:102DC000E1E0660F771F881FBB1F62177307840738
:102DD000BA0720F0621B730B840BBA0BEE1F88F747
:102DE000E09508950E94F9166894B1110C94D417D7
:102DF00008950E94B91788F09F5798F0B92F992726
:102E0000B751B0F0E1F0660F771F881F991F1AF0D5
:102E1000BA95C9F714C0B13091F00E94D317B1E050
:102E200008950C94D317672F782F8827B85F39F04F
:102E3000B93FCCF3869577956795B395D9F73EF46E
:102E400090958095709561957F4F8F4F9F4F089516
:102E5000E89409C097FB3EF4909580957095619534
:102E60007F4F8F4F9F4F9923A9F0F92F96E9BB27EA
:102E70009395F695879577956795B795F111F8CF66
:102E8000FAF4BB0F11F460FF1BC06F5F7F4F8F4FD1
:102E90009F4F16C0882311F096E911C0772321F0C7
:102EA0009EE8872F762F05C0662371F096E8862F5F
:102EB00070E060E02AF09A95660F771F881FDAF7B6
:102EC000880F9695879597F90895990F0008550FE3
:102ED000AA0BE0E8FEEF16161706E807F907C0F0A0
:102EE00012161306E407F50798F0621B730B840BA8
:102EF000950B39F40A2661F0232B242B252B21F482
:102F000008950A2609F4A140A6958FEF811D811D21
:102F1000089597F99F6780E870E060E008959FEF5B
:102F200080EC089500240A94161617061806090660
:102F3000089500240A94121613061406050608952F
:102F4000092E0394000C11F4882352F0BB0F40F4B7
:102F5000BF2B11F460FF04C06F5F7F4F8F4F9F4FF7
:102F6000089557FD9058440F551F59F05F3F71F079
:102F70004795880F97FB991F61F09F3F79F08795E0
:102F80000895121613061406551FF2CF4695F1DF69
:102F900008C0161617061806991FF1CF86957105F9
:102FA000610508940895E894BB2766277727CB012D
:102FB00097F908950E94651708F48FEF089516F0A9
:102FC0000C94A1180C948F1768940C9489170E9484
:102FD000B917A8F39923C1F3AEF3DF93CF931F93EF
:102FE0000F93FF92C92FDD2788232AF02197660FC0
:102FF000771F881FDAF720E030E040E85FEB9FE3BF
:10300000883920F0803E38F021968F770E940F1685
:10301000E8E0F1E004C00E940F16E5E3F1E00E9451
:10302000AF188B01BE01EC01FB2E6F57710975952E
:10303000771F880B990B0E942A1728E132E741E39A
:103040005FE30E944218AF2D9801AE01FF900F91EF
:103050001F91CF91DF910E9426160C94A0170E9419
:1030600042180C94A0170E94921738F00E949917EA
:1030700020F0952311F00C9489170C948F171124CC
:103080000C94D4170E94B11770F3959FC1F3950F5C
:1030900050E0551F629FF001729FBB27F00DB11DDC
:1030A000639FAA27F00DB11DAA1F649F6627B00D6C
:1030B000A11D661F829F2227B00DA11D621F739F55
:1030C000B00DA11D621F839FA00D611D221F749F63
:1030D0003327A00D611D231F849F600D211D822FAA
:1030E000762F6A2F11249F5750409AF0F1F08823D1
:1030F0004AF0EE0FFF1FBB1F661F771F881F9150FE
:103100005040A9F79E3F510580F00C9489170C940C
:10311000D4175F3FE4F3983ED4F38695779567958F
:10312000B795F795E7959F5FC1F7FE2B880F911D27
:103130009695879597F908950E946517880B990BC6
:1031400008959F3F31F0915020F4879577956795CA
:10315000B795880F911D9695879597F90895DF93F8
:10316000CF931F930F93FF92EF92DF927B018C011D
:10317000689406C0DA2EEF010E944218FE01E8941E
:10318000A5912591359145915591A6F3EF010E94A6
:103190002616FE019701A801DA9469F7DF90EF90F7
:1031A000FF900F911F91CF91DF91089597FB072E0C
:1031B00016F4009407D077FD09D00E94461907FC49
:1031C00005D03EF4909581959F4F08957095619537
:1031D0007F4F0895A1E21A2EAA1BBB1BFD010DC053
:1031E000AA1FBB1FEE1FFF1FA217B307E407F507B7
:1031F00020F0A21BB30BE40BF50B661F771F881F93
:10320000991F1A9469F760957095809590959B0128
:10321000AC01BD01CF010895052E97FB1EF400946B
:103220000E94231957FD07D00E94EA1807FC03D01B
:103230004EF40C94231950954095309521953F4FAD
:103240004F4F5F4F089590958095709561957F4F92
:103250008F4F9F4F0895EE0FFF1F881F8BBF079062
:10326000F691E02D19940E945A19A59F900DB49FD4
:10327000900DA49F800D911D11240895B7FF0C940B
:1032800033190E943319821B930B0895AA1BBB1B91
:1032900051E107C0AA1FBB1FA617B70710F0A61B56
:1032A000B70B881F991F5A95A9F780959095BC0177
:1032B000CD010895A29FB001B39FC001A39F700DDF
:1032C000811D1124911DB29F700D811D1124911D2E
:1032D000089581E090E0F8940C946E19F894FFCF73
:1032E000030417042B043F04530467047B048F0476
:1032F000A304B704CB04DF04F30407051B052F0563
:10330000060005000500430557056B057F05040011
:103310001F1F1F1F1F1F1F1F0101010101010101AD
:1033200000000000101F1F1F0000001F1F1F1F1F95
:1033300000000000011F1F1F0E0E00000000000013
:1033400041403F3E454443423132334134353642B9
:10335000373839432A302344DC05F4016400030084
:10336000A005780200004000140054000000000096
:103370002707EC07C8067407F906D706EB06000016
:1033800000003C0D0F0D6C0DE30C070DF30CE40C6D
:1033900000000000760D720D6F0D00000000DA0FC6
:1033A000EC076C0D6B0D20202020202020202020F9
:1033B00020202020202020202000486974726F7374
:1033C000743A00206B6D2F68202020005661726EC9
:1033D0006F73746E612072617A64616C6A613A2005
:1033E00000496465616C6E61207661726E6F737402
:1033F0006E613A20006D20202020200054656D7001
:10340000657261747572613A200052617A64616C10
:103410006A613A2000486974726F73743A20004BF5
:103420006F6566696369656E743A20002043200009
:10343000206D202020004F736E6F766E69207072B1
:10344000696B617A005072696B617A206869747285
:103450006F7374005072696B617A2072617A646173
:103460006C6A0047726166696B61203120006D7380
:10347000007661726E6F73746E610025006B6F650C
:10348000662074656D700072656672207261746585
:103490000043006D656A6E612074656D70004E6159
:1034A000737461766974766520706F6E6173742EC3
:1034B00020007A612075706F7261626E696B6120A5
:1034C0000055706F7261626E696B00737072656D2A
:1034D000656E6A656E3A002075706F7261626E6922
:1034E0006B2E0055706F7261626E696B2031202007
:1034F0002020202020200055706F7261626E696B61
:10350000203220202020202020200055706F726162
:10351000626E696B2033202020202020202000555F
:10352000706F7261626E696B203420202020202031
:1035300020200055706F7261626E696B203520200B
:103540002020202020200055706F7261626E696B10
:103550002036202020202020202000496465616C36
:103560006E61207661726E6F737420202020005689
:10357000706C69762074656D6570657261747572C2
:1035800065200052656672657368207261746520FB
:10359000202020202020004D656A6E612074656D1A
:1035A0007065726174757261202000506F6E617376
:1035B0007461766920707269767A65746F20004F45
:1035C000736E6F766E69207072696B617A2020204D
:1035D000202000486974726F7374202020202020FE
:1035E0002020202020200052617A64616C6A6520CE
:1035F00020202020202020202020004772616669A2
:10360000636E69207072696B617A203120200047F7
:1036100072616669636E69207072696B617A2032CB
:103620002020005072696B617A2020202020202009
:1036300020202020202000497A626F722070726959
:103640006B617A61202020202020004E617374611C
:1036500076697476652020202020202020200049D3
:103660007A626572692075706F7261626E696B61F2
:103670002020006E616E00696E66006F76660056EF
:103680007265646E6F7374200055706F7261626E44
:10369000696B3A2000537072656D656E69207672B1
:1036A00065646E6F73743A20440056706973697470
:1036B000652000286D6564200020696E20002900C7
:1036C0005A61207A616B6C6A756369743A204400B0
:1036D00050524556454C494B4120535400566E6F4D
:1036E0007320757370656C004E41504143454E2008
:1036F000564E4F53005072696B617A005370726579
:083700006D656E6A656E000044
:00000001FF
