:100000000C9498010C94C9010C94C9010C94C90179
:100010000C94C9010C94C9010C94C9010C94C90138
:100020000C94C9010C94C9010C94C9010C94C90128
:100030000C94C9010C94C9010C94C9010C94C90118
:100040000C94C9010C94C9010C94C9010C94C90108
:100050000C94C9010C94C9010C94C9010C946B0C4B
:100060000C94C9010C94EF0B0C94C50B0C94C901B2
:100070000C94C9010C94C9010C94C9010C94C901D8
:100080000C94C9010C94C9010C94C9010C94C901C8
:100090000C94C9010C94C9010C94C9010C94D40CA2
:1000A0000C94C9010C94C9010C94C9010C94C901A8
:1000B0000C94C9010C94C9010C94C9010C94C90198
:1000C0000C94C9010C94C9010C94C9010C94C90188
:1000D0000C94C9010C94C9010C94C9010C94C90178
:1000E0000C94C90104090709F608FA0800093E0939
:1000F0000B090F09150919091D09230927092B09DE
:100100003E0931093509390908000000BE92244929
:10011000123EABAAAA2ABECDCCCC4C3E0000008039
:10012000BEABAAAAAA3E00000000BF000000803FAC
:100130000000000000084178D3BB4387D1133D196C
:100140000E3CC3BD4282AD2B3E68EC8276BED98F99
:10015000E1A93E4C80EFFFBE01C4FF7F3F000000DD
:1001600000000C94810B0C9431090C940F090C9431
:1001700000090C94E6090C94C0090C94C3090C9472
:1001800039090C9404090C944C080C940B090C9438
:100190001D090C94C2090C9423090C9407090C94B2
:1001A00015090C9427090C9419090C947A080C94DD
:1001B0003F090C940F060C94F6080C94EE090C946D
:1001C000C7080C9435090C944A0A0C949B150C949E
:1001D0002A080C94CD030C941B0A0C944F0B0C941E
:1001E0001B080C949A0E0C943E080C9413070C9464
:1001F000D2090C94FA080C944B0A0C94B8040C9491
:100200002B090C94C10B0C94C1090C943E090000FD
:100210002100240027002A002D00300033000101B6
:100220000000040107010A01000022002500280047
:100230002B002E00310034000201000005010801EE
:100240000B01000020002300260029002C002F00B5
:100250003200000100000301060109010505050542
:10026000070508080808020202020A0A080804042E
:10027000040401010101010101010303030303035C
:100280000303040707070C0C0C0C0C0C0C0C0202EB
:10029000020206060606060606060B0B0B0B0B0BE8
:1002A0000B0B010210202008081020401020408075
:1002B000020102010804020101020408102040802A
:1002C00080402010080402018004020180402010B8
:1002D0000804020108040201010204081020408001
:1002E000010204081020408000000A0B02090C0DD6
:1002F0000E080703040100000000000000000000D9
:1003000000000000000000000000000000000000ED
:1003100000000000121110000000000000000000AA
:1003200000000000000000000000000000009B151D
:1003300011241FBECFEFD1E2DEBFCDBF00E00CBF66
:1003400016E0A0E0B2E0E8ECF3E300E00BBF02C08F
:1003500007900D92A634B107D9F728E0A6E4B6E0DD
:1003600001C01D92A436B207E1F711E0C8E9D1E05F
:1003700000E006C021970109802FFE010E9490191C
:10038000C739D10780E00807A9F70E94D7110C945C
:10039000E2190C9400008F929F92AF92BF92CF927D
:1003A000DF92EF92FF920F931F93CF93DF93FC01A5
:1003B0000F97DCF168017901CB01BA018F0120E0D0
:1003C00030E048EC52E40E9494180E945717EB0169
:1003D000B801110F880B990B0E948F1726E636E69D
:1003E00046E650E40E94E5164B015C01C701B601E8
:1003F0000E948F179B01AC01C501B4010E949418A3
:1004000020E030E04AE754E40E94E5160E945717C6
:10041000AB01BC01CE01BA010E943B19CB01693C82
:1004200071052CF088EC90E002C080E090E0DF9154
:10043000CF911F910F91FF90EF90DF90CF90BF90E1
:10044000AF909F908F900895CF93DF93EC010E941F
:100450007D0F61E080E00E94661184EE92E00E94D0
:10046000EC1062E080E00E9466118BEE92E00E9448
:10047000EC1063E080E00E946611CE010E94EC1057
:100480000E941E0B68EE73E080E090E00E94250C55
:100490000E94850FDF91CF910C947D0FBF92CF9278
:1004A000DF92EF92FF920F931F93CF93DF938C0114
:1004B0007B016A016430710534F0043011055CF58C
:1004C000C0E0D0E024C0C4E0D0E0C61BD70B34E0CD
:1004D000B32E6B2D6C1B80E00E94661186EF92E0BC
:1004E0000E94EC102197A9F7E8CF6C2F80E00E94C2
:1004F0006611F601819191916F010E94EC10602FBD
:1005000083E10E9466112196C430D10519F1CE1500
:10051000DF055CF31FC0E8012397CE01880F991F08
:10052000C80ED91EB12CCE15DF05A4F40C171D077B
:100530008CF06B2D80E00E946611F6018191919103
:100540006F010E94EC1063E083E10E946611219626
:10055000B394E9CFDF91CF911F910F91FF90EF906E
:10056000DF90CF90BF9008959F92AF92BF92CF92AD
:10057000DF92EF92FF920F931F93CF93DF936C0163
:100580005B01EA0179010E947D0F60E080E00E943A
:1005900066118AE093E00E94EC10C6010E94EC1004
:1005A00088ED93E00E94EC1061E080E00E9466110B
:1005B000888199810E943811C5010E94EC1062E087
:1005C00080E00E94661184E193E00E94EC1060914B
:1005D000820670E06F5F7F4F80E090E04AE00E940B
:1005E000EE1063E080E00E94661180E293E00E94DA
:1005F000EC100E948E0F843471F08A32D1F7DF91B3
:10060000CF911F910F91FF90EF90DF90CF90BF900F
:10061000AF909F9008950E947D0F60E080E00E945F
:10062000661185E393E00E94EC10C6010E94EC1075
:1006300088ED93E00E94EC1061E080E00E9466117A
:100640008EE393E00E94EC10C8010E94381184E40C
:1006500093E00E94EC10C7010E94381189E493E0F6
:100660000E94EC1062E080E00E9466118BE493E04F
:100670000E94EC1063E080E00E946611A12CB12C76
:10068000C12CD12C8AE0982E85E0A816B10439F44B
:100690000E947D0F0E941E0B8BE593E044C00E94D8
:1006A0008E0F90ED980F9A3018F0843469F710C0CF
:1006B0009C9C90019D9C300D1124892F90E0690134
:1006C000C80ED91E0E943811EFEFAE1ABE0ADCCF59
:1006D000C016D10614F1EC14FD04FCF0D982C882D6
:1006E00080918206E0916A02F0916B02E080F180D5
:1006F000028113812481358146815781608571850E
:10070000EAE08E9FC00111240E94BD0E0E947D0F61
:100710000E941E0B88E693E006C00E947D0F0E9497
:100720001E0B83E793E00E94EC1068EE73E080E01C
:1007300090E00E94250CDF91CF911F910F91FF90C7
:10074000EF90DF90CF90BF90AF909F900C94850F6B
:1007500088E30E94B50C9C01990F440B550B213086
:1007600084E038074105510534F457FF08C020E004
:1007700030E0A90104C020E034E040E050E0ACEDFE
:10078000B0E00E94B619DC01CB012AE0B595A7952F
:10079000979587952A95D1F70895CF92DF92EF929A
:1007A000FF920E947D0F0E941E0B80E893E00E9442
:1007B000EC100E945F0C6B017C010E945F0CAB018E
:1007C000BC014C195D096E097F09E0916A02F09144
:1007D0006B0282819381092E000CAA0BBB0B84173C
:1007E0009507A607B707D0F461E088E00E9466117C
:1007F0000E94A8030E94381189E893E00E94EC103F
:10080000E0916A02F0916B0282819381092E000CC3
:10081000AA0BBB0BC80ED91EEA1EFB1E0E948E0F30
:100820008A3259F6FF90EF90DF90CF900C94850FAD
:100830000F931F9360E083E00E94520B83E090E0EF
:100840000197F1F761E083E00E94520B83E290E0B0
:100850000197F1F760E083E00E94520BE4EAF2E0D6
:100860006491EEE5F2E0E491F0E0EE0FFF1FEE5B45
:10087000FD4F8591949100E21EE420E030E0462F88
:100880000E949211611571058105910539F0DC0115
:10089000CB010196A11DB11DBF7003C080E090E0A7
:1008A000DC01BC01990F880B990B0E948F1726E978
:1008B00033E44BE05DE30E94941820E030E040E038
:1008C0005FE30E9494181F910F910895CF92DF92D9
:1008D000EF92FF9287E30E94B50CBC01990F880B41
:1008E000990B0E948F179B01AC0160E070E080E8DB
:1008F00094E40E94E51620E030E040E85FE30E94C7
:10090000731620E030E44CE156E40E9494180E94F3
:100910004C186B017C0129E537E44CEB53E30E9452
:100920009418A70196010E94941823E73FE745E732
:1009300059E30E947416A70196010E9494182BEEA9
:100940003FEF43E95AE30E9474169B01AC0160E05B
:1009500070E080E89FE30E94E51623E333E948E86E
:1009600053E40E947316FF90EF90DF90CF900895AC
:100970002F923F924F925F926F927F928F929F92AF
:10098000AF92BF92CF92DF92EF92FF920F931F939D
:10099000CF93DF9300D000D0CDB7DEB7E0916A02ED
:1009A000F0916B0220813181A481B5810E94981958
:1009B00024E630E040E050E00E94711949015A01FC
:1009C0000E947D0F0E941E0B0E945F0C6B017C0138
:1009D000212C312CC401990CAA0BBB0B89839A835F
:1009E000AB83BC830E945F0CA0916A02B0916B0242
:1009F000BE83AD83AB01BC014C195D096E097F0953
:100A000012968D919C911397092E000CAA0BBB0B8B
:100A100084179507A607B70708F0E2C00E9466048E
:100A20004B015C01ED81FE8166817781072E000C10
:100A3000880B990B0E948F179B01AC01C501B40173
:100A40000E943F1818169CF4AD81BE818D909C9039
:100A5000092C000CAA08BB080E9418042B013C01B9
:100A60000E94A80395018401B301A2010CC00E9459
:100A700018044B015C010E94A80309811A812B8193
:100A80003C81B501A4010E94CB012101032C000C83
:100A9000660877084C01990FAA08BB08B7E98B16BE
:100AA0009104A104B1042CF4B7FC05C09401A50184
:100AB00006C026E901C020E030E040E050E0A0EFB1
:100AC000BFEF0E94C41926E930E040E050E00E94E8
:100AD0007119DA01C9014096A11DB11D48165906C8
:100AE0006A067B0609F46EC0E7E98E169104A1043C
:100AF000B10434F4B7FE09C0812C912C540105C017
:100B000086E9882E912CA12CB12CA0EFBFEFA50176
:100B100094010E94C41926E930E040E050E00E94B0
:100B2000711949015A01F0E18F0E911CA11CB11CF1
:100B3000140160E080E00E94661186EF92E00E945E
:100B4000EC1061E080E00E94661186EF92E00E9466
:100B5000EC1062E086E00E94661185E00E942F1191
:100B600063E086E00E94661185E00E942F111D82DD
:100B70006D8183E10E94661186E00E942F112D8114
:100B80002F5F2D832430A1F78CE692E09E838D8326
:100B9000AD81BE818D919C918F3FBFEF9B0791F0FE
:100BA000ED81FE816281880D0E946611AD81BE815A
:100BB00014968C910E942F11ED81FE813596FE8353
:100BC000ED83E6CFE0916A02F0916B02828193811E
:100BD000092E000CAA0BBB0BC80ED91EEA1EFB1E69
:100BE0000E948E0F8A3209F0FDCE26960FB6F89439
:100BF000DEBF0FBECDBFDF91CF911F910F91FF9050
:100C0000EF90DF90CF90BF90AF909F908F907F90AC
:100C10006F905F904F903F902F900C94850F2F9284
:100C20003F924F925F926F927F928F929F92AF927C
:100C3000BF92CF92DF92EF92FF920F931F93CF93C9
:100C4000DF9300D000D0CDB7DEB7E0916A02F0911B
:100C50006B0220813181A481B5810E94981924E61C
:100C600030E040E050E00E94711949015A010E94B1
:100C70007D0F0E941E0B60E080E00E94661182E9F9
:100C800093E00E94EC1062E080E00E94661187EA27
:100C900093E00E94EC100E945F0C6B017C01092C18
:100CA000000CAA08BB080E945F0CAB01BC014C19E8
:100CB0005D096E097F09E0916A02F0916B02828101
:100CC0009381092E000CAA0BBB0B84179507A6076E
:100CD000B70708F087C00E9418040E94571769835D
:100CE0007A838B839C8380916A0290916B029E83AE
:100CF0008D83FC01208031800E94A8038C010E941A
:100D000066042B013C01ED81FE8166817781072E0F
:100D1000000C880B990B0E948F179B01AC01C3013B
:100D2000B2010E94E01687FD13C0B801110F880BB5
:100D3000990B0E948F1726E636E646E650E40E949D
:100D4000E5162B013C01B101330C880B990B12C045
:100D50000E94A803BC01990F880B990B0E948F1762
:100D600026E636E646E650E40E94E5162B013C01F5
:100D7000C501B4010E948F179B01AC01C301B201F0
:100D80000E94941820E030E04AE754E40E94E516FF
:100D90000E9457177E836D8361E088E00E94661190
:100DA00089819A810E9438118BEB93E00E94EC10AC
:100DB00063E088E00E9466118D819E810E94381157
:100DC0008BEB93E00E94EC10E0916A02F0916B02D1
:100DD00082819381092E000CAA0BBB0BC80ED91E71
:100DE000EA1EFB1E0E948E0F8A3209F05CCF0E9421
:100DF000850F26960FB6F894DEBF0FBECDBFDF91EC
:100E0000CF911F910F91FF90EF90DF90CF90BF9007
:100E1000AF909F908F907F906F905F904F903F909A
:100E20002F900C947D0F2F923F924F925F926F9272
:100E30007F928F929F92AF92BF92CF92DF92EF926A
:100E4000FF920F931F93CF93DF9300D000D0CDB7C5
:100E5000DEB7E0916A02F0916B0220813181A481BA
:100E6000B5810E94981924E630E040E050E00E94ED
:100E7000711949015A010E947D0F0E941E0B60E00A
:100E800080E00E94661182EC93E00E94EC1061E029
:100E900080E00E94661180ED93E00E94EC1062E019
:100EA00080E00E9466118BED93E00E94EC1063E0FD
:100EB00080E00E94661185EE93E00E94EC100E9493
:100EC0005F0C6B017C01C401990CAA0BBB0B8983DD
:100ED0009A83AB83BC830E945F0CAB01BC014C19AD
:100EE0005D096E097F09E0916A02F0916B028281CF
:100EF0009381092E000CAA0BBB0B84179507A6073C
:100F0000B70708F077C00E9466042B013C010E94DD
:100F100018044B015C010E94A8039E838D832090DE
:100F20006A0230906B02D1010D911C91012E000CD0
:100F3000220B330BB501A4010E94CB018C01F101FE
:100F400066817781072E000C880B990B0E948F1702
:100F50009B01AC01C301B2010E94E01687FF0BC0E8
:100F600009811A812B813C81B501A4018D819E816B
:100F70000E94CB018C0160E08CE00E94661142E08F
:100F8000C301B2010E94500A82EF93E00E94EC106C
:100F900061E089E00E94661142E0C501B4010E944F
:100FA000500A86EF93E00E94EC1062E088E00E9415
:100FB00066118D819E810E94381189E893E00E941C
:100FC000EC1063E08BE00E946611C8010E943811AA
:100FD00086E093E00E94EC10E0916A02F0916B02CF
:100FE00082819381092E000CAA0BBB0BC80ED91E5F
:100FF000EA1EFB1E0E948E0F8A3209F06CCF0E94FF
:10100000850F26960FB6F894DEBF0FBECDBFDF91D9
:10101000CF911F910F91FF90EF90DF90CF90BF90F5
:10102000AF909F908F907F906F905F904F903F9088
:101030002F900C947D0FFC01538D448D252F30E0B3
:10104000842F90E0821B930B541710F0CF960895D5
:1010500001970895FC01918D828D981761F0828D22
:10106000DF01A80FB11D5D968C91928D9F5F9F73DC
:10107000928F90E008958FEF9FEF0895FC01918D7E
:10108000828D981731F0828DE80FF11D858D90E0EB
:1010900008958FEF9FEF0895FC01918D228D892F88
:1010A00090E0805C9F4F821B91098F739927089570
:1010B000FC01848DDF01A80FB11DA35ABF4F2C91F5
:1010C000848D90E001968F739927848FA689B789C4
:1010D0002C93A089B1898C91837080648C93938DBB
:1010E000848D981306C00288F389E02D80818F7D5E
:1010F00080830895EF92FF920F931F93CF93DF9316
:10110000EC0181E0888F9B8D8C8D981305C0E88958
:10111000F989808185FD26C0F62E0B8D10E00F5FCA
:101120001F4F0F731127E02E8C8DE8120CC00FB6E5
:1011300007FCFACFE889F989808185FFF5CFCE01D8
:101140000E945808F1CF8B8DFE01E80FF11DE35A84
:10115000FF4FF0829FB7F8940B8FEA89FB8980815B
:1011600080620AC09FB7F894EE89FF896083E8899E
:10117000F98980818370806480839FBF81E090E0E3
:10118000DF91CF911F910F91FF90EF900895CF9332
:10119000DF93EC01888D8823C9F0EA89FB8980817F
:1011A00085FD05C0A889B9898C9186FD0FC00FB651
:1011B00007FCF5CF808185FFF2CFA889B9898C9192
:1011C00085FFEDCFCE010E945808E7CFDF91CF9188
:1011D000089590E0FC013197E231F10508F04EC02E
:1011E0008827EE58FF4F8F4F0C9490198091800004
:1011F0008F7703C0809180008F7D80938000089559
:1012000080918000877FF9CF84B58F7702C084B545
:101210008F7D84BD08958091B0008F7703C0809149
:10122000B0008F7D8093B0000895809190008F77FB
:1012300007C0809190008F7D03C080919000877FD0
:101240008093900008958091A0008F7707C08091CF
:10125000A0008F7D03C08091A000877F8093A000B5
:101260000895809120018F7707C0809120018F7DA4
:1012700003C080912001877F809320010895CF9241
:10128000DF92EF92FF920F931F93CF93DF936C0146
:101290007A018B01C0E0D0E0CE15DF0581F0D801E6
:1012A0006D918D01D601ED91FC910190F081E02DC1
:1012B000C6011995892B11F02196EECF7E01C70149
:1012C000DF91CF911F910F91FF90EF90DF90CF9022
:1012D00008953FB7F89480913C0790913D07A09105
:1012E0003E07B0913F0726B5A89B05C02F3F19F0D8
:1012F0000196A11DB11D3FBFBA2FA92F982F882796
:10130000820F911DA11DB11DBC01CD0142E0660FF0
:10131000771F881F991F4A95D1F7089585ED80930F
:10132000BC008091BC0084FDFCCF10928B06089518
:101330004091F006262F30E0240F311D2132310577
:10134000DCF420918B062430C9F4FC0180E090E0AD
:10135000861758F43091F0062191DC01A053B94F63
:10136000A30FB11D2C930196F3CF8091F006680F67
:101370006093F00680E0089581E0089582E008958A
:10138000089508950895E091840680918306E817F2
:1013900030F4F0E0E055F94F808190E008958FEF50
:1013A0009FEF08959091840680918306981750F4DA
:1013B000E92FF0E0E055F94F208130E09F5F9093F6
:1013C000840602C02FEF3FEFC90108958091830684
:1013D00090E020918406821B91090895CF92DF92BC
:1013E000EF92FF920F931F93CF93DF937C01CB017A
:1013F0008A012091AF06222389F0EB016B01C40E14
:10140000D51ECC15DD0569F06991D701ED91FC91F0
:101410000190F081E02DC7011995F3CF642F0E9450
:101420009809C801DF91CF911F910F91FF90EF9024
:10143000DF90CF900895CF93DF931F92CDB7DEB7A3
:1014400069832091AF062223D1F0209185062032B6
:1014500040F021E030E0FC013383228380E090E023
:1014600015C080918606E82FF0E0E157F94F998189
:1014700090838F5F809386068093850605C061E028
:10148000CE0101960E94980981E090E00F90DF91D3
:10149000CF910895089580E090E008950E94DD19AD
:1014A0008F929F92AF92BF92CF92DF92EF92FF9274
:1014B0000F931F93CF93DF936B017C01142F9B013C
:1014C000AC010E940119882319F089E396E027C036
:1014D00046015701E894B7F82FEF3FEF4FE75FE77A
:1014E000C501B4010E94011981110DC02FEF3FEF1A
:1014F0004FE75FE7C501B4010E94E01618161CF41F
:101500008DE396E00CC02FEF3FEF4FE75FE4C7019C
:10151000B6010E943F18181684F481E496E0DF912A
:10152000CF911F910F91FF90EF90DF90CF90BF90E0
:10153000AF909F908F900C94DA102FEF3FEF4FE712
:101540005FECC701B6010E94E01687FDE6CF20E000
:1015500030E0A901C701B6010E94E01687FF09C06B
:101560008DE20E942F11EC01F7FAF094F7F8F09455
:1015700002C0C0E0D0E000E060E070E080E09FE307
:10158000101741F020E030E040E251E40E94E516FF
:101590000F5FF6CFA70196010E9474166B017C01C4
:1015A0000E945E174B015C014AE00E94EE10C80FDA
:1015B000D91F1123A9F1C501B4010E948D179B0108
:1015C000AC01C701B6010E9473166B017C018EE26B
:1015D0000E942F11C80FD91F20E030E040E251E4F3
:1015E000C701B6010E9494184B015C010E945E176E
:1015F0006B01E12CF12C4AE0C701B6010E94EE100C
:10160000C80FD91FC701B6010E948D179B01AC01FD
:10161000C501B4010E9473166B017C011150E1F603
:10162000CE01DF91CF911F910F91FF90EF90DF904E
:10163000CF90BF90AF909F908F900895E8E5F8E02D
:1016400086818D7F868388600C94770FCF93DF939C
:10165000282F30E0F901E851FD4F8491F901EE5552
:10166000FD4FD491F901E45AFD4FC491CC2391F080
:1016700081110E94E908EC2FF0E0EE0FFF1FEE5BF6
:10168000FD4FA591B491EC91ED2381E090E021F420
:1016900080E002C080E090E0DF91CF910895862F36
:1016A0000C94260B1F93CF93DF93282F30E0F90182
:1016B000E851FD4F8491F901EE55FD4FD491F901A8
:1016C000E45AFD4FC491CC23C1F0162F81110E9422
:1016D000E908EC2FF0E0EE0FFF1FE85DFD4FA5914C
:1016E000B4919FB7F894111104C08C91D095D82370
:1016F00002C0EC91DE2BDC939FBFDF91CF911F9155
:101700000895862F642F0C94520BCF93DF9390E0B3
:10171000FC01EE55FD4F2491FC01E45AFD4F8491EC
:10172000882361F190E0880F991FFC01E25FFD4F73
:10173000C591D491FC01E85DFD4FA591B491611173
:1017400009C09FB7F8948881209582238883EC9103
:101750002E230BC0623061F49FB7F8948881322F3A
:10176000309583238883EC912E2B2C939FBF06C04A
:101770008FB7F894E8812E2B28838FBFDF91CF910C
:101780000895862F642F0C94850B1F920F920FB62D
:101790000F9211240BB60F922F933F934F935F93A9
:1017A0006F937F938F939F93AF93BF93EF93FF9329
:1017B00080E497E00E945808FF91EF91BF91AF91AC
:1017C0009F918F917F916F915F914F913F912F9159
:1017D0000F900BBE0F900FBE0F901F9018951F9289
:1017E0000F920FB60F9211240BB60F922F938F9377
:1017F0009F93EF93FF93E0915007F0915107808101
:10180000E0915607F091570782FD12C090818091B8
:1018100059078F5F8F7320915A07821751F0E0911B
:101820005907F0E0E05CF84F958F8093590701C0AD
:101830008081FF91EF919F918F912F910F900BBE1F
:101840000F900FBE0F901F9018958F929F92AF929E
:10185000BF92CF92DF92EF92FF926B017C010E94C8
:1018600069094B015C01C114D104E104F104F1F0F8
:101870000E946909DC01CB0188199909AA09BB09F1
:10188000883E9340A105B10570F321E0C21AD1084A
:10189000E108F10888EE880E83E0981EA11CB11CB7
:1018A000C114D104E104F10419F7DDCFFF90EF90EA
:1018B000DF90CF90BF90AF909F908F9008952FB7FB
:1018C000F894609138077091390780913A079091A8
:1018D0003B072FBF08951F920F920FB60F9211244E
:1018E0002F933F938F939F93AF93BF93809138072C
:1018F00090913907A0913A07B0913B073091370793
:1019000023E0230F2D3720F40196A11DB11D05C042
:1019100026E8230F0296A11DB11D2093370780935F
:10192000380790933907A0933A07B0933B0780910B
:101930003C0790913D07A0913E07B0913F0701966B
:10194000A11DB11D80933C0790933D07A0933E07D6
:10195000B0933F07BF91AF919F918F913F912F918E
:101960000F900FBE0F901F901895863308F0865386
:1019700090917B00282F2870977F922B90937B006B
:101980008770806480937C0080917A00806480936B
:101990007A0080917A0086FDFCCF809178002091BA
:1019A000790090E0922B08951F920F920FB60F923C
:1019B00011240BB60F922F933F934F935F936F9326
:1019C0007F938F939F93AF93BF93EF93FF938091F8
:1019D000B900887F803609F49CC068F5883209F424
:1019E0005BC090F4803109F454C038F4882309F4C2
:1019F000F6C0883009F44DC0F6C0883109F44CC0F7
:101A0000803209F45DC0EFC0803409F468C048F446
:101A1000803309F455C0883309F0E5C0809313077B
:101A2000D8C0803509F44FC0883509F45DC08834CA
:101A300009F0D9C0D6C0883909F4C7C0A8F48837DE
:101A400009F467C038F4883609F463C0803709F4B4
:101A500060C0C9C0883809F4B8C0803909F45FC0D3
:101A6000803809F0C0C05BC0803B09F486C038F400
:101A7000803A09F466C0883A09F47FC0B4C0803C5B
:101A800009F4A7C0883C09F4A4C0883B09F48AC0C3
:101A9000AAC08091360710C0909135078091340715
:101AA000981770F5E091350781E08E0F8093350728
:101AB000F0E0EC5EF84F80818093BB0085EC86C03F
:101AC000809313078EC0E091350781E08E0F8093DD
:101AD00035078091BB00F0E0EC5EF84F8083909179
:101AE0003507809134076EC0E091350781E08E0F95
:101AF000809335078091BB00F0E0EC5EF84F808367
:101B000080918D0681116DC081E080938C0684EAFE
:101B100061C083E080938B0610921207CFCF809133
:101B20001207803208F051C0E091120781E08E0F59
:101B3000809312078091BB00F0E0EE50F94F808354
:101B4000BDCF85EC8093BC0010928B06809112076C
:101B5000803230F4E0911207F0E0EE50F94F10823D
:101B60006091120770E0E0918906F0918A0682EF99
:101B700096E019951092120736C084E080938B0688
:101B80001092F1061092F006E0918706F091880617
:101B900019958091F006811105C081E08093F006CF
:101BA0001092D006E091F10681E08E0F8093F1064D
:101BB000F0E0E053F94F80818093BB009091F106F3
:101BC0008091F006981708F479CF85E88093BC00DF
:101BD0000AC085EC8093BC0010928B0604C0109262
:101BE00013070E948E09FF91EF91BF91AF919F91D2
:101BF0008F917F916F915F914F913F912F910F90B6
:101C00000BBE0F900FBE0F901F901895CF93FC0145
:101C1000C48121E02093AF06C0938E061092860601
:101C2000109285068385682B8DED97E00E941B0A34
:101C300090918506913208F045C080918B06811104
:101C4000FCCF82E080938B0681E080938D068FEF3E
:101C5000809313071092350790933407AFE8B6E0EE
:101C6000E4E1F7E080E0981721F02D9121938F5F58
:101C7000FACF1092360780913607CC0FC82BC0934D
:101C8000360780918C06813061F410928C06809129
:101C900036078093BB008091BC0083FDF8CF85ECB4
:101CA00001C085EE8093BC0080918B068230E1F309
:101CB000809113078F3F31F080911307803211F02C
:101CC0008091130710928606109285061092AF0637
:101CD000CF9108950F931F93CF938C01C62F0E942D
:101CE000060E6C2F6460C8010E94060E6C2F6B7F7D
:101CF000C8010E94060E83EC90E00197F1F7CF91A6
:101D00001F910F9108950F931F93CF93DF938C0131
:101D1000C62FD42F607F642B0E946A0E80E1C89F7B
:101D2000B00111246D2BC801DF91CF911F910F914C
:101D30000C946A0E41E00E94830E81E090E00895C9
:101D40000F931F93CF93DF938B01877028E0829FBF
:101D5000C001112480640E94770FE801085F1F4FC3
:101D6000699188E598E00E949A0EC017D107C1F7E3
:101D7000DF91CF911F910F910895CF92DF92EF9253
:101D8000FF920F931F93CF93DF93CDB7DEB72A97C0
:101D90000FB6F894DEBF0FBECDBF6C01E982FA82A8
:101DA0000B831C832D833E834F83588769877A87F3
:101DB000CE0101967C0100E010E0F70161917F0106
:101DC000C8018C0D9D1D0E9465160F5F1F4F0A30C4
:101DD000110599F72A960FB6F894DEBF0FBECDBF56
:101DE000DF91CF911F910F91FF90EF90DF90CF90F7
:101DF000089596E0899FD0011124A751B84F90967D
:101E00007C936E935F9791E091969C9391979091BC
:101E10005508E0915608F0915708992339F030970A
:101E200051F0811108C08091050804C0309719F065
:101E30005C968C91199408950F931F93CF93DF9321
:101E4000C82FD62F86E0C89FF0011124E751F84F24
:101E500011A2878D90A181309105D9F040F0823098
:101E60009105A9F10397F1F560E070E034C06623B5
:101E7000C9F161E070E08C2F0E94F90E0E945F0CA6
:101E800060934108709342088093430890934408FC
:101E900029C00E945F0C00914108109142082091D6
:101EA000430830914408AB01BC01401B510B620B4D
:101EB000730B8091530890915408A0E0B0E0841710
:101EC0009507A607B70718F462E070E004C0D111C7
:101ED00009C063E070E08C2FDF91CF911F910F91CB
:101EE0000C94F90EDF91CF911F910F91089540E06E
:101EF000682F88E598E00C94830E81E00E94770FAC
:101F00008BE39FE10197F1F70895E8E5F8E086811A
:101F1000982F926096838A600C94770F6F927F92CD
:101F20008F929F92AF92BF92CF92DF92EF92FF92E9
:101F30000F931F93CF93DF9381E0809355080E9406
:101F40005F0C009145081091460820914708309198
:101F50004808AB01BC01401B510B620B730B809115
:101F6000510890915208A0E0B0E084179507A607A9
:101F7000B70708F0E6C0C0E080914F08C81730F0FE
:101F8000712C812C912C5401839440C0E0914B081A
:101F9000F0914C08EC0FF11D62E080810E94850BEE
:101FA000CF5FEACFC62DD0E0E0914B08F0914C080E
:101FB000EC0FFD1F80810E94260B2496CC0FDD1FA5
:101FC000C751D84F892B09F04BC0888199818C2942
:101FD0009D2999838883639480914F08681610F334
:101FE000E0914D08F0914E08E00FF11F61E0808113
:101FF0000E94520B80914D0890914E08FC01E00F19
:10200000F11F60E080810E94850B739480915008DD
:10201000781658F5072D10E0E0914D08F0914E0824
:10202000E00FF11F61E080810E94850BE0914D0877
:10203000F0914E08E00FF11F60E080810E94520B8A
:10204000D501C401072C04C0880F991FAA1FBB1F0C
:102050000A94D2F76C017C01E094F094612CBCCF1F
:10206000888199818E219F21B4CF29EEE22E27E02D
:10207000F22EF7018FEF9FEF278D30A1232B21F454
:10208000148E968F858F11A2369628E0E532F207DE
:1020900099F7C0E096E0D92E80914F08C81758F5FF
:1020A000D0E00C2F10E0000F111F0F50184F20919F
:1020B0005008D217F0F4F801408151810D2E02C072
:1020C000569547950A94E2F7642F6170C29F90017C
:1020D00011242D0F311DE9EEF7E080E0A58DB68DBE
:1020E0002A173B0709F44DC08F5F36968A30B1F747
:1020F0002CC0CF5FD1CFC0E0F70181A18111C1E039
:10210000F6E0EF0EF11C25E2E21628E0F206A1F758
:102110000E945F0C609345087093460880934708BF
:1021200090934808CC2369F080910A08882349F0ED
:102130008091080890910908019719F48091050889
:102140002AC01092550880E026C040FF1CC0E9EE6E
:10215000F7E080E090E0448D411117C0E09149081C
:10216000F0914A08E20FF31F4081D89EF001D99EFA
:10217000F00D1124E751F84F448F368F258F10A2B0
:10218000178E0E941C0FDF5F92CF019636968A3021
:10219000910509F7F8CFDF91CF911F910F91FF9033
:1021A000EF90DF90CF90BF90AF909F908F907F90F7
:1021B0006F900895009769F0FC0101900020E9F705
:1021C0003197AF01481B590BBC0188E598E00C948E
:1021D0003F0980E090E008950C94DA108F929F926E
:1021E000AF92BF920F931F93CF93DF93CDB7DEB71C
:1021F000A1970FB6F894DEBF0FBECDBF19A2423033
:1022000008F44AE08E010F5D1F4F842E912CA12C03
:10221000B12CA50194010E944F19E62FB901CA0102
:1022200001501109EA3014F4E05D01C0E95CD80105
:10223000EC93232B242B252B61F7C8010E94DA1085
:10224000A1960FB6F894DEBF0FBECDBFDF91CF9140
:102250001F910F91BF90AF909F908F90089541E094
:10226000682F88E598E00E94830E81E090E0089551
:10227000CF92DF92EF92FF92CF93DF936C01990F91
:10228000EE08FF08F7FE17C08DE20E942F11EC0147
:1022900066277727CB016C197D098E099F094AE0D3
:1022A0000E94EE108C0F9D1FDF91CF91FF90EF9059
:1022B000DF90CF9008954AE0C701B601DF91CF913A
:1022C000FF90EF90DF90CF900C94EE10CF93DF93C0
:1022D000CDB7DEB728970FB6F894DEBF0FBECDBFDF
:1022E00098E0E2EAF2E0DE01119601900D929A95F3
:1022F000E1F790916008961710F46FEF690FFE01F7
:102300003196E60FF11DE60FF11D9081890F80686F
:1023100028960FB6F894DEBF0FBECDBFDF91CF91E8
:102320000C94770FCF92DF92EF92FF920F931F934F
:10233000E82FF92F05C0015011092109310961F178
:10234000908196239417B9F305C001501109210912
:10235000310911F1908196239413F7CFC12CD12C20
:10236000E12CF12C0AC08FEFC81AD80AE80AF80A43
:102370000C151D052E053F0579F0808186238417F5
:1023800091F36C2D7D2D8E2D9F2D1F910F91FF9020
:10239000EF90DF90CF90089560E070E080E090E0F3
:1023A0001F910F91FF90EF90DF90CF900895789458
:1023B00084B5826084BD84B5816084BD85B582604A
:1023C00085BD85B5816085BD80916E0081608093FB
:1023D0006E00109281008091810082608093810064
:1023E0008091810081608093810080918000816074
:1023F000809380008091B10084608093B1008091CF
:10240000B00081608093B0008091910082608093E1
:102410009100809191008160809391008091900063
:102420008160809390008091A10082608093A100E0
:102430008091A10081608093A1008091A0008160C3
:102440008093A0008091210182608093210180917E
:10245000210181608093210180912001816080931E
:10246000200180917A00846080937A0080917A00C4
:10247000826080937A0080917A00816080937A00F4
:1024800080917A00806880937A001092C100E09178
:102490005007F091510782E08083E0914C07F09162
:1024A0004D071082E0914E07F0914F078FEC80832B
:1024B00010925807E0915407F091550786E0808309
:1024C000E0915207F0915307808180618083E09111
:1024D0005207F0915307808188608083E091520712
:1024E000F0915307808180688083E0915207F091DA
:1024F000530780818F7D808360E087E30E94850B96
:1025000061E083E00E94850B60E082E00E94850B21
:102510001092840610928306109286061092850609
:1025200010928B0681E080938D0610928C0661E0FC
:1025300084E10E94520B61E085E10E94520B809180
:10254000B9008E7F8093B9008091B9008D7F809310
:10255000B90088E48093B80085E48093BC0080ECE7
:1025600099E0909388068093870681EC99E0909398
:102570008A068093890610925D08809162088230F5
:1025800018F098E090935D088093600862E370E033
:1025900080E090E00E94250C6091630888E598E057
:1025A0000E94060E68EE73E080E090E00E94250C29
:1025B00060E388E598E00E946A0ECBE4D6E4CE01A1
:1025C0000197F1F760E388E598E00E946A0E219791
:1025D000F1F760E388E598E00E946A0E83E592E0F7
:1025E0000197F1F760E288E598E00E946A0E809119
:1025F0005D0880620E94770F84E080935E088CE023
:102600000E94770F0E947D0F82E080935F0886E032
:102610000E94770F82E00E94770F8BE39FE1019782
:10262000F1F788E08093630860E088E598E00E9415
:10263000060E0E94850F62E672E081E00E94A00E05
:102640006AE572E082E00E94A00E62E572E083E03B
:102650000E94A00E6AE472E084E00E94A00E62E490
:1026600072E085E00E94A00E6AE372E086E00E94BC
:10267000A00EC0E0D0E0CE018A5B994F7C0100E063
:1026800010E0C8018C0F9D1F0E945D16F701819319
:102690007F010F5F1F4F0A30110599F72A96CC333F
:1026A000D10549F78CE390E00E945D168093820685
:1026B000FAE08F9FC00111248A5B994F90936B02BF
:1026C00080936A02609138027091390240E352E0CF
:1026D00080E090E00E944E02C0E3D2E048E3C42EC6
:1026E00042E0D42E5DEC452E53E0552E68EB662E6D
:1026F00064E0762E7FE0A72E76E0B72EE3E18E2E03
:10270000E7E09E2EF601008111810E947D0FAE014F
:10271000B80180E090E00E944E02E12CF12C1801FB
:10272000F1E02F1A31080E948E0F8A3209F4EEC1AF
:10273000823361F41E141F0424F421E0E21AF1082C
:1027400013C0780181E0E81AF1080EC0883319F04F
:10275000853349F70FC0E214F30424F49FEFE91A1C
:10276000F90A02C0E12CF12CAE01B801C7010E94A8
:102770004E02D9CFE2E0C033DE0779F5F1E0EF1683
:10278000F104E9F064F4EF2809F0BCCFE0916A02AB
:10279000F0916B020084F185E02D1995B3CF82E0B2
:1027A000E816F10499F093E0E916F10409F0AACFD4
:1027B000CAE0D2E08AE2C82E82E0D82EA3CFC0E2DF
:1027C000D2E02EE2C22E22E0D22E9CCFC6E1D2E091
:1027D0009CE2C92E92E0D92E95CFE2E0C032DE070E
:1027E00009F0A8C0F1E0EF16F10409F450C04CF56F
:1027F0008FEFE816F80639F4C0E3D2E038E3C32ED1
:1028000032E0D32E7FCFEF2809F07CCFE0916A022F
:10281000F0916B02682D9186808680918206E0801F
:10282000F180028113812481358146815781718530
:10283000EAE08E9FC00111240E94BD0E8CEF93E050
:1028400040C093E0E916F10409F459C0ECF1F4E05A
:10285000EF16F10409F056CFE0916A02F0916B0295
:102860006A2DB186A08680918206E080F180028187
:10287000138124813581468157817185EAE08E9FDD
:10288000C00111240E94BD0E88E093E01AC0E091BF
:102890006A02F0916B02642D518640868091820617
:1028A000E080F18002811381248135814681578146
:1028B0007185FAE08F9FC00111240E94BD0E8BE04C
:1028C00094E00E9424021ECFE0916A02F0916B0214
:1028D0006A2DB186A08680918206E080F180028117
:1028E000138124813581468157817185EAE08E9F6D
:1028F000C00111240E94BD0E8AE194E0E2CFE09174
:102900006A02F0916B02662D718660868091820664
:10291000E080F180028113812481358146815781D5
:102920007185FAE08F9FC00111240E94BD0E89E2DB
:1029300094E0C7CFF2E0C631DF0709F09CC021E088
:10294000E216F10409F468C0ACF49FEFE916F90649
:1029500009F452CFEF2809F0D5CE40916A02509188
:102960006B0204EF11E028E833E164E374E087E3ED
:1029700094E07EC0E3E0EE16F10409F46BC00CF4C1
:102980005AC024E0E216F10409F0BCCE20906A029D
:1029900030906B028AE0E0E0F2E0D10101900D920C
:1029A0008A95E1F780918206F101E080F180028151
:1029B0001381248135814681578160857185FAE0D4
:1029C0008F9FC00111240E94BD0E0091820610E06D
:1029D0000F5F1F4F0E947D0F60E080E00E94661134
:1029E00084E694E00E94EC1061E080E00E946611B1
:1029F00088E794E00E94EC10C8010E9438110E9400
:102A00001E0B68EE73E080E090E00E94250C0E94AF
:102A1000850F0E947D0F76CE40916A0250916B0225
:102A20004C5F5F4F04E610E02CE231E061E474E0BB
:102A300083E494E01DC040916A0250916B024E5FA6
:102A40005F4F04E610E020ED37E064E374E08DE4CE
:102A500094E00EC040916A0250916B024A5F5F4F52
:102A600000E010E02EE130E067E574E089E594E0F5
:102A70000E94B40247CE22E0CA30D20709F042CE0B
:102A80008FEFE816F80609F4B7CEE0928206EAE086
:102A9000EE9EC00111248A5B994F90936B02809344
:102AA0006A026E2D8CE390E00E946516C09182064A
:102AB000D0E021960E947D0F60E080E00E946611C8
:102AC00087E894E00E94EC1061E080E00E946611CB
:102AD00081E994E00E94EC1062E080E00E946611BF
:102AE000CE010E9438118DE994E00E94EC100E9402
:102AF0001E0B68EE73E080E090E00E94250C0E94BF
:102B0000850F0E947D0FC6E1D2E0FCCDF2E0C0331C
:102B1000DF0709F4F7CD22E0C032D20709F46CCE0A
:102B200082E0C631D80709F467CE92E0CA30D907EF
:102B300009F0E8CD61CE109243071092420788EE6B
:102B400093E0A0E0B0E08093440790934507A09302
:102B50004607B09347072EEA32E0309341072093AF
:102B6000400725EC30E030934D0720934C0724ECD0
:102B700030E030934F0720934E0720EC30E0309345
:102B800051072093500721EC30E0309353072093F6
:102B9000520722EC30E0309355072093540726EC7F
:102BA00030E0309357072093560710925907109240
:102BB0005A0710925B0710925C071092E007109280
:102BC000DF078093E1079093E207A093E307B093B8
:102BD000E40780EC92E09093DE078093DD0710928B
:102BE0005B0810925A088CED92E0909359088093FC
:102BF00058088FE380935C0884E18093610884E047
:102C000080936208109263081092EB071092EF070E
:102C10001092EE071092F00782ED92E09093EA078F
:102C20008093E907E9EEF7E085E298E0148E10A2C0
:102C3000178E11A236968E179F07C1F78EE892E085
:102C400090934C0880934B088AE892E090934E084A
:102C500080934D0884E080934F088093500822E9C8
:102C600032E030934A08209349082AE030E030935C
:102C700052082093510824EF31E0309354082093F8
:102C80005308109257081092560810924508109257
:102C9000460810924708109248081092550891E093
:102CA000909370029093750292E090937A0293E071
:102CB00090937F02809384020895F999FECF92BD8C
:102CC00081BDF89A992780B50895262FF999FECFEE
:102CD0001FBA92BD81BD20BD0FB6F894FA9AF99A39
:102CE0000FBE019608955058BB27AA270E948B1645
:102CF0000C9405180E94F71738F00E94FE1720F078
:102D000039F49F3F19F426F40C94F4170EF4E0956F
:102D1000E7FB0C94EE17E92F0E94161858F3BA1728
:102D2000620773078407950720F079F4A6F50C94E1
:102D300038180EF4E0950B2EBA2FA02D0B01B90117
:102D400090010C01CA01A0011124FF27591B99F021
:102D5000593F50F4503E68F11A16F040A22F232F2D
:102D6000342F4427585FF3CF469537952795A7957D
:102D7000F0405395C9F77EF41F16BA0B620B730B24
:102D8000840BBAF09150A1F0FF0FBB1F661F771F95
:102D9000881FC2F70EC0BA0F621F731F841F48F44A
:102DA000879577956795B795F7959E3F08F0B0CFD3
:102DB0009395880F08F09927EE0F979587950895BA
:102DC0000E94CA1708F481E008950E94F9160C9435
:102DD00005180E94FE1758F00E94F71740F029F4DA
:102DE0005F3F29F00C94EE1751110C9439180C9494
:102DF000F4170E94161868F39923B1F3552391F341
:102E0000951B550BBB27AA2762177307840738F059
:102E10009F5F5F4F220F331F441FAA1FA9F335D0B6
:102E20000E2E3AF0E0E832D091505040E695001C6A
:102E3000CAF72BD0FE2F29D0660F771F881FBB1F24
:102E4000261737074807AB07B0E809F0BB0B802D02
:102E5000BF01FF2793585F4F3AF09E3F510578F02E
:102E60000C94EE170C9439185F3FE4F3983ED4F3BA
:102E7000869577956795B795F7959F5FC9F7880F02
:102E8000911D9695879597F90895E1E0660F771F54
:102E9000881FBB1F621773078407BA0720F0621BE5
:102EA000730B840BBA0BEE1F88F7E09508950E9410
:102EB0005E176894B1110C94391808950E941E1879
:102EC00088F09F5798F0B92F9927B751B0F0E1F0EB
:102ED000660F771F881F991F1AF0BA95C9F714C09B
:102EE000B13091F00E943818B1E008950C94381870
:102EF000672F782F8827B85F39F0B93FCCF38695D4
:102F000077956795B395D9F73EF490958095709530
:102F100061957F4F8F4F9F4F0895E89409C097FBAD
:102F20003EF490958095709561957F4F8F4F9F4FA0
:102F30009923A9F0F92F96E9BB279395F6958795E4
:102F400077956795B795F111F8CFFAF4BB0F11F4A7
:102F500060FF1BC06F5F7F4F8F4F9F4F16C088234E
:102F600011F096E911C0772321F09EE8872F762F84
:102F700005C0662371F096E8862F70E060E02AF0C5
:102F80009A95660F771F881FDAF7880F96958795B1
:102F900097F90895990F0008550FAA0BE0E8FEEF86
:102FA00016161706E807F907C0F012161306E4070D
:102FB000F50798F0621B730B840B950B39F40A2606
:102FC00061F0232B242B252B21F408950A2609F4E4
:102FD000A140A6958FEF811D811D089597F99F67E8
:102FE00080E870E060E008959FEF80EC0895002491
:102FF0000A941616170618060906089500240A945E
:1030000012161306140605060895092E0394000CE3
:1030100011F4882352F0BB0F40F4BF2B11F460FF72
:1030200004C06F5F7F4F8F4F9F4F089557FD90589B
:10303000440F551F59F05F3F71F04795880F97FB7C
:10304000991F61F09F3F79F0879508951216130636
:103050001406551FF2CF4695F1DF08C01616170665
:103060001806991FF1CF869571056105089408959A
:10307000E894BB2766277727CB0197F908950E942C
:10308000CA1708F48FEF089516F00C9406190C94E3
:10309000F41768940C94EE170E941E18A8F3992355
:1030A000C1F3AEF3DF93CF931F930F93FF92C92F1A
:1030B000DD2788232AF02197660F771F881FDAF70C
:1030C00020E030E040E85FEB9FE3883920F0803E6D
:1030D00038F021968F770E947416E8E0F1E004C082
:1030E0000E947416E5E3F1E00E9414198B01BE0101
:1030F000EC01FB2E6F5771097595771F880B990BA3
:103100000E948F1728E132E741E35FE30E94A7188E
:10311000AF2D9801AE01FF900F911F91CF91DF91DC
:103120000E948B160C9405180E94A7180C94051881
:103130000E94F71738F00E94FE1720F0952311F037
:103140000C94EE170C94F41711240C9439180E9467
:10315000161870F3959FC1F3950F50E0551F629FAD
:10316000F001729FBB27F00DB11D639FAA27F00DE0
:10317000B11DAA1F649F6627B00DA11D661F829F07
:103180002227B00DA11D621F739FB00DA11D621FEC
:10319000839FA00D611D221F749F3327A00D611D09
:1031A000231F849F600D211D822F762F6A2F1124EB
:1031B0009F5750409AF0F1F088234AF0EE0FFF1F1E
:1031C000BB1F661F771F881F91505040A9F79E3F75
:1031D000510580F00C94EE170C9439185F3FE4F31E
:1031E000983ED4F3869577956795B795F795E795CB
:1031F0009F5FC1F7FE2B880F911D9695879597F9D4
:1032000008950E94CA17880B990B08959F3F31F0CB
:10321000915020F4879577956795B795880F911D04
:103220009695879597F90895DF93CF931F930F9302
:10323000FF92EF92DF927B018C01689406C0DA2E38
:10324000EF010E94A718FE01E894A5912591359100
:1032500045915591A6F3EF010E948B16FE0197014F
:10326000A801DA9469F7DF90EF90FF900F911F911A
:10327000CF91DF91089597FB072E16F4009407D0A5
:1032800077FD09D00E94C91907FC05D03EF490953E
:1032900081959F4F0895709561957F4F0895A1E2A4
:1032A0001A2EAA1BBB1BFD010DC0AA1FBB1FEE1FC0
:1032B000FF1FA217B307E407F50720F0A21BB30B0B
:1032C000E40BF50B661F771F881F991F1A9469F787
:1032D00060957095809590959B01AC01BD01CF01E3
:1032E0000895052E97FB1EF400940E94881957FD3F
:1032F00007D00E944F1907FC03D04EF40C94881994
:1033000050954095309521953F4F4F4F5F4F089511
:1033100090958095709561957F4F8F4F9F4F089541
:10332000EE0FFF1F881F8BBF0790F691E02D1994B9
:103330000E94A019332312F48A1B9B0B0C94B11921
:10334000A29FB001B39FC001A39F700D811D1124E6
:10335000911DB29F700D811D1124911D08950E9431
:10336000A019B7FF0895821B930B08950E94A0191E
:10337000A59F900DB49F900DA49F800D911D1124C9
:103380000895B7FF0C94B6190E94B619821B930BCF
:103390000895AA1BBB1B51E107C0AA1FBB1FA6179C
:1033A000B70710F0A61BB70B881F991F5A95A9F7EE
:1033B00080959095BC01CD01089581E090E0F8944E
:0833C0000C94E219F894FFCF10
:1033C800DC05F401640003001307A904BD04D1045B
:1033D800E504F9040D052105350549055D05710567
:1033E80085059905AD05C105D5050600050005004B
:1033F800E905FD051106250604001F1F1F1F1F1FD5
:103408001F1F010101010101010100000000101F3F
:103418001F1F0000001F1F1F1F1F00000000011FAB
:103428001F1F0E0E00000000000000020000010037
:103438000002000100000000000000010000000080
:103448000200000000FFFFFFFF0041403F3E4544EF
:1034580043423132334134353642373839432A30E2
:1034680023440000400014005400000000007A08C3
:103478003F091B08C7084C082A083E08000000003E
:103488001B0AEE094B0AC209E609D209C309000062
:103498000000C10B810B4F0B000000009A0E3F0982
:1034A8004B0A4A0A5072696B617A00537072656DF3
:1034B800656E6A656E0020202020202020202020B4
:1034C80020202020202020202000567265646E6F66
:1034D8007374200055706F7261626E696B3A2000D8
:1034E800537072656D656E6920767265646E6F7370
:1034F800743A204400567069736974652000286D19
:103508006564200020696E200029005A61207A61D4
:103518006B6C6A756369743A20440050524556458D
:103528004C494B4120535400566E6F73207573708D
:10353800656C004E41504143454E20564E4F530056
:10354800486974726F73743A00206B6D2F6820207D
:1035580020005661726E6F73746E612072617A64B6
:10356800616C6A613A2000496465616C6E6120761D
:1035780061726E6F73746E613A20006D2020202096
:10358800200054656D70657261747572613A20002F
:1035980052617A64616C6A613A2000486974726F9A
:1035A80073743A20004B6F6566696369656E743A97
:1035B800200020432000206D202020004F736E6FD4
:1035C800766E69207072696B617A005072696B61FE
:1035D8007A20686974726F7374005072696B617ACB
:1035E8002072617A64616C6A0047726166696B6116
:1035F800203120006D73007661726E6F73746E6196
:103608000025006B6F65662074656D7000726566D5
:103618007220726174650043006D656A6E61207482
:10362800656D70004E61737461766974766520709B
:103638006F6E6173742E20007A612075706F7261ED
:10364800626E696B61200055706F7261626E696BA2
:1036580000737072656D656E6A656E3A00207570EC
:103668006F7261626E696B2E0055706F7261626E67
:10367800696B203120202020202020200055706FE9
:103688007261626E696B2032202020202020202069
:103698000055706F7261626E696B203320202020A4
:1036A800202020200055706F7261626E696B203493
:1036B80020202020202020200055706F7261626E2B
:1036C800696B203520202020202020200055706F95
:1036D8007261626E696B2036202020202020202015
:1036E80000496465616C6E61207661726E6F7374F7
:1036F800202020200056706C69762074656D6570F6
:1037080065726174757265200052656672657368CA
:10371800207261746520202020202020004D656AD9
:103728006E612074656D70657261747572612020B8
:1037380000506F6E61737461766920707269767A71
:1037480065746F20004F736E6F766E6920707269B2
:103758006B617A202020202000486974726F73748E
:103768002020202020202020202020200052617AA4
:1037780064616C6A652020202020202020202020E1
:10378800004772616669636E69207072696B617A5D
:1037980020312020004772616669636E692070726B
:1037A800696B617A20322020005072696B617A203F
:1037B80020202020202020202020202000497A625C
:1037C8006F72207072696B617A612020202020203E
:1037D800004E61737461766974766520202020201C
:1037E8002020202000497A626572692075706F7206
:1037F80061626E696B612020006E616E00696E66A1
:06380800006F766600006F
:00000001FF
