:100000000C9498010C94C9010C94C9010C94C90179
:100010000C94C9010C94C9010C94C9010C94C90138
:100020000C94C9010C94C9010C94C9010C94C90128
:100030000C94C9010C94C9010C94C9010C94C90118
:100040000C94C9010C94C9010C94C9010C94C90108
:100050000C94C9010C94C9010C94C9010C946C0650
:100060000C94C9010C94D1040C94A7040C94C901FC
:100070000C94C9010C94C9010C94C9010C94C901D8
:100080000C94C9010C94C9010C94C9010C94C901C8
:100090000C94C9010C94C9010C94C9010C94D506A7
:1000A0000C94C9010C94C9010C94C9010C94C901A8
:1000B0000C94C9010C94C9010C94C9010C94C90198
:1000C0000C94C9010C94C9010C94C9010C94C90188
:1000D0000C94C9010C94C9010C94C9010C94C90178
:1000E0000C94C901B402B702A602AA02B002EE0241
:1000F000BB02BF02C502C902CD02D302D702DB0296
:10010000EE02E102E502E90208000000BE92244985
:10011000123EABAAAA2ABECDCCCC4C3E0000008039
:10012000BEABAAAAAA3E00000000BF000000803FAC
:100130000000000000084178D3BB4387D1133D196C
:100140000E3CC3BD4282AD2B3E68EC8276BED98F99
:10015000E1A93E4C80EFFFBE01C4FF7F3F000000DD
:1001600000000C94EF020C94E9020C94CB030C9465
:10017000E5020C949B080C94190A0C9482030C94CD
:10018000B4020C94EE010C9431040C9473030C949F
:10019000EE020C94FA030C94FC010C9470030C9482
:1001A00073090C9472030C94A3040C94AA020C948B
:1001B000C80A0C94CD020C9477020C94E1020C94C2
:1001C000DA010C94B7020C94D3020C94B0020C9494
:1001D000BB020C94BF020C942A020C9496030C945C
:1001E000FB030C944D050C9463040C94A6020C9430
:1001F000D7020C9471030C94C9020C94CB010C949B
:100200009E030C947C120C94C5020C94DB0200003B
:100210002100240027002A002D00300033000101B6
:100220000000040107010A01000022002500280047
:100230002B002E00310034000201000005010801EE
:100240000B01000020002300260029002C002F00B5
:100250003200000100000301060109010505050542
:10026000070508080808020202020A0A080804042E
:10027000040401010101010101010303030303035C
:100280000303040707070C0C0C0C0C0C0C0C0202EB
:10029000020206060606060606060B0B0B0B0B0BE8
:1002A0000B0B010210202008081020401020408075
:1002B000020102010804020101020408102040802A
:1002C00080402010080402018004020180402010B8
:1002D0000804020108040201010204081020408001
:1002E000010204081020408000000A0B02090C0DD6
:1002F0000E080703040100000000000000000000D9
:1003000000000000000000000000000000000000ED
:1003100000000000121110000000000000000000AA
:1003200000000000000000000000000000007C123F
:1003300011241FBECFEFD1E2DEBFCDBF00E00CBF66
:1003400014E0A0E0B2E0E6E2FDE200E00BBF02C094
:1003500007900D92AC3CB107D9F726E0ACECB4E0C5
:1003600001C01D92AD3DB207E1F711E0C8E9D1E04F
:1003700000E006C021970109802FFE010E944E1661
:10038000C739D10780E00807A9F70E94C50F0C9470
:1003900091160C940000FC01538D448D252F30E004
:1003A000842F90E0821B930B541710F0CF96089582
:1003B00001970895FC01918D828D981761F0828DCF
:1003C000DF01A80FB11D5D968C91928D9F5F9F7389
:1003D000928F90E008958FEF9FEF0895FC01918D2B
:1003E000828D981731F0828DE80FF11D858D90E098
:1003F00008958FEF9FEF0895FC01918D228D892F35
:1004000090E0805C9F4F821B91098F73992708951C
:10041000FC01848DDF01A80FB11DA35ABF4F2C91A1
:10042000848D90E001968F739927848FA689B78970
:100430002C93A089B1898C91837080648C93938D67
:10044000848D981306C00288F389E02D80818F7D0A
:1004500080830895EF92FF920F931F93CF93DF93C2
:10046000EC0181E0888F9B8D8C8D981305C0E88905
:10047000F989808185FD26C0F62E0B8D10E00F5F77
:100480001F4F0F731127E02E8C8DE8120CC00FB692
:1004900007FCFACFE889F989808185FFF5CFCE0185
:1004A0000E940802F1CF8B8DFE01E80FF11DE35A87
:1004B000FF4FF0829FB7F8940B8FEA89FB89808108
:1004C00080620AC09FB7F894EE89FF896083E8894B
:1004D000F98980818370806480839FBF81E090E090
:1004E000DF91CF911F910F91FF90EF900895CF93DF
:1004F000DF93EC01888D8823C9F0EA89FB8980812C
:1005000085FD05C0A889B9898C9186FD0FC00FB6FD
:1005100007FCF5CF808185FFF2CFA889B9898C913E
:1005200085FFEDCFCE010E940802E7CFDF91CF918A
:10053000089590E0FC013197E231F10508F04EC0DA
:100540008827EE58FF4F8F4F0C944E1680918000F5
:100550008F7703C0809180008F7D80938000089505
:1005600080918000877FF9CF84B58F7702C084B5F2
:100570008F7D84BD08958091B0008F7703C08091F6
:10058000B0008F7D8093B0000895809190008F77A8
:1005900007C0809190008F7D03C080919000877F7D
:1005A0008093900008958091A0008F7707C080917C
:1005B000A0008F7D03C08091A000877F8093A00062
:1005C0000895809120018F7707C0809120018F7D51
:1005D00003C080912001877F809320010895CF92EE
:1005E000DF92EF92FF920F931F93CF93DF936C01F3
:1005F0007A018B01C0E0D0E0CE15DF0581F0D80193
:100600006D918D01D601ED91FC910190F081E02D6D
:10061000C6011995892B11F02196EECF7E01C701F5
:10062000DF91CF911F910F91FF90EF90DF90CF90CE
:1006300008953FB7F8948091910590919205A0910B
:100640009305B091940526B5A89B05C02F3F19F0DE
:100650000196A11DB11D3FBFBA2FA92F982F882742
:10066000820F911DA11DB11DBC01CD0142E0660F9D
:10067000771F881F991F4A95D1F7089585ED8093BC
:10068000BC008091BC0084FDFCCF1092D40408957E
:1006900040914505262F30E0240F311D21323105D0
:1006A000DCF42091D4042430C9F4FC0180E090E013
:1006B000861758F4309145052191DC01AB5DBA4FA6
:1006C000A30FB11D2C930196F3CF80914505680FC0
:1006D0006093450580E0089581E0089582E00895E3
:1006E000089508950895E091CD048091CC04E81711
:1006F00030F4F0E0EB5FFA4F808190E008958FEFE7
:100700009FEF08959091CD048091CC04981750F4F8
:10071000E92FF0E0EB5FFA4F208130E09F5F90938C
:10072000CD0402C02FEF3FEFC90108958091CC04A2
:1007300090E02091CD04821B91090895CF92DF9221
:10074000EF92FF920F931F93CF93DF937C01CB0126
:100750008A0120910405222389F0EB016B01C40E6C
:10076000D51ECC15DD0569F06991D701ED91FC919D
:100770000190F081E02DC7011995F3CF642F0E94FD
:100780004803C801DF91CF911F910F91FF90EF9027
:10079000DF90CF900895CF93DF931F92CDB7DEB750
:1007A0006983209104052223D1F02091CE042032C8
:1007B00040F021E030E0FC013383228380E090E0D0
:1007C00015C08091CF04E82FF0E0EC51FB4F9981E8
:1007D00090838F5F8093CF048093CE0405C061E047
:1007E000CE0101960E94480381E090E00F90DF91D6
:1007F000CF910895089580E090E008950E948C16AE
:10080000E1EDF6E086818D7F868388600C94EA0CAA
:10081000CF93DF93282F30E0F901E851FD4F849109
:10082000F901EE55FD4FD491F901E45AFD4FC49101
:10083000CC2391F081110E949902EC2FF0E0EE0F91
:10084000FF1FEE5BFD4FA591B491EC91ED2381E08C
:1008500090E021F480E002C080E090E0DF91CF9151
:100860000895862F0C9408041F93CF93DF93282FAD
:1008700030E0F901E851FD4F8491F901EE55FD4F4B
:10088000D491F901E45AFD4FC491CC23C1F0162F45
:1008900081110E949902EC2FF0E0EE0FFF1FE85D3E
:1008A000FD4FA591B4919FB7F894111104C08C919C
:1008B000D095D82302C0EC91DE2BDC939FBFDF9153
:1008C000CF911F910895862F642F0C943404CF93F9
:1008D000DF9390E0FC01EE55FD4F2491FC01E45ABA
:1008E000FD4F8491882361F190E0880F991FFC01EE
:1008F000E25FFD4FC591D491FC01E85DFD4FA591EC
:10090000B491611109C09FB7F89488812095822322
:100910008883EC912E230BC0623061F49FB7F8946A
:100920008881322F309583238883EC912E2B2C9352
:100930009FBF06C08FB7F894E8812E2B28838FBF06
:10094000DF91CF910895862F642F0C9467041F9236
:100950000F920FB60F9211240BB60F922F933F9365
:100960004F935F936F937F938F939F93AF93BF93B7
:10097000EF93FF9389EB95E00E940802FF91EF91BE
:10098000BF91AF919F918F917F916F915F914F91A7
:100990003F912F910F900BBE0F900FBE0F901F90A5
:1009A00018951F920F920FB60F9211240BB60F924B
:1009B0002F938F939F93EF93FF93E091C905F0914D
:1009C000CA058081E091CF05F091D00582FD12C06B
:1009D00090818091D2058F5F8F732091D30582170C
:1009E00051F0E091D205F0E0E754FA4F958F8093F3
:1009F000D20501C08081FF91EF919F918F912F913E
:100A00000F900BBE0F900FBE0F901F9018958F92F6
:100A10009F92AF92BF92CF92DF92EF92FF926B01C3
:100A20007C010E9419034B015C01C114D104E10453
:100A3000F104F1F00E941903DC01CB018819990936
:100A4000AA09BB09883E9340A105B10570F321E0D6
:100A5000C21AD108E108F10888EE880E83E0981EDA
:100A6000A11CB11CC114D104E104F10419F7DDCFBC
:100A7000FF90EF90DF90CF90BF90AF909F908F90BE
:100A800008952FB7F89460918D0570918E0580912F
:100A90008F05909190052FBF08954F925F926F92AE
:100AA0007F928F929F92AF92BF92CF92DF92EF92FE
:100AB000FF92CF93DF938091DB0481110DC00E94E0
:100AC00041056093D7047093D8048093D904909320
:100AD000DA0481E08093DB040E94F00C0E940004A1
:100AE00086E9882E912CA12CB12C0E944105C09042
:100AF000D704D090D804E090D904F090DA04DC0157
:100B0000CB018C199D09AE09BF09853F9140A10514
:100B1000B10508F4CCC060E080E00E94860E88EA4F
:100B200092E00E944D0E61E080E00E94860E88EA0D
:100B300092E00E944D0E62E086E00E94860E85E003
:100B40000E944F0E63E086E00E94860E85E00E94C0
:100B50004F0EC0E06C2F83E10E94860E86E00E945B
:100B60004F0ECF5FC430B1F7C0900002D0900102A9
:100B70000E94CB092B013C010E944E09EC010F970A
:100B8000E4F120E030E048EC52E4C301B2010E94FD
:100B900052150E9415147B01BE01DD0F880B990BC5
:100BA0000E944D1426E636E646E650E40E94A31362
:100BB0002B013C01B601DD0C880B990B0E944D14F2
:100BC0009B01AC01C301B2010E94521520E030E04C
:100BD0004AE754E40E94A3130E941514AB01BC0120
:100BE000C701BA010E94F915693C710514F068EC5F
:100BF00070E06739710574F402C060E070E09B0139
:100C0000072E000C440B550B77FF08C020E030E0A6
:100C1000A90104C026E930E040E050E0A0EFBFEFBA
:100C20000E946416A50194010E942F1669017A01A1
:100C300080E1C80ED11CE11CF11C61E08C2D0E94EA
:100C4000860E81E00E944F0EC2E0CC0D61E08C2F39
:100C50000E94860E81E00E944F0E60E08C2D0E9463
:100C6000860E82E00E944F0E60E081E08C0D0E94B3
:100C7000860E83E00E944F0E60E08C2F0E94860E4D
:100C800084E00E944F0E8091D7049091D804A091E7
:100C9000D904B091DA048C509E4FAF4FBF4F809370
:100CA000D7049093D804A093D904B093DA040E9497
:100CB000010D8A3209F019CFDF91CF91FF90EF90AB
:100CC000DF90CF90BF90AF909F908F907F906F906C
:100CD0005F904F900C94F80C1F920F920FB60F92EA
:100CE00011242F933F938F939F93AF93BF93809142
:100CF0008D0590918E05A0918F05B0919005309152
:100D00008C0523E0230F2D3720F40196A11DB11D82
:100D100005C026E8230F0296A11DB11D20938C0566
:100D200080938D0590938E05A0938F05B0939005C9
:100D30008091910590919205A0919305B0919405B1
:100D40000196A11DB11D8093910590939205A093EA
:100D50009305B0939405BF91AF919F918F913F916F
:100D60002F910F900FBE0F901F901895863308F0AB
:100D7000865390917B00282F2870977F922B909319
:100D80007B008770806480937C0080917A0080640F
:100D900080937A0080917A0086FDFCCF8091780064
:100DA0002091790090E0922B08951F920F920FB638
:100DB0000F9211240BB60F922F933F934F935F9393
:100DC0006F937F938F939F93AF93BF93EF93FF9313
:100DD0008091B900887F803609F49CC068F588321C
:100DE00009F45BC090F4803109F454C038F48823CE
:100DF00009F4F6C0883009F44DC0F6C0883109F412
:100E00004CC0803209F45DC0EFC0803409F468C082
:100E100048F4803309F455C0883309F0E5C0809365
:100E20006805D8C0803509F44FC0883509F45DC025
:100E3000883409F0D9C0D6C0883909F4C7C0A8F4ED
:100E4000883709F467C038F4883609F463C08037FE
:100E500009F460C0C9C0883809F4B8C0803909F401
:100E60005FC0803809F0C0C05BC0803B09F486C019
:100E700038F4803A09F466C0883A09F47FC0B4C0F7
:100E8000803C09F4A7C0883C09F4A4C0883B09F45D
:100E90008AC0AAC080918B0510C090918A0580916C
:100EA0008905981770F5E0918A0581E08E0F80938F
:100EB0008A05F0E0E759FA4F80818093BB0085EC0A
:100EC00086C0809368058EC0E0918A0581E08E0F10
:100ED00080938A058091BB00F0E0E759FA4F808348
:100EE00090918A05809189056EC0E0918A0581E024
:100EF0008E0F80938A058091BB00F0E0E759FA4F8E
:100F000080838091D60481116DC081E08093D504E7
:100F100084EA61C083E08093D40410926705CFCF48
:100F200080916705803208F051C0E091670581E04B
:100F30008E0F809367058091BB00F0E0E95BFA4F6C
:100F40008083BDCF85EC8093BC001092D404809147
:100F50006705803230F4E0916705F0E0E95BFA4F15
:100F600010826091670570E0E091D204F091D304A3
:100F700087E495E019951092670536C084E0809368
:100F8000D4041092460510924505E091D004F091EA
:100F9000D104199580914505811105C081E08093A8
:100FA000450510922505E091460581E08E0F80935E
:100FB0004605F0E0EB5DFA4F80818093BB00909195
:100FC000460580914505981708F479CF85E8809308
:100FD000BC000AC085EC8093BC001092D40404C00D
:100FE000109268050E943E03FF91EF91BF91AF916F
:100FF0009F918F917F916F915F914F913F912F9131
:101000000F900BBE0F900FBE0F901F901895CF93AF
:10101000FC01C48121E020930405C093E3041092F5
:10102000CF041092CE048385682B86E596E00E945B
:10103000CB039091CE04913208F045C08091D40446
:101040008111FCCF82E08093D40481E08093D604A8
:101050008FEF8093680510928A0590938905A4EE1E
:10106000B4E0E9E6F5E080E0981721F02D912193B6
:101070008F5FFACF10928B0580918B05CC0FC82B18
:10108000C0938B058091D504813061F41092D50412
:1010900080918B058093BB008091BC0083FDF8CFCD
:1010A00085EC01C085EE8093BC008091D404823031
:1010B000E1F3809168058F3F31F0809168058032BF
:1010C00011F0809168051092CF041092CE04109216
:1010D0000405CF9108950F931F93CF938C01C62FD2
:1010E0000E9407086C2F6460C8010E9407086C2FDB
:1010F0006B7FC8010E94070883EC90E00197F1F72D
:10110000CF911F910F9108950F931F93CF93DF936A
:101110008C01C62FD42F607F642B0E946B0880E166
:10112000C89FB00111246D2BC801DF91CF911F9191
:101130000F910C946B0841E00E94840881E090E0DC
:1011400008950F931F93CF93DF938B01877028E04F
:10115000829FC001112480640E94EA0CE801085FAC
:101160001F4F699181ED96E00E949B08C017D1073F
:10117000C1F7DF91CF911F910F910895BF92CF9248
:10118000DF92EF92FF920F931F93CF93DF938C0127
:101190007B016A016430710534F0043011055CF59F
:1011A000C0E0D0E024C0C4E0D0E0C61BD70B34E0E0
:1011B000B32E6B2D6C1B80E00E94860E88EA92E0B5
:1011C0000E944D0E2197A9F7E8CF6C2F80E00E9476
:1011D000860EF601819191916F010E944D0E602F54
:1011E00083E10E94860E2196C430D10519F1CE15F7
:1011F000DF055CF31FC0E8012397CE01880F991F1C
:10120000C80ED91EB12CCE15DF05A4F40C171D078E
:101210008CF06B2D80E00E94860EF60181919191F9
:101220006F010E944D0E63E083E10E94860E2196BD
:10123000B394E9CFDF91CF911F910F91FF90EF9081
:10124000DF90CF90BF900895CF93DF93EC010E9481
:10125000F00C61E080E00E94860E8CEB92E00E9430
:101260004D0E62E080E00E94860E83EC92E00E94C8
:101270004D0E63E080E00E94860ECE010E944D0E6E
:101280000E94000468EE73E080E090E00E94070591
:101290000E94F80CDF91CF910C94F00C88E30E942F
:1012A000B6069C01990F440B550B213084E038079A
:1012B0004105510534F457FF08C020E030E0A90192
:1012C00004C020E034E040E050E0ACEDB0E00E942B
:1012D0005616DC01CB012AE0B595A7959795879521
:1012E0002A95D1F708950F931F938091B10581112D
:1012F0000DC00E9441056093AD057093AE058093CB
:10130000AF059093B00581E08093B1050E94F00C89
:101310000E9400048CE793E00E944D0E0E9441055C
:101320000091AD051091AE052091AF053091B0054B
:10133000DC01CB01801B910BA20BB30B853F9140CD
:10134000A105B10500F161E088E00E94860E0E94CF
:101350004E090E94580E85E893E00E944D0E809140
:10136000AD059091AE05A091AF05B091B0058C5040
:101370009E4FAF4FBF4F8093AD059093AE05A093A6
:10138000AF05B093B0050E94010D8A3239F61F9166
:101390000F910C94F80C0F931F9360E083E00E9470
:1013A000340483E090E00197F1F761E083E00E946C
:1013B000340483E290E00197F1F760E083E00E945B
:1013C0003404E4EAF2E06491EEE5F2E0E491F0E066
:1013D000EE0FFF1FEE5BFD4F8591949100E21EE43E
:1013E00020E030E0462F0E94800F611571058105D5
:1013F000910539F0DC01CB010196A11DB11DBF7033
:1014000003C080E090E0DC01BC01990F880B990BD0
:101410000E944D1426E933E44BE05DE30E9452152F
:1014200020E030E040E05FE30E9452151F910F91F1
:101430000895CF92DF92EF92FF920F931F93CF9375
:10144000DF938091A50581110DC00E944105609335
:10145000A1057093A2058093A3059093A40581E054
:101460008093A5050E94F00C0E94000460E080E0DB
:101470000E94860E8EE893E00E944D0E62E080E0AE
:101480000E94860E86E093E00E944D0E0E94410568
:101490000091A1051091A2052091A3053091A4050A
:1014A000DC01CB01801B910BA20BB30B853F91405C
:1014B000A105B10508F45BC00E94CB096B017C015A
:1014C000C0910002D09101020E944E098C0161E09E
:1014D00088E00E94860EC701B6010E941514CB0158
:1014E0000E94580E83EA93E00E944D0E63E088E06C
:1014F0000E94860EB801110F880B990B0E944D14A3
:1015000026E636E646E650E40E94A3136B017C0112
:10151000BE01DD0F880B990B0E944D149B01AC019D
:10152000C701B6010E94521520E030E04AE754E4BA
:101530000E94A3130E941514CB010E94580E83EA47
:1015400093E00E944D0E8091A1059091A205A0917B
:10155000A305B091A4058C509E4FAF4FBF4F809311
:10156000A1059093A205A093A305B093A4050E94A2
:10157000010D8A3209F08ACF0E94F80CDF91CF91D9
:101580001F910F91FF90EF90DF90CF900C94F00C93
:101590002F923F924F925F926F927F928F929F9283
:1015A000AF92BF92CF92DF92EF92FF920F931F9371
:1015B000CF93DF938091990581110DC00E94410561
:1015C0006093950570939605809397059093980581
:1015D00081E0809399050E94F00C0E94000460E075
:1015E00080E00E94860E8AEA93E00E944D0E61E040
:1015F00080E00E94860E88EB93E00E944D0E62E030
:1016000080E00E94860E83EC93E00E944D0E63E022
:1016100080E00E94860E8DEC93E00E944D0E0E94A9
:1016200041050091950510919605209197053091FF
:101630009805DC01CB01801B910BA20BB30B853FFE
:101640009140A105B10508F4D9C087E30E94B60610
:10165000BC01990F880B990B0E944D149B01AC01A2
:1016600060E070E080E894E40E94A31320E030E0A2
:1016700040E85FE30E94311320E030E44CE156E49F
:101680000E9452150E940A156B017C0129E537E47E
:101690004CEB53E30E945215A70196010E9452158C
:1016A00023E73FE745E759E30E943213A70196017C
:1016B0000E9452152BEE3FEF43E95AE30E9432138A
:1016C0009B01AC0160E070E080E89FE30E94A313FF
:1016D00023E333E948E853E40E9431134B015C01F2
:1016E0000E94CB096B017C010E944E098C01209065
:1016F0000002309001020F97DCF120E030E048EC6E
:1017000052E4C701B6010E9452150E941514EB0164
:10171000B801012E000C880B990B0E944D1426E68F
:1017200036E646E650E40E94A3132B013C01B101CA
:10173000330C880B990B0E944D149B01AC01C30123
:10174000B2010E94521520E030E04AE754E40E94C2
:10175000A3130E941514AB01BC01CE01BA010E9473
:10176000F915EB01693C71052CF0C8ECD0E002C022
:10177000C0E0D0E060E08CE00E94860E42E0C5014F
:10178000B4010E94B20E8AED93E00E944D0E61E01A
:1017900089E00E94860E42E0C701B6010E94B20EA7
:1017A0008DED93E00E944D0E62E088E00E94860E6F
:1017B000C8010E94580E85E893E00E944D0E63E038
:1017C0008BE00E94860ECE010E94580E88EB92E0BC
:1017D0000E944D0E8091950590919605A0919705D8
:1017E000B09198058C509E4FAF4FBF4F8093950599
:1017F00090939605A0939705B09398050E94010DCC
:101800008A3209F00CCF0E94F80CDF91CF911F9122
:101810000F91FF90EF90DF90CF90BF90AF909F908F
:101820008F907F906F905F904F903F902F900C948F
:10183000F00C96E0899FD0011124AE59B94F9096D3
:101840007C936E935F9791E091969C939197909182
:10185000CE06E091CF06F091D006992339F030976B
:1018600051F0811108C080917E0604C0309719F0B4
:101870005C968C91199408950F931F93CF93DF93E7
:10188000C82FD62F86E0C89FF0011124EE59F94FDA
:1018900011A2878D90A181309105D9F040F082305E
:1018A0009105A9F10397F1F560E070E034C066237B
:1018B000C9F161E070E08C2F0E94190C0E94410573
:1018C0006093BA067093BB068093BC069093BD06E6
:1018D00029C00E9441050091BA061091BB062091D3
:1018E000BC063091BD06AB01BC01401B510B620B25
:1018F000730B8091CC069091CD06A0E0B0E08417E8
:101900009507A607B70718F462E070E004C0D1118C
:1019100009C063E070E08C2FDF91CF911F910F9190
:101920000C94190CDF91CF911F910F91089500979E
:1019300069F0FC0101900020E9F73197AF01481BE5
:10194000590BBC0181ED96E00C94EF0280E090E031
:1019500008958F929F92AF92BF920F931F93CF9350
:10196000DF93CDB7DEB7A1970FB6F894DEBF0FBEF9
:10197000CDBF19A2423008F44AE08E010F5D1F4F1F
:10198000842E912CA12CB12CA50194010E940D163E
:10199000E62FB901CA0101501109EA3014F4E05DE3
:1019A00001C0E95CD801EC93232B242B252B61F794
:1019B000C8010E94970CA1960FB6F894DEBF0FBE27
:1019C000CDBFDF91CF911F910F91BF90AF909F90AE
:1019D0008F90089540E0682F81ED96E00C94840884
:1019E00081E00E94EA0C8BE39FE10197F1F70895F3
:1019F000E1EDF6E08681982F926096838A600C94E0
:101A0000EA0C6F927F928F929F92AF92BF92CF9289
:101A1000DF92EF92FF920F931F93CF93DF9381E0BA
:101A20008093CE060E9441050091BE061091BF062C
:101A30002091C0063091C106AB01BC01401B510B87
:101A4000620B730B8091CA069091CB06A0E0B0E0C8
:101A500084179507A607B70708F0E6C0C0E0809195
:101A6000C806C81730F0712C812C912C5401839436
:101A700040C0E091C406F091C506EC0FF11D62E094
:101A800080810E946704CF5FEACFC62DD0E0E0914D
:101A9000C406F091C506EC0FFD1F80810E9408046A
:101AA0002496CC0FDD1FCE59D94F892B09F04BC09E
:101AB000888199818C299D29998388836394809159
:101AC000C806681610F3E091C606F091C706E00F4D
:101AD000F11F61E080810E9434048091C6069091DC
:101AE000C706FC01E00FF11F60E080810E946704DF
:101AF00073948091C906781658F5072D10E0E0918F
:101B0000C606F091C706E00FF11F61E080810E94D8
:101B10006704E091C606F091C706E00FF11F60E090
:101B200080810E943404D501C401072C04C0880FB1
:101B3000991FAA1FBB1F0A94D2F76C017C01E09485
:101B4000F094612CBCCF888199818E219F21B4CFE4
:101B500022E6E22E26E0F22EF7018FEF9FEF278D8F
:101B600030A1232B21F4148E968F858F11A23696E7
:101B700026E0EE39F20799F7C0E096E0D92E809181
:101B8000C806C81758F5D0E00C2F10E0000F111F41
:101B90000659194F2091C906D217F0F4F801408177
:101BA00051810D2E02C0569547950A94E2F7642F95
:101BB0006170C29F900111242D0F311DE2E6F6E005
:101BC00080E0A58DB68D2A173B0709F44DC08F5FC5
:101BD00036968A30B1F72CC0CF5FD1CFC0E0F70185
:101BE00081A18111C1E0F6E0EF0EF11C2EE9E216B1
:101BF00026E0F206A1F70E9441056093BE067093AD
:101C0000BF068093C0069093C106CC2369F08091F3
:101C10008306882349F0809181069091820601977E
:101C200019F480917E062AC01092CE0680E026C06C
:101C300040FF1CC0E2E6F6E080E090E0448D4111F8
:101C400017C0E091C206F091C306E20FF31F408176
:101C5000D89EF001D99EF00D1124EE59F94F448F12
:101C6000368F258F10A2178E0E943C0CDF5F92CF1B
:101C7000019636968A30910509F7F8CFDF91CF911A
:101C80001F910F91FF90EF90DF90CF90BF90AF909A
:101C90009F908F907F906F9008950C94970C41E0E7
:101CA000682F81ED96E00E94840881E090E008951D
:101CB000CF92DF92EF92FF92CF93DF936C01990F57
:101CC000EE08FF08F7FE17C08DE20E944F0EEC01F0
:101CD00066277727CB016C197D098E099F094AE099
:101CE0000E94A90C8C0F9D1FDF91CF91FF90EF9068
:101CF000DF90CF9008954AE0C701B601DF91CF9100
:101D0000FF90EF90DF90CF900C94A90CCF93DF93CE
:101D1000CDB7DEB728970FB6F894DEBF0FBECDBFA4
:101D200098E0E6E6F2E0DE01119601900D929A95B8
:101D3000E1F79091D906961710F46FEF690FFE0145
:101D40003196E60FF11DE60FF11D9081890F806835
:101D500028960FB6F894DEBF0FBECDBFDF91CF91AE
:101D60000C94EA0C8F929F92AF92BF92CF92DF9227
:101D7000EF92FF920F931F93CF93DF936B017C0140
:101D8000142F9B01AC010E94BF15882319F08FEB23
:101D900094E027C046015701E894B7F82FEF3FEFD2
:101DA0004FE75FE7C501B4010E94BF1581110DC067
:101DB0002FEF3FEF4FE75FE7C501B4010E949E138D
:101DC00018161CF483EC94E00CC02FEF3FEF4FE7A4
:101DD0005FE4C701B6010E94FD14181684F487EC75
:101DE00094E0DF91CF911F910F91FF90EF90DF90E2
:101DF000CF90BF90AF909F908F900C94970C2FEF47
:101E00003FEF4FE75FECC701B6010E949E1387FDCD
:101E1000E6CF20E030E0A901C701B6010E949E1381
:101E200087FF09C08DE20E944F0EEC01F7FAF09493
:101E3000F7F8F09402C0C0E0D0E000E060E070E0AD
:101E400080E09FE3101741F020E030E040E251E4F1
:101E50000E94A3130F5FF6CFA70196010E943213D1
:101E60006B017C010E941C144B015C014AE00E9442
:101E7000A90CC80FD91F1123A9F1C501B4010E94F3
:101E80004B149B01AC01C701B6010E9431136B01D9
:101E90007C018EE20E944F0EC80FD91F20E030E077
:101EA00040E251E4C701B6010E9452154B015C01AA
:101EB0000E941C146B01E12CF12C4AE0C701B60111
:101EC0000E94A90CC80FD91FC701B6010E944B146C
:101ED0009B01AC01C501B4010E9431136B017C016F
:101EE0001150E1F6CE01DF91CF911F910F91FF903C
:101EF000EF90DF90CF90BF90AF909F908F9008951C
:101F0000CF92DF92EF92FF920F931F93E82FF92F5A
:101F100005C0015011092109310961F19081962311
:101F20009417B9F305C0015011092109310911F1C4
:101F3000908196239413F7CFC12CD12CE12CF12C56
:101F40000AC08FEFC81AD80AE80AF80A0C151D054E
:101F50002E053F0579F080818623841791F36C2D3F
:101F60007D2D8E2D9F2D1F910F91FF90EF90DF9073
:101F7000CF90089560E070E080E090E01F910F91B5
:101F8000FF90EF90DF90CF900895789484B58260B1
:101F900084BD84B5816084BD85B5826085BD85B50D
:101FA000816085BD80916E00816080936E0010928B
:101FB0008100809181008260809381008091810006
:101FC0008160809381008091800081608093800097
:101FD0008091B10084608093B1008091B0008160F5
:101FE0008093B000809191008260809391008091F5
:101FF0009100816080939100809190008160809336
:1020000090008091A10082608093A1008091A10046
:1020100081608093A1008091A00081608093A000E6
:102020008091210182608093210180912101816052
:102030008093210180912001816080932001809113
:102040007A00846080937A0080917A008260809325
:102050007A0080917A00816080937A0080917A0082
:10206000806880937A001092C100E091C905F091D8
:10207000CA0582E08083E091C505F091C605108213
:10208000E091C705F091C8058FEC80831092D105CF
:10209000E091CD05F091CE0586E08083E091CB05FF
:1020A000F091CC05808180618083E091CB05F09137
:1020B000CC05808188608083E091CB05F091CC05D0
:1020C000808180688083E091CB05F091CC05808190
:1020D0008F7D808360E087E30E94670461E083E096
:1020E0000E94670460E082E00E9467041092CD04C1
:1020F0001092CC041092CF041092CE041092D4040B
:1021000081E08093D6041092D50461E084E10E94BE
:10211000340461E085E10E9434048091B9008E7F2F
:102120008093B9008091B9008D7F8093B90088E4D5
:102130008093B80085E48093BC0080E793E090939F
:10214000D1048093D00481E793E09093D3048093EB
:10215000D2041092D6068091DB06823018F098E007
:102160009093D6068093D90662E370E080E090E019
:102170000E9407056091DC0681ED96E00E94070849
:1021800068EE73E080E090E00E94070560E381ED77
:1021900096E00E946B08CBE4D6E4CE010197F1F7FC
:1021A00060E381ED96E00E946B082197F1F760E310
:1021B00081ED96E00E946B0883E592E00197F1F7CC
:1021C00060E281ED96E00E946B088091D606806205
:1021D0000E94EA0C84E08093D7068CE00E94EA0C0F
:1021E0000E94F00C82E08093D80686E00E94EA0C00
:1021F00082E00E94EA0C8BE39FE10197F1F788E00F
:102200008093DC0660E081ED96E00E9407080E9462
:10221000F80C66E472E081E00E94A1086EE372E0CF
:1022200082E00E94A10866E372E083E00E94A108B8
:102230006EE272E084E00E94A10866E272E085E04E
:102240000E94A1086EE172E086E00E94A108609100
:102250001C0270911D0246E152E080E090E00E9475
:10226000BE0806E112E07CE1872E72E0972EE8ECD2
:10227000EE2EEAE0FE2EFAE07F2EF401C080D1803F
:102280000E94F00CA801B60180E090E00E94BE0818
:10229000C0E0D0E05601F1E0AF1AB1080E94010D94
:1022A0008A3209F419C1823329F41C161D06B4F7C9
:1022B00021970CC0883319F0853381F70DC0CA15FA
:1022C000DB0514F4219602C0C0E0D0E0A801B601FD
:1022D000CE010E94BE08E2CF22E006311207C9F407
:1022E000C130D10541F0C230D10561F0CD2B29F6C6
:1022F000F7011995C2CF08E012E054E1852E52E0B3
:10230000952EBBCF02E012E042E1842E42E0942EF3
:10231000B4CFF2E008301F0709F041C0C130D10549
:1023200011F1BCF4CF3F2FEFD20739F406E112E0F0
:102330006CE1862E62E0962EA0CFCD2B09F09DCFCA
:102340008EEC92E00E94240938ECE32E3AE0F32E62
:1023500094CFC330D10599F07CF0249709F08DCF4C
:102360008AEB92E015C08DED92E00E94240923E7EC
:10237000E22E29E0F22E81CF8CEE92E009C08BEFA5
:1023800092E00E9424099DE4E92E95E0F92E75CF94
:102390000E94240989E1E82E8AE0F82E6ECF82E0BF
:1023A0000230180709F069CFCF3FEFEFDE0709F4DD
:1023B000BDCFCD2B09F061CF0E94F00C60E080E032
:1023C0000E94860E86E093E00E944D0E61E080E060
:1023D0000E94860E80910002909101020E94580E88
:1023E00063E080E00E94860E8AE193E00E944D0E39
:1023F0000E94010DC82F843419F0CA32C9F73DCFAD
:102400000E94F00C60E080E00E94860E8BE293E078
:102410000E944D0E61E080E00E94860E88E393E00A
:102420000E944D0E62E080E00E94860E8AE493E0F6
:102430000E944D0E63E080E00E94860EA12CB12C1C
:10244000C12CD12CC134D9F0F5E0AF16B104D9F0CC
:102450000E94010DC82F80ED8C0F8A3098F7C82F8D
:102460007C9C90017D9C300D112490E06901C80E88
:10247000D91E0E94580E2FEFA21AB20AE3CF85E0B0
:10248000A816B10439F40E94F00C0E94000487E5FC
:1024900093E017C0C601855F91408339914158F49C
:1024A000D0920102C09200020E94F00C0E9400042F
:1024B00084E693E006C00E94F00C0E9400048FE6C0
:1024C00093E00E944D0E68EE73E080E090E00E9481
:1024D00007050E94F80CD1CEF2E006311F0709F47F
:1024E000CCCE22E00830120709F420CF82E002307F
:1024F000180709F0C2CE1ACF1092BC051092BB0586
:1025000088EE93E0A0E0B0E08093BD059093BE0517
:10251000A093BF05B093C00522E732E03093BA051F
:102520002093B90525EC30E03093C6052093C5050E
:1025300024EC30E03093C8052093C70520EC30E050
:102540003093CA052093C90521EC30E03093CC05C7
:102550002093CB0522EC30E03093CE052093CD05BF
:1025600026EC30E03093D0052093CF051092D205B1
:102570001092D3051092D4051092D50510925906E9
:102580001092580680935A0690935B06A0935C06BF
:10259000B0935D0684E892E09093570680935606C8
:1025A0001092D4061092D30680EA92E09093D2065D
:1025B0008093D1068FE38093D50684E18093DA0679
:1025C00084E08093DB061092DC0610926406109281
:1025D0006806109267061092690686E992E0909369
:1025E000630680936206E2E6F6E08EE996E0148EDA
:1025F00010A2178E11A236968E179F07C1F782E59B
:1026000092E09093C5068093C4068EE492E0909386
:10261000C7068093C60684E08093C8068093C906E7
:1026200086E592E09093C3068093C2068AE090E02C
:102630009093CB068093CA0684EF91E09093CD06E9
:102640008093CC061092D0061092CF061092BE0650
:102650001092BF061092C0061092C1061092CE06CC
:1026600008955058BB27AA270E9449130C94C314FD
:102670000E94B51438F00E94BC1420F039F49F3F3A
:1026800019F426F40C94B2140EF4E095E7FB0C94C4
:10269000AC14E92F0E94D41458F3BA1762077307D9
:1026A0008407950720F079F4A6F50C94F6140EF43F
:1026B000E0950B2EBA2FA02D0B01B90190010C0152
:1026C000CA01A0011124FF27591B99F0593F50F46A
:1026D000503E68F11A16F040A22F232F342F4427C2
:1026E000585FF3CF469537952795A795F0405395BA
:1026F000C9F77EF41F16BA0B620B730B840BBAF08A
:102700009150A1F0FF0FBB1F661F771F881FC2F7F4
:102710000EC0BA0F621F731F841F48F48795779508
:102720006795B795F7959E3F08F0B0CF9395880FC2
:1027300008F09927EE0F9795879508950E948814C1
:1027400008F481E008950E94B7130C94C3140E940A
:10275000BC1458F00E94B51440F029F45F3F29F0F2
:102760000C94AC1451110C94F7140C94B2140E94F4
:10277000D41468F39923B1F3552391F3951B550BAA
:10278000BB27AA2762177307840738F09F5F5F4F44
:10279000220F331F441FAA1FA9F335D00E2E3AF083
:1027A000E0E832D091505040E695001CCAF72BD09B
:1027B000FE2F29D0660F771F881FBB1F26173707EC
:1027C0004807AB07B0E809F0BB0B802DBF01FF271E
:1027D00093585F4F3AF09E3F510578F00C94AC143B
:1027E0000C94F7145F3FE4F3983ED4F38695779505
:1027F0006795B795F7959F5FC9F7880F911D9695D7
:10280000879597F90895E1E0660F771F881FBB1F32
:10281000621773078407BA0720F0621B730B840BDF
:10282000BA0BEE1F88F7E09508950E941C14689477
:10283000B1110C94F71408950E94DC1488F09F578E
:1028400098F0B92F9927B751B0F0E1F0660F771FD4
:10285000881F991F1AF0BA95C9F714C0B13091F0CA
:102860000E94F614B1E008950C94F614672F782FA7
:102870008827B85F39F0B93FCCF38695779567958F
:10288000B395D9F73EF490958095709561957F4FFB
:102890008F4F9F4F0895E89409C097FB3EF49095A1
:1028A0008095709561957F4F8F4F9F4F9923A9F029
:1028B000F92F96E9BB279395F695879577956795B8
:1028C000B795F111F8CFFAF4BB0F11F460FF1BC0FC
:1028D0006F5F7F4F8F4F9F4F16C0882311F096E98F
:1028E00011C0772321F09EE8872F762F05C066233D
:1028F00071F096E8862F70E060E02AF09A95660FF6
:10290000771F881FDAF7880F9695879597F90895AE
:10291000990F0008550FAA0BE0E8FEEF16161706F0
:10292000E807F907C0F012161306E407F50798F058
:10293000621B730B840B950B39F40A2661F0232B71
:10294000242B252B21F408950A2609F4A140A695ED
:102950008FEF811D811D089597F99F6780E870E0D2
:1029600060E008959FEF80EC089500240A94161605
:10297000170618060906089500240A94121613066D
:10298000140605060895092E0394000C11F48823FB
:1029900052F0BB0F40F4BF2B11F460FF04C06F5F17
:1029A0007F4F8F4F9F4F089557FD9058440F551FED
:1029B00059F05F3F71F04795880F97FB991F61F0C1
:1029C0009F3F79F087950895121613061406551F38
:1029D000F2CF4695F1DF08C0161617061806991FA4
:1029E000F1CF86957105610508940895E894BB2799
:1029F00066277727CB0197F908950E94881408F479
:102A00008FEF089516F00C94C4150C94B2146894CA
:102A10000C94AC140E94DC14A8F39923C1F3AEF318
:102A2000DF93CF931F930F93FF92C92FDD27882346
:102A30002AF02197660F771F881FDAF720E030E031
:102A400040E85FEB9FE3883920F0803E38F0219624
:102A50008F770E943213E8E0F1E004C00E94321345
:102A6000E5E3F1E00E94D2158B01BE01EC01FB2EE3
:102A70006F5771097595771F880B990B0E944D143C
:102A800028E132E741E35FE30E946515AF2D98012D
:102A9000AE01FF900F911F91CF91DF910E944913DA
:102AA0000C94C3140E9465150C94C3140E94B514B1
:102AB00038F00E94BC1420F0952311F00C94AC1453
:102AC0000C94B21411240C94F7140E94D41470F3D3
:102AD000959FC1F3950F50E0551F629FF001729FC3
:102AE000BB27F00DB11D639FAA27F00DB11DAA1FD2
:102AF000649F6627B00DA11D661F829F2227B00D1F
:102B0000A11D621F739FB00DA11D621F839FA00DA9
:102B1000611D221F749F3327A00D611D231F849FF9
:102B2000600D211D822F762F6A2F11249F57504050
:102B30009AF0F1F088234AF0EE0FFF1FBB1F661FCB
:102B4000771F881F91505040A9F79E3F510580F094
:102B50000C94AC140C94F7145F3FE4F3983ED4F358
:102B6000869577956795B795F795E7959F5FC1F738
:102B7000FE2B880F911D9695879597F908950E94D1
:102B80008814880B990B08959F3F31F0915020F4E1
:102B9000879577956795B795880F911D9695879539
:102BA00097F90895DF93CF931F930F93FF92EF92BE
:102BB000DF927B018C01689406C0DA2EEF010E943F
:102BC0006515FE01E894A5912591359145915591A2
:102BD000A6F3EF010E944913FE019701A801DA94C0
:102BE00069F7DF90EF90FF900F911F91CF91DF91E8
:102BF000089597FB072E16F4009407D077FD09D0AF
:102C00000E94691607FC05D03EF4909581959F4F70
:102C10000895709561957F4F0895A1E21A2EAA1B21
:102C2000BB1BFD010DC0AA1FBB1FEE1FFF1FA2177C
:102C3000B307E407F50720F0A21BB30BE40BF50B79
:102C4000661F771F881F991F1A9469F76095709502
:102C5000809590959B01AC01BD01CF010895052E93
:102C600097FB1EF400940E94461657FD07D00E9461
:102C70000D1607FC03D04EF40C9446165095409563
:102C8000309521953F4F4F4F5F4F08959095809518
:102C9000709561957F4F8F4F9F4F0895EE0FFF1FE7
:102CA000881F8BBF0790F691E02D19940E947D1626
:102CB000A59F900DB49F900DA49F800D911D112490
:102CC0000895B7FF0C9456160E945616821B930B5C
:102CD0000895AA1BBB1B51E107C0AA1FBB1FA61763
:102CE000B70710F0A61BB70B881F991F5A95A9F7B5
:102CF00080959095BC01CD010895A29FB001B39F2E
:102D0000C001A39F700D811D1124911DB29F700DF4
:102D1000811D1124911D089581E090E0F8940C9498
:062D20009116F894FFCFAC
:102D2600DC05E303F7030B041F04330447045B04C9
:102D36006F040300050083049704AB0403001F1F00
:102D46001F1F1F1F1F1F01010101010101010000BB
:102D56000000101F1F1F0000001F1F1F1F1F000065
:102D66000000011F1F1F0E0E000000000000414062
:102D76003F3E45444342313233413435364237389B
:102D860039432A3023440000400014005400000058
:102D960000002A02EF02CB017702FC01DA01EE0104
:102DA60000000000CB039E03FB037203960382031D
:102DB600730300000000A304630431040000000054
:102DC6009B08EF02FB03FA0320202020202020206E
:102DD6002020202020202020202020005072696BF7
:102DE600617A00537072656D656E6A656E004F7329
:102DF6006E6F766E69207072696B617A00507269C7
:102E06006B617A20686974726F7374005072696BB3
:102E1600617A2072617A64616C6A004772616669E0
:102E26006B6120312000496465616C6E61207661BA
:102E3600726E6F73746E613A2000537072656D65C1
:102E46006261202D2D3E2044202000567069736952
:102E56007465206D733A2000286D65642035303026
:102E660020696E203530303029004B6F6E63616A01
:102E7600202D2D3E20410050524556454C494B4190
:102E860020535400566E6F7320757370656C004E38
:102E960041504143454E20564E4F53004869747287
:102EA6006F73743A00206B6D2F68202020005661E6
:102EB600726E6F73746E612072617A64616C6A619E
:102EC6003A20006D20202020200054656D70657228
:102ED60061747572613A200052617A64616C6A614C
:102EE6003A2000486974726F73743A20004B6F651C
:102EF60066696369656E743A2000204300206D2080
:102F0600202000496465616C6E61207661726E6F87
:102F16007374202020200056706C69762074656DCD
:102F26006570657261747572652000506F6F6E61B1
:102F3600737461766920707269767A657420004FC1
:102F4600736E6F766E69207072696B617A202020CD
:102F5600202000486974726F73742020202020207E
:102F66002020202020200052617A64616C6A65204E
:102F76002020202020202020202000477261666922
:102F8600636E69207072696B617A20312020004778
:102F960072616669636E69207072696B617A20324C
:102FA6002020005072696B617A202020202020208A
:102FB60020202020202000497A626F7220707269DA
:102FC6006B617A61202020202020004E617374619D
:102FD6007669747665202020202020202020006E2F
:0C2FE600616E00696E66006F7666000088
:00000001FF
