:100000000C94B0010C94E1010C94E1010C94E10119
:100010000C94E1010C94E1010C94E1010C94E101D8
:100020000C94E1010C94E1010C94E1010C94E101C8
:100030000C94E1010C94E1010C94E1010C94E101B8
:100040000C94E1010C94E1010C94E1010C94E101A8
:100050000C94E1010C94E1010C94E1010C94830CEB
:100060000C94E1010C94070C0C94DD0B0C94E10151
:100070000C94E1010C94E1010C94E1010C94E10178
:100080000C94E1010C94E1010C94E1010C94E10168
:100090000C94E1010C94E1010C94E1010C94EC0C42
:1000A0000C94E1010C94E1010C94E1010C94E10148
:1000B0000C94E1010C94E1010C94E1010C94E10138
:1000C0000C94E1010C94E1010C94E1010C94E10128
:1000D0000C94E1010C94E1010C94E1010C94E10118
:1000E0000C94E101CA149015A015B215C415D615CB
:1000F000E815FC151C091F090E09120918095609F3
:10010000230927092D09310935093B093F0943090D
:10011000560949094D09510908000000BE922449B9
:10012000123EABAAAA2ABECDCCCC4C3E0000008029
:10013000BEABAAAAAA3E00000000BF000000803F9C
:100140000000000000084178D3BB4387D1133D195C
:100150000E3CC3BD4282AD2B3E68EC8276BED98F89
:10016000E1A93E4C80EFFFBE01C4FF7F3F000000CD
:1001700000000C9412090C9443090C94E8150C949B
:10018000DB090C9427090C9464080C94EA090C947C
:1001900056090C9442080C9423090C9449090C94B8
:1001A000D8090C94620A0C94DF080C94EC050C94AA
:1001B0000E090C94D6150C94670B0C943F090C9403
:1001C00035090C94990B0C94A0150C943B090C94D4
:1001D0001F090C9431090C94D9090C9451090C9401
:1001E000630A0C944D090C94DA090C94C4150C9410
:1001F000330A0C94060A0C94E8060C94FC150C9433
:1002000033080C941C090C9492080C94E5040C948B
:10021000B2150C9457090C94BF160C94B20E0C94A2
:1002200090150C94FE090C94D90B0C94CA140C94E0
:100230002D090C9456080C944C040C9418090000D9
:100240002100240027002A002D0030003300010186
:100250000000040107010A01000022002500280017
:100260002B002E00310034000201000005010801BE
:100270000B01000020002300260029002C002F0085
:100280003200000100000301060109010505050512
:10029000070508080808020202020A0A08080404FE
:1002A000040401010101010101010303030303032C
:1002B0000303040707070C0C0C0C0C0C0C0C0202BB
:1002C000020206060606060606060B0B0B0B0B0BB8
:1002D0000B0B010210202008081020401020408045
:1002E00002010201080402010102040810204080FA
:1002F0008040201008040201800402018040201088
:1003000008040201080402010102040810204080D0
:10031000010204081020408000000A0B02090C0DA5
:100320000E080703040100000000000000000000A8
:1003300000000000000000000000000000000000BD
:10034000000000001211100000000000000000007A
:100350000000000000000000000000000000BF16C8
:1003600011241FBECFEFD1E2DEBFCDBF00E00CBF36
:1003700016E0A0E0B2E0E0E1F6E300E00BBF02C06F
:1003800007900D92A039B107D9F728E0A0E9B6E0AF
:1003900001C01D92AA3CB207E1F711E0C0EBD1E029
:1003A00000E006C021970109802FFE010E94B41AC7
:1003B000CF3AD10780E00807A9F70E9497120C9462
:1003C000061B0C940000BF92CF92DF92EF92FF9237
:1003D0000F931F93CF93DF938C017B016A016430ED
:1003E000710534F0043011055CF5C0E0D0E024C0A4
:1003F000C4E0D0E0C61BD70B34E0B32E6B2D6C1BD2
:1004000080E00E943D108BEF92E00E947B102197CC
:10041000A9F7E8CF6C2F80E00E943D10F601819192
:1004200091916F010E947B10602F83E10E943D102B
:100430002196C430D10519F1CE15DF055CF31FC03C
:10044000E8012397CE01880F991FC80ED91EB12C41
:10045000CE15DF05A4F40C171D078CF06B2D80E082
:100460000E943D10F601819191916F010E947B10D5
:1004700063E083E10E943D102196B394E9CFDF91C0
:10048000CF911F910F91FF90EF90DF90CF90BF9091
:100490000895CF93DF93EC010E94D21161E080E0D8
:1004A0000E943D108FE093E00E947B1062E080E0AC
:1004B0000E943D1086E193E00E947B1063E080E0A3
:1004C0000E943D10CE010E947B100E94360B68EE08
:1004D00073E080E090E00E943D0C0E94C911DF9122
:1004E000CF910C94D2113F924F925F926F927F9274
:1004F0008F929F92AF92BF92CF92DF92EF92FF9234
:100500000F931F93CF93DF935C014B012A013901B5
:100510003E2CE6010E94360B0E94D21160E080E082
:100520000E943D1081E293E00E947B10C5010E9471
:100530007B1087E794E00E947B1061E080E00E94DE
:100540003D10F201808191810E942412C4010E9419
:100550007B1062E080E00E943D108BE293E00E94FD
:100560007B106E2D70E06F5F7F4F80E090E04AE07F
:100570000E94DA1163E080E00E943D1087E393E07F
:100580000E947B100E947D108434A1F08A32D1F742
:10059000DF91CF911F910F91FF90EF90DF90CF905F
:1005A000BF90AF909F908F907F906F905F904F9093
:1005B0003F9008950E94D21160E080E00E943D10BB
:1005C0008CE493E00E947B10C5010E947B1087E7BA
:1005D00094E00E947B1061E080E00E943D1085E580
:1005E00093E00E947B10C8010E9424128BE593E0E7
:1005F0000E947B10C3010E94241280E693E00E94B7
:100600007B1062E080E00E943D1082E693E00E9451
:100610007B1063E080E00E943D10A12CB12C812C66
:10062000912C8AE0F82EF5E0AF16B10439F40E945F
:10063000D2110E94360B82E793E043C00E947D10E6
:1006400090ED980F9A3018F0843469F710C0F89C38
:100650009001F99C300D1124892F90E04901880EFA
:10066000991E0E9424128FEFA81AB80ADCCF8016B8
:1006700091060CF168147904F4F0F2019182808201
:10068000A880B980CA80DB80EC80FD800E811F814C
:10069000288539854A855B856C857D85FEE03F9E92
:1006A000C00111240E94B80E0E94D2110E94360B84
:1006B0008FE793E006C00E94D2110E94360B8AE8B1
:1006C00093E00E947B1068EE73E080E090E00E946F
:1006D0003D0CDF91CF911F910F91FF90EF90DF9034
:1006E000CF90BF90AF909F908F907F906F905F90D2
:1006F0004F903F900C94C911CF92DF92EF92FF92EE
:1007000087E30E94CD0CBC01990F880B990B0E94C6
:10071000B3189B01AC0160E070E080E894E40E94B3
:10072000091820E030E040E85FE30E94971720E0DE
:1007300030E44CE156E40E94B8190E9470196B0134
:100740007C0129E537E44CEB53E30E94B819A7017B
:1007500096010E94B81923E73FE745E759E30E9455
:100760009817A70196010E94B8192BEE3FEF43E9B5
:100770005AE30E9498179B01AC0160E070E080E8AA
:100780009FE30E94091823E333E948E853E40E94F9
:100790009717FF90EF90DF90CF9008958F929F92E0
:1007A000AF92BF92CF92DF92EF92FF920F931F937F
:1007B000CF93DF93FC010F97DCF168017901CB0146
:1007C000BA018F0120E030E048EC52E40E94B819F1
:1007D0000E947B18EB01B801110F880B990B0E9446
:1007E000B31826E636E646E650E40E9409184B01A7
:1007F0005C01C701B6010E94B3189B01AC01C501A1
:10080000B4010E94B81920E030E04AE754E40E94A5
:1008100009180E947B18AB01BC01CE01BA010E94ED
:100820005F1ACB01693C71052CF088EC90E002C0A6
:1008300080E090E0DF91CF911F910F91FF90EF90BA
:10084000DF90CF90BF90AF909F908F90089588E3F6
:100850000E94CD0C9C01990F440B550B213084E074
:1008600038074105510534F457FF08C020E030E057
:10087000A90104C020E034E040E050E0ACEDB0E07D
:100880000E94DA1ADC01CB012AE0B595A79597956D
:1008900087952A95D1F70895CF92DF92EF92FF9234
:1008A000CF93DF93EC010E94D2110E94360B8FE4AC
:1008B00094E00E947B100E94770C6B017C01CE01BA
:1008C0000E94000F0E94770CAB01BC014C195D091E
:1008D0006E097F098A819B81092E000CAA0BBB0B34
:1008E00084179507A607B707B0F461E088E00E9477
:1008F0003D100E9427040E94241288E594E00E9483
:100900007B108A819B81092E000CAA0BBB0BC80EA1
:10091000D91EEA1EFB1E0E947D108A3281F6DF91ED
:10092000CF91FF90EF90DF90CF900C94C9110F936F
:100930001F9360E083E00E946A0B83E090E00197E0
:10094000F1F761E083E00E946A0B83E290E0019797
:10095000F1F760E083E00E946A0BE4EDF2E064915D
:10096000EEE8F2E0E491F0E0EE0FFF1FEE58FD4FED
:100970008591949100E21EE420E030E0462F0E9431
:100980005212611571058105910539F0DC01CB0129
:100990000196A11DB11DBF7003C080E090E0DC0195
:1009A000BC01990F880B990B0E94B31826E933E418
:1009B0004BE05DE30E94B81920E030E040E05FE3E7
:1009C0000E94B8191F910F9108952F923F924F9254
:1009D0005F926F927F928F929F92AF92BF92CF92CF
:1009E000DF92EF92FF920F931F93CF93DF9300D08C
:1009F00000D0CDB7DEB79E838D83DC012D913C9175
:100A0000FC01A481B5810E94BC1A24E630E040E0DC
:100A100050E00E94951A49015A010E94D2110E9489
:100A2000360B60E080E00E943D1081E694E00E9479
:100A30007B1061E080E00E943D108FE694E00E9410
:100A40007B1062E080E00E943D108AE794E00E9403
:100A50007B1063E080E00E943D1084E894E00E94F7
:100A60007B100E94770C6B017C01C401990CAA0BCE
:100A7000BB0B89839A83AB83BC838D819E810E944B
:100A8000000F0E94770CAB01BC014C195D096E0987
:100A90007F09AD81BE8112968D919C911397092E8D
:100AA000000CAA0BBB0B84179507A607B70708F025
:100AB00072C00E947C032B013C010E9497044B01F1
:100AC0005C010E9427041C01ED81FE8100811181DF
:100AD000012E000C220B330BB501A4010E94CE03A2
:100AE0008C01AD81BE8116966D917C911797072E72
:100AF000000C880B990B0E94B3189B01AC01C30139
:100B0000B2010E94041887FF0AC009811A812B8153
:100B10003C81B501A401C1010E94CE038C0160E0BB
:100B20008CE00E943D1042E0C301B2010E94680ABD
:100B300081E994E00E947B1061E089E00E943D1011
:100B400042E0C501B4010E94680A85E994E00E9470
:100B50007B1062E088E00E943D10C1010E942412D7
:100B600088E594E00E947B1063E08BE00E943D10DA
:100B7000C8010E9424128BE093E00E947B10ED815B
:100B8000FE8182819381092E000CAA0BBB0BC80E3B
:100B9000D91EEA1EFB1E0E947D108A3209F06DCF1D
:100BA0000E94C91126960FB6F894DEBF0FBECDBFC6
:100BB000DF91CF911F910F91FF90EF90DF90CF9039
:100BC000BF90AF909F908F907F906F905F904F906D
:100BD0003F902F900C94D2112F923F924F925F92A0
:100BE0006F927F928F929F92AF92BF92CF92DF923D
:100BF000EF92FF920F931F93CF93DF9300D000D01B
:100C0000CDB7DEB79E838D83FC0120813181A48125
:100C1000B5810E94BC1A24E630E040E050E00E941A
:100C2000951A49015A010E94D2110E94360B60E0C8
:100C300080E00E943D108BE994E00E947B1062E00E
:100C400080E00E943D1080EB94E00E947B100E94A7
:100C5000770C6B017C01092C000CAA08BB088D8164
:100C60009E810E94000F0E94770CAB01BC014C19C1
:100C70005D096E097F09ED81FE8182819381092ED4
:100C8000000CAA0BBB0B84179507A607B70708F043
:100C90007EC00E9497040E947B1869837A838B83AD
:100CA0009C83ED81FE81208031800E9427048C018D
:100CB0000E947C032B013C01ED81FE8166817781DE
:100CC000072E000C880B990B0E94B3189B01AC01F6
:100CD000C301B2010E94041887FD13C0B801110FAF
:100CE000880B990B0E94B31826E636E646E650E4D8
:100CF0000E9409182B013C01B101330C880B990BA0
:100D000012C00E942704BC01990F880B990B0E9406
:100D1000B31826E636E646E650E40E9409182B0191
:100D20003C01C501B4010E94B3189B01AC01C30191
:100D3000B2010E94B81920E030E04AE754E40E9472
:100D400009180E947B188B0161E088E00E943D1029
:100D500089819A810E94241284EC94E00E947B1085
:100D600063E088E00E943D10C8010E94241284ECD8
:100D700094E00E947B10ED81FE8182819381092E97
:100D8000000CAA0BBB0BC80ED91EEA1EFB1E0E944C
:100D90007D108A3209F063CF0E94C91126960FB6E2
:100DA000F894DEBF0FBECDBFDF91CF911F910F91A1
:100DB000FF90EF90DF90CF90BF90AF909F908F907B
:100DC0007F906F905F904F903F902F900C94D21136
:100DD0002F923F924F925F926F927F928F929F924B
:100DE000AF92BF92CF92DF92EF92FF920F931F9339
:100DF000CF93DF9300D000D0CDB7DEB79E838D8335
:100E0000DC012D913C91FC01A481B5810E94BC1AAA
:100E100024E630E040E050E00E94951A69017A0132
:100E20000E94D2110E94360B0E94770C4B015C018C
:100E3000212C312CC601DD0CAA0BBB0B89839A83B4
:100E4000AB83BC838D819E810E94000F0E94770C32
:100E5000AB01BC01481959096A097B09AD81BE8102
:100E600012968D919C911397092E000CAA0BBB0B27
:100E700084179507A607B70708F0D6C00E947C0321
:100E80006B017C01ED81FE8166817781072E000C6C
:100E9000880B990B0E94B3189B01AC01C701B601E6
:100EA0000E94631918169CF4AD81BE81CD90DC9030
:100EB0000D2C000CEE08FF080E9497042B013C014A
:100EC0000E94270497018601B301A2010CC00E9471
:100ED00097046B017C010E94270409811A812B81F0
:100EE0003C81B701A6010E94CE032101032C000C16
:100EF000660877086C01990FEE08FF08B7E9CB1672
:100F0000D104E104F1042CF4F7FC05C09601A7011B
:100F100006C026E901C020E030E040E050E0A0EF4C
:100F2000BFEF0E94E81A26E930E040E050E00E945E
:100F3000951ADA01C9014096A11DB11D481659063E
:100F40006A067B0609F464C0E7E9CE16D104E10421
:100F5000F10434F4F7FE09C0C12CD12C760105C090
:100F600086E9C82ED12CE12CF12CA0EFBFEFA70110
:100F700096010E94E81A26E930E040E050E00E9425
:100F8000951A69017A01F0E1CF0ED11CE11CF11C28
:100F9000160160E080E00E943D108BEF92E00E941D
:100FA0007B1061E080E00E943D108BEF92E00E9498
:100FB0007B1062E086E00E943D1085E00E941B12DB
:100FC00063E086E00E943D1085E00E941B1210E065
:100FD000612F83E10E943D1086E00E941B121F5F7B
:100FE0001430B1F70FE812E0D8018D919C918F3F3A
:100FF000BFEF9B0769F0F80162818C0D0E943D10E4
:10100000D80114968C910E941B120B5F1F4FECCFDE
:10101000ED81FE8182819381092E000CAA0BBB0B0E
:10102000880E991EAA1EBB1E0E947D108A3209F0EE
:1010300009CF26960FB6F894DEBF0FBECDBFDF9165
:10104000CF911F910F91FF90EF90DF90CF90BF90C5
:10105000AF909F908F907F906F905F904F903F9058
:101060002F900C94C911FC01538D448D252F30E035
:10107000842F90E0821B930B541710F0CF960895A5
:1010800001970895FC01918D828D981761F0828DF2
:10109000DF01A80FB11D5D968C91928D9F5F9F73AC
:1010A000928F90E008958FEF9FEF0895FC01918D4E
:1010B000828D981731F0828DE80FF11D858D90E0BB
:1010C00008958FEF9FEF0895FC01918D228D892F58
:1010D00090E0805C9F4F821B91098F739927089540
:1010E000FC01848DDF01A80FB11DA35ABF4F2C91C5
:1010F000848D90E001968F739927848FA689B78994
:101100002C93A089B1898C91837080648C93938D8A
:10111000848D981306C00288F389E02D80818F7D2D
:1011200080830895EF92FF920F931F93CF93DF93E5
:10113000EC0181E0888F9B8D8C8D981305C0E88928
:10114000F989808185FD26C0F62E0B8D10E00F5F9A
:101150001F4F0F731127E02E8C8DE8120CC00FB6B5
:1011600007FCFACFE889F989808185FFF5CFCE01A8
:101170000E947008F1CF8B8DFE01E80FF11DE35A3C
:10118000FF4FF0829FB7F8940B8FEA89FB8980812B
:1011900080620AC09FB7F894EE89FF896083E8896E
:1011A000F98980818370806480839FBF81E090E0B3
:1011B000DF91CF911F910F91FF90EF900895CF9302
:1011C000DF93EC01888D8823C9F0EA89FB8980814F
:1011D00085FD05C0A889B9898C9186FD0FC00FB621
:1011E00007FCF5CF808185FFF2CFA889B9898C9162
:1011F00085FFEDCFCE010E947008E7CFDF91CF9140
:10120000089590E0FC013197E231F10508F04EC0FD
:101210008827E658FF4F8F4F0C94B41A80918000B6
:101220008F7703C0809180008F7D80938000089528
:1012300080918000877FF9CF84B58F7702C084B515
:101240008F7D84BD08958091B0008F7703C0809119
:10125000B0008F7D8093B0000895809190008F77CB
:1012600007C0809190008F7D03C080919000877FA0
:101270008093900008958091A0008F7707C080919F
:10128000A0008F7D03C08091A000877F8093A00085
:101290000895809120018F7707C0809120018F7D74
:1012A00003C080912001877F809320010895CF9211
:1012B000DF92EF92FF920F931F93CF93DF936C0116
:1012C0007A018B01C0E0D0E0CE15DF0581F0D801B6
:1012D0006D918D01D601ED91FC910190F081E02D91
:1012E000C6011995892B11F02196EECF7E01C70119
:1012F000DF91CF911F910F91FF90EF90DF90CF90F2
:1013000008953FB7F8948091A2079091A307A09108
:10131000A407B091A50726B5A89B05C02F3F19F0DB
:101320000196A11DB11D3FBFBA2FA92F982F882765
:10133000820F911DA11DB11DBC01CD0142E0660FC0
:10134000771F881F991F4A95D1F7089585ED8093DF
:10135000BC008091BC0084FDFCCF1092ED06089586
:1013600040915607262F30E0240F311D21323105E0
:10137000DCF42091ED062430C9F4FC0180E090E01B
:10138000861758F4309156072191DC01AA5CB84FBA
:10139000A30FB11D2C930196F3CF80915607680FD0
:1013A0006093560780E0089581E0089582E00895F3
:1013B000089508950895E091E6068091E506E817FE
:1013C00030F4F0E0EA5EF84F808190E008958FEF0E
:1013D0009FEF08959091E6068091E506981750F4E6
:1013E000E92FF0E0EA5EF84F208130E09F5F9093B4
:1013F000E60602C02FEF3FEFC90108958091E50690
:1014000090E02091E606821B91090895CF92DF9229
:10141000EF92FF920F931F93CF93DF937C01CB0149
:101420008A0120911507222389F0EB016B01C40E7C
:10143000D51ECC15DD0569F06991D701ED91FC91C0
:101440000190F081E02DC7011995F3CF642F0E9420
:10145000B009C801DF91CF911F910F91FF90EF90DC
:10146000DF90CF900895CF93DF931F92CDB7DEB773
:101470006983209115072223D1F02091E7062032BD
:1014800040F021E030E0FC013383228380E090E0F3
:1014900015C08091E806E82FF0E0EB50F94F9981F4
:1014A00090838F5F8093E8068093E70605C061E034
:1014B000CE0101960E94B00981E090E00F90DF918B
:1014C000CF910895089580E090E008950E94011B57
:1014D0008F929F92AF92BF92CF92DF92EF92FF9244
:1014E0000F931F93CF93DF936B017C01142F9B010C
:1014F000AC010E94251A882319F083E896E027C0E2
:1015000046015701E894B7F82FEF3FEF4FE75FE749
:10151000C501B4010E94251A81110DC02FEF3FEFC4
:101520004FE75FE7C501B4010E94041818161CF4C8
:1015300087E896E00CC02FEF3FEF4FE75FE4C7016D
:10154000B6010E946319181684F48BE896E0DF91C7
:10155000CF911F910F91FF90EF90DF90CF90BF90B0
:10156000AF909F908F900C9469102FEF3FEF4FE753
:101570005FECC701B6010E94041887FDE6CF20E0AA
:1015800030E0A901C701B6010E94041887FF09C015
:101590008DE20E941B12EC01F7FAF094F7F8F09438
:1015A00002C0C0E0D0E000E060E070E080E09FE3D7
:1015B000101741F020E030E040E251E40E940918A9
:1015C0000F5FF6CFA70196010E9498176B017C016F
:1015D0000E9482184B015C014AE00E94DA11C80F98
:1015E000D91F1123A9F1C501B4010E94B1189B01B3
:1015F000AC01C701B6010E9497176B017C018EE216
:101600000E941B12C80FD91F20E030E040E251E4D5
:10161000C701B6010E94B8194B015C010E948218F3
:101620006B01E12CF12C4AE0C701B6010E94DA11EE
:10163000C80FD91FC701B6010E94B1189B01AC01A8
:10164000C501B4010E9497176B017C011150E1F6AE
:10165000CE01DF91CF911F910F91FF90EF90DF901E
:10166000CF90BF90AF909F908F900895EEEBF8E0F1
:1016700086818D7F868388600C943710CF93DF93AB
:10168000282F30E0F901E85EFC4F8491F901EE5219
:10169000FD4FD491F901E457FD4FC491CC2391F053
:1016A00081110E940109EC2FF0E0EE0FFF1FEE58B0
:1016B000FD4FA591B491EC91ED2381E090E021F4F0
:1016C00080E002C080E090E0DF91CF910895862F06
:1016D0000C943E0B1F93CF93DF93282F30E0F9013A
:1016E000E85EFC4F8491F901EE52FD4FD491F9016F
:1016F000E457FD4FC491CC23C1F0162F81110E94F5
:101700000109EC2FF0E0EE0FFF1FE85AFD4FA59105
:10171000B4919FB7F894111104C08C91D095D8233F
:1017200002C0EC91DE2BDC939FBFDF91CF911F9124
:101730000895862F642F0C946A0BCF93DF9390E06B
:10174000FC01EE52FD4F2491FC01E457FD4F8491C2
:10175000882361F190E0880F991FFC01E25CFD4F46
:10176000C591D491FC01E85AFD4FA591B491611146
:1017700009C09FB7F8948881209582238883EC91D3
:101780002E230BC0623061F49FB7F8948881322F0A
:10179000309583238883EC912E2B2C939FBF06C01A
:1017A0008FB7F894E8812E2B28838FBFDF91CF91DC
:1017B0000895862F642F0C949D0B1F920F920FB6E5
:1017C0000F9211240BB60F922F933F934F935F9379
:1017D0006F937F938F939F93AF93BF93EF93FF93F9
:1017E00086EA97E00E947008FF91EF91BF91AF9158
:1017F0009F918F917F916F915F914F913F912F9129
:101800000F900BBE0F900FBE0F901F9018951F9258
:101810000F920FB60F9211240BB60F922F938F9346
:101820009F93EF93FF93E091B607F091B707808104
:10183000E091BC07F091BD0782FD12C090818091BC
:10184000BF078F5F8F732091C007821751F0E0911F
:10185000BF07F0E0EA55F84F958F8093BF0701C0AE
:101860008081FF91EF919F918F912F910F900BBEEF
:101870000F900FBE0F901F9018958F929F92AF926E
:10188000BF92CF92DF92EF92FF926B017C010E9498
:1018900081094B015C01C114D104E104F104F1F0B0
:1018A0000E948109DC01CB0188199909AA09BB09A9
:1018B000883E9340A105B10570F321E0C21AD1081A
:1018C000E108F10888EE880E83E0981EA11CB11C87
:1018D000C114D104E104F10419F7DDCFFF90EF90BA
:1018E000DF90CF90BF90AF909F908F9008952FB7CB
:1018F000F89460919E0770919F078091A007909146
:10190000A1072FBF08951F920F920FB60F921124B7
:101910002F933F938F939F93AF93BF9380919E0795
:1019200090919F07A091A007B091A10730919D07CA
:1019300023E0230F2D3720F40196A11DB11D05C012
:1019400026E8230F0296A11DB11D20939D078093C9
:101950009E0790939F07A093A007B093A107809143
:10196000A2079091A307A091A407B091A5070196A3
:10197000A11DB11D8093A2079093A307A093A40774
:10198000B093A507BF91AF919F918F913F912F91F8
:101990000F900FBE0F901F901895863308F0865356
:1019A00090917B00282F2870977F922B90937B003B
:1019B0008770806480937C0080917A00806480933B
:1019C0007A0080917A0086FDFCCF8091780020918A
:1019D000790090E0922B08951F920F920FB60F920C
:1019E00011240BB60F922F933F934F935F936F93F6
:1019F0007F938F939F93AF93BF93EF93FF938091C8
:101A0000B900887F803609F49CC068F5883209F4F3
:101A10005BC090F4803109F454C038F4882309F491
:101A2000F6C0883009F44DC0F6C0883109F44CC0C6
:101A3000803209F45DC0EFC0803409F468C048F416
:101A4000803309F455C0883309F0E5C080937907E5
:101A5000D8C0803509F44FC0883509F45DC088349A
:101A600009F0D9C0D6C0883909F4C7C0A8F48837AE
:101A700009F467C038F4883609F463C0803709F484
:101A800060C0C9C0883809F4B8C0803909F45FC0A3
:101A9000803809F0C0C05BC0803B09F486C038F4D0
:101AA000803A09F466C0883A09F47FC0B4C0803C2B
:101AB00009F4A7C0883C09F4A4C0883B09F48AC093
:101AC000AAC080919C0710C090919B0780919A07B3
:101AD000981770F5E0919B0781E08E0F80939B072C
:101AE000F0E0E658F84F80818093BB0085EC86C01B
:101AF000809379078EC0E0919B0781E08E0F8093E1
:101B00009B078091BB00F0E0E658F84F80839091EE
:101B10009B0780919A076EC0E0919B0781E08E0F32
:101B200080939B078091BB00F0E0E658F84F8083DC
:101B30008091EF0681116DC081E08093EE0684EA0A
:101B400061C083E08093ED0610927807CFCF80913B
:101B50007807803208F051C0E091780781E08E0F5D
:101B6000809378078091BB00F0E0E85AF84F8083BB
:101B7000BDCF85EC8093BC001092ED068091780774
:101B8000803230F4E0917807F0E0E85AF84F1082A4
:101B90006091780770E0E091EB06F091EC0688E543
:101BA00097E019951092780736C084E08093ED068F
:101BB0001092570710925607E091E906F091EA0655
:101BC000199580915607811105C081E080935607D1
:101BD00010923607E091570781E08E0F80935707E8
:101BE000F0E0EA5CF84F80818093BB00909157074A
:101BF00080915607981708F479CF85E88093BC0048
:101C00000AC085EC8093BC001092ED0604C01092CF
:101C100079070E94A609FF91EF91BF91AF919F9123
:101C20008F917F916F915F914F913F912F910F9085
:101C30000BBE0F900FBE0F901F901895CF93FC0115
:101C4000C48121E020931507C093F4061092E806A2
:101C50001092E7068385682B83E498E00E94330A9C
:101C60009091E706913208F045C08091ED06811110
:101C7000FCCF82E08093ED0681E08093EF068FEF4A
:101C80008093790710929B0790939A07A5EFB6E08F
:101C9000EAE7F7E080E0981721F02D9121938F5F1C
:101CA000FACF10929C0780919C07CC0FC82BC09351
:101CB0009C078091EE06813061F41092EE068091CF
:101CC0009C078093BB008091BC0083FDF8CF85EC1E
:101CD00001C085EE8093BC008091ED068230E1F377
:101CE000809179078F3F31F080917907803211F030
:101CF000809179071092E8061092E7061092150776
:101D0000CF9108950F931F93CF938C01C62F0E94FC
:101D10001E0E6C2F6460C8010E941E0E6C2F6B7F1C
:101D2000C8010E941E0E83EC90E00197F1F7CF915D
:101D30001F910F9108950F931F93CF93DF938C0101
:101D4000C62FD42F607F642B0E94820E80E1C89F33
:101D5000B00111246D2BC801DF91CF911F910F911C
:101D60000C94820E41E00E949B0E81E090E0089569
:101D70008F929F92AF92BF92CF92DF92EF92FF929B
:101D80000F931F93CF93DF93CDB7DEB72E970FB688
:101D9000F894DEBF0FBECDBF4C01A982BA82CB82C0
:101DA000DC82ED82FE820F83188729873A874B8772
:101DB0005C876D877E87CE0101967C0100E010E094
:101DC000F70161917F01C801880D991D0E94891753
:101DD0000F5F1F4F0E30110599F72E960FB6F8942E
:101DE000DEBF0FBECDBFDF91CF911F910F91FF904E
:101DF000EF90DF90CF90BF90AF909F908F9008951D
:101E00004F925F926F927F92AF92BF92CF92DF928A
:101E1000EF92FF920F931F93CF93DF935C01FC012E
:101E2000C080D1800D2C000CEE08FF080E949704A2
:101E30002B013C010E94270497018601B301A201F6
:101E40000E94CE03EC01F50180859185892B09F470
:101E500081C00E94770CC090F006D090F106E0900F
:101E6000F206F090F3062091750230917602290176
:101E7000612C712CAB01BC014C195D096E097F0905
:101E8000441655066606770608F064C0D701C601F9
:101E9000840D951DA61DB71D8093F0069093F10645
:101EA000A093F206B093F306209779F1CE01DD0FEF
:101EB000AA0BBB0B85369105A105B10554F48E31F3
:101EC0009105A105B1054CF48EE190E0A0E0B0E0F1
:101ED00004C084E690E0A0E0B0E09C01AD012E518A
:101EE000310941095109ACE2B1E00E94DA1A26E455
:101EF00030E040E050E00E94951ADA01C9018853B1
:101F00009F4FAF4FBF4F9C0102C024EF31E0309391
:101F1000760220937502243F314091F460E08AE01C
:101F2000DF91CF911F910F91FF90EF90DF90CF90B5
:101F3000BF90AF907F906F905F904F900C946A0B22
:101F4000C09174026C2F8AE00E946A0B61E06C27DA
:101F500060937402DF91CF911F910F91FF90EF90EA
:101F6000DF90CF90BF90AF907F906F905F904F9039
:101F7000089596E0899FD0011124A15BB74F9096F8
:101F80007C936E935F9791E091969C93919790913B
:101F9000BB08E091BC08F091BD08992339F0309757
:101FA00051F0811108C080916B0804C0309719F07E
:101FB0005C968C91199408950F931F93CF93DF93A0
:101FC000C82FD62F86E0C89FF0011124E15BF74FA0
:101FD00011A2878D90A181309105D9F040F0823017
:101FE0009105A9F10397F1F560E070E034C0662334
:101FF000C9F161E070E08C2F0E94B90F0E94770C4C
:102000006093A7087093A8088093A9089093AA08E2
:1020100029C00E94770C0091A7081091A808209170
:10202000A9083091AA08AB01BC01401B510B620BFF
:10203000730B8091B9089091BA08A0E0B0E08417C2
:102040009507A607B70718F462E070E004C0D11145
:1020500009C063E070E08C2FDF91CF911F910F9149
:102060000C94B90FDF91CF911F910F91089540E02B
:10207000682F8EEB98E00C949B0ECF93DF93CDB737
:10208000DEB728970FB6F894DEBF0FBECDBF98E03D
:10209000E9EBF2E0DE01119601900D929A95E1F7DD
:1020A0009091C608961710F46FEF690FFE013196F4
:1020B000E60FF11DE60FF11D9081890F80682896CB
:1020C0000FB6F894DEBF0FBECDBFDF91CF910C9459
:1020D0003710009769F0FC0101900020E9F7319773
:1020E000AF01481B590BBC018EEB98E00C945709CB
:1020F00080E090E008950C9469106F927F928F9227
:102100009F92AF92BF92CF92DF92EF92FF920F9386
:102110001F93CF93DF9381E08093BB080E94770CDD
:102120000091AB081091AC082091AD083091AE0839
:10213000AB01BC01401B510B620B730B8091B708C4
:102140009091B808A0E0B0E084179507A607B707FC
:1021500008F0E6C0C0E08091B508C81730F0712CD7
:10216000812C912C5401839440C0E091B108F091EE
:10217000B208EC0FF11D62E080810E949D0BCF5FE1
:10218000EACFC62DD0E0E091B108F091B208EC0F93
:10219000FD1F80810E943E0B2496CC0FDD1FC15B8A
:1021A000D74F892B09F04BC0888199818C299D29B3
:1021B0009983888363948091B508681610F3E09141
:1021C000B308F091B408E00FF11F61E080810E9434
:1021D0006A0B8091B3089091B408FC01E00FF11FE5
:1021E00060E080810E949D0B73948091B608781600
:1021F00058F5072D10E0E091B308F091B408E00F16
:10220000F11F61E080810E949D0BE091B308F09185
:10221000B408E00FF11F60E080810E946A0BD501D5
:10222000C401072C04C0880F991FAA1FBB1F0A9462
:10223000D2F76C017C01E094F094612CBCCF8881D2
:1022400099818E219F21B4CF2FE4E22E28E0F22E37
:10225000F7018FEF9FEF278D30A1232B21F4148EF0
:10226000968F858F11A2369628E0EB38F20799F702
:10227000C0E096E0D92E8091B508C81758F5D0E097
:102280000C2F10E0000F111F095A174F2091B608AC
:10229000D217F0F4F801408151810D2E02C05695FD
:1022A00047950A94E2F7642F6170C29F9001112450
:1022B0002D0F311DEFE4F8E080E0A58DB68D2A17D3
:1022C0003B0709F44DC08F5F36968A30B1F72CC0BA
:1022D000CF5FD1CFC0E0F70181A18111C1E0F6E06D
:1022E000EF0EF11C2BE8E21628E0F206A1F70E949F
:1022F000770C6093AB087093AC088093AD08909313
:10230000AE08CC2369F080917008882349F0809151
:102310006E0890916F08019719F480916B082AC09C
:102320001092BB0880E026C040FF1CC0EFE4F8E03C
:1023300080E090E0448D411117C0E091AF08F0912A
:10234000B008E20FF31F4081D89EF001D99EF00D36
:102350001124E15BF74F448F368F258F10A2178E23
:102360000E94DC0FDF5F92CF019636968A3091058E
:1023700009F7F8CFDF91CF911F910F91FF90EF9068
:10238000DF90CF90BF90AF909F908F907F906F9095
:102390000895EEEBF8E08681982F926096838A602C
:1023A0000C94371081E00E9437108BE39FE1019776
:1023B000F1F708958F929F92AF92BF920F931F9360
:1023C000CF93DF93CDB7DEB7A1970FB6F894DEBFFA
:1023D0000FBECDBF19A2423008F44AE08E010F5D56
:1023E0001F4F842E912CA12CB12CA50194010E9489
:1023F000731AE62FB901CA0101501109EA3014F429
:10240000E05D01C0E95CD801EC93232B242B252B44
:1024100061F7C8010E946910A1960FB6F894DEBF5B
:102420000FBECDBFDF91CF911F910F91BF90AF90A5
:102430009F908F90089541E0682F8EEB98E00E9466
:102440009B0E81E090E00895CF92DF92EF92FF9291
:10245000CF93DF936C01990FEE08FF08F7FE17C0CA
:102460008DE20E941B12EC0166277727CB016C19C5
:102470007D098E099F094AE00E94DA118C0F9D1F89
:10248000DF91CF91FF90EF90DF90CF9008954AE0D9
:10249000C701B601DF91CF91FF90EF90DF90CF9011
:1024A0000C94DA11CF92DF92EF92FF920F931F9369
:1024B000E82FF92F05C0015011092109310961F1F7
:1024C000908196239417B9F305C001501109210991
:1024D000310911F1908196239413F7CFC12CD12C9F
:1024E000E12CF12C0AC08FEFC81AD80AE80AF80AC2
:1024F0000C151D052E053F0579F080818623841774
:1025000091F36C2D7D2D8E2D9F2D1F910F91FF909E
:10251000EF90DF90CF90089560E070E080E090E071
:102520001F910F91FF90EF90DF90CF9008957894D6
:1025300084B5826084BD84B5816084BD85B58260C8
:1025400085BD85B5816085BD80916E008160809379
:102550006E001092810080918100826080938100E2
:1025600080918100816080938100809180008160F2
:10257000809380008091B10084608093B10080914D
:10258000B00081608093B000809191008260809360
:1025900091008091910081608093910080919000E2
:1025A0008160809390008091A10082608093A1005F
:1025B0008091A10081608093A1008091A000816042
:1025C0008093A000809121018260809321018091FD
:1025D000210181608093210180912001816080939D
:1025E000200180917A00846080937A0080917A0043
:1025F000826080937A0080917A00816080937A0073
:1026000080917A00806880937A001092C100E091F6
:10261000B607F091B70782E08083E091B207F091AE
:10262000B3071082E091B407F091B5078FEC808377
:102630001092BE07E091BA07F091BB0786E0808355
:10264000E091B807F091B907808180618083E091C3
:10265000B807F091B907808188608083E091B8075E
:10266000F091B907808180688083E091B807F0918C
:10267000B90780818F7D808360E087E30E949D0B96
:1026800061E083E00E949D0B60E082E00E949D0B70
:1026900061E08AE00E949D0B60E08AE00E946A0B84
:1026A0001092E6061092E5061092E8061092E706F0
:1026B0001092ED0681E08093EF061092EE0661E045
:1026C00084E10E946A0B61E085E10E946A0B8091BF
:1026D000B9008E7F8093B9008091B9008D7F80937F
:1026E000B90088E48093B80085E48093BC0088ED4D
:1026F00099E09093EA068093E90689ED99E090933A
:10270000EC068093EB061092C3088091C8088230D3
:1027100018F098E09093C3088093C60862E370E0D5
:1027200080E090E00E943D0C6091C9088EEB98E03B
:102730000E941E0E68EE73E080E090E00E943D0C67
:1027400060E38EEB98E00E94820ECBE4D6E4CE01EB
:102750000197F1F760E38EEB98E00E94820E2197DB
:10276000F1F760E38EEB98E00E94820E83E592E041
:102770000197F1F760E28EEB98E00E94820E809163
:10278000C30880620E94371084E08093C4088CE004
:102790000E9437100E94D21182E08093C50886E023
:1027A0000E94371082E00E9437108BE39FE101976F
:1027B000F1F788E08093C90860E08EEB98E00E9412
:1027C0001E0E0E94C911FDEAEF2EF2E0FF2E01E07D
:1027D00010E0D701CD91DD917D01C801E3E0880FC4
:1027E000991FEA95E1F780640E9437106E01B8E006
:1027F000CB0ED11C69918EEB98E00E94B20ECC16E4
:10280000DD06C1F70F5F1F4F0730110511F7C0E05C
:10281000D0E0FE01EF56F94F7F0100E010E0C80163
:102820008C0F9D1F0E948117D7018D937D010F5F33
:102830001F4F0E30110599F72E96C435D10549F773
:1028400084E590E00E94811780939006BEE08B9F04
:10285000C00111248F56994F909373028093720296
:10286000609170027091710248E652E080E090E061
:102870000E94E301C8E6D2E040E7842E42E0942EB5
:1028800058EE252E56E0352E6CEE662E65E0762E3F
:1028900075EE472E74E0572EF401008111810E94DD
:1028A000D2110E94C911AE01B80180E090E00E94EF
:1028B000E301C12CD12C7801F1E0EF1AF1080E945C
:1028C0007D108A3209F446C2823361F41C141D045F
:1028D00024F421E0C21AD10813C0680181E0C81AAB
:1028E000D1080EC0883319F0853349F70FC0CE14D4
:1028F000DF0424F49FEFC91AD90A02C0C12CD12CDD
:10290000AE01B801C6010E94E301D9CFA2E0C836EA
:10291000DA0789F5B1E0CB16D104F9F074F4CD28CB
:1029200009F0BACF8091720290917302DC011C967B
:10293000ED91FC911D971995AFCFF2E0CF16D10420
:1029400099F023E0C216D10409F0A6CFCEE3D2E07D
:1029500082E6882E82E0982E9FCFC8E5D2E026E658
:10296000822E22E0922E98CFCAE4D2E094E6892EFD
:1029700092E0992E91CFB2E0C835DB0709F0BFC0D5
:10298000E1E0CE16D10409F459C06CF52FEFC21660
:10299000D20639F4C8E6D2E030E7832E32E0932E37
:1029A0007BCFCD2809F078CFE0917202F0917302CD
:1029B000642D5586448680919006A080B180C280A7
:1029C000D380E480F580068117812085318542859A
:1029D00053857585BEE08B9FC00111240E94B80EFF
:1029E00087E993E04BC083E0C816D10409F468C0BE
:1029F0000CF447C0A4E0CA16D10409F04DCFE09111
:102A00007202F0917302662D75866486809190063D
:102A1000A080B180C280D380E480F58006811781D8
:102A200020853185428553857585FEE08F9FC001E5
:102A300011240E94B80E8DE093E020C0E091720254
:102A4000F09173028CE494E0682F958784878091DD
:102A50009006A080B180C280D380E480F58006819A
:102A6000178120853185428553857585AEE08A9F23
:102A7000C00111240E94B80E86EA93E00E94490228
:102A80000BCFE0917202F0917302662D7586648619
:102A900080919006A080B180C280D380E480F580D0
:102AA0000681178120853185428553857585BEE075
:102AB0008B9FC00111240E94B80E85EB93E0DECFFE
:102AC000E0917202F0917302622D35862486809126
:102AD0009006A080B180C280D380E480F58006811A
:102AE000178120853185428553857585EEE08E9F5F
:102AF000C00111240E94B80E84EC93E0BFCF22E005
:102B0000CA34D20709F0DBC0F6013196E830F1058E
:102B100008F0C2CE8827EE58FF4F8F4F0C94B41A9E
:102B200040917202509173026A01E090900604EFA6
:102B300011E028E833E16FEC73E082ED93E059C0D7
:102B4000C0907202D0907302A6014C5F5F4FE0907C
:102B5000900604E610E02CE231E06CED73E08EEDBF
:102B600093E047C0C0907202D0907302A6014E5FFE
:102B70005F4FE090900604E610E020ED37E06FEC48
:102B800073E088EE93E035C0C0907202D09073027B
:102B9000A6014A5F5F4FE090900600E010E02EE152
:102BA00030E062EF73E084EF93E023C0C0907202E4
:102BB000D0907302A601485F5F4FE090900600E05E
:102BC00010E021E030E06DE073E08FEF93E011C0A2
:102BD000C0907202D0907302A601465F5F4FE090F2
:102BE000900600E010E021E030E06DE073E084E06A
:102BF00094E00E94730250CE809172029091730211
:102C00002EE0E0E3F2E0DC0101900D922A95E1F77D
:102C1000E0919006DC01AC901196BC901197129651
:102C2000CC9012971396DC9013971496EC9014970F
:102C30001596FC90159716960C91169717961C9161
:102C4000179718962C91189719963C9119971A96E0
:102C50004C911A971B965C911B971C966C911C9734
:102C60001D967C91BEE0EB9FC00111240E94B80E1E
:102C70000091900610E00F5F1F4F0E94D21160E09C
:102C800080E00E943D108AE094E00E947B1061E0A9
:102C900080E00E943D108EE194E00E947B10C8010C
:102CA0000E9424120E94360B68EE73E080E090E0F0
:102CB0000E943D0C0E94C9110E94D211EDCDE2E0AC
:102CC000CE33DE0709F0E8CDFFEFCF16DF0609F4BB
:102CD00061CEC09290062EE0C29EC00111248F5694
:102CE000994F90937302809372026C2D84E590E06B
:102CF0000E948917C0919006D0E021960E94D211BF
:102D000060E080E00E943D108DE294E00E947B1024
:102D100061E080E00E943D1087E394E00E947B1018
:102D200062E080E00E943D10CE010E94241283E404
:102D300094E00E947B100E94360B68EE73E080E006
:102D400090E00E943D0C0E94C9110E94D211C8E679
:102D5000D2E0A2CD82E0C836D80709F49DCD92E03A
:102D6000C835D90709F416CEA2E0CA34DA0709F447
:102D700011CEB2E0CE33DB0709F08ECD0BCE109230
:102D8000A9071092A80788EE93E0A0E0B0E0809336
:102D9000AA079093AB07A093AC07B093AD0725ECBF
:102DA00032E03093A7072093A60725EC30E030935C
:102DB000B3072093B20724EC30E03093B50720939B
:102DC000B40720EC30E03093B7072093B60721EC2E
:102DD00030E03093B9072093B80722EC30E030930D
:102DE000BB072093BA0726EC30E03093BD07209351
:102DF000BC071092BF071092C0071092C107109233
:102E0000C207109246081092450880934708909395
:102E10004808A0934908B0934A0887ED92E0909340
:102E20004408809343081092C1081092C00883EFB1
:102E300092E09093BF088093BE088FE38093C2080E
:102E400084E18093C70884E08093C8081092C90881
:102E5000109251081092550810925408109256087A
:102E600089EE92E09093500880934F08EFE4F8E0E9
:102E70008BE898E0148E10A2178E11A236968E174A
:102E80009F07C1F78BE792E09093B2088093B10857
:102E900087E792E09093B4088093B30884E080932E
:102EA000B5088093B6082FE732E03093B00820933E
:102EB000AF082AE030E03093B8082093B70824EF39
:102EC00031E03093BA082093B9081092BD081092EF
:102ED000BC081092AB081092AC081092AD0810928A
:102EE000AE081092BB0891E09093930290939802E1
:102EF00092E090939D0293E09093A2028093A702A8
:102F00000895F999FECF92BD81BDF89A992780B5B1
:102F10000895262FF999FECF1FBA92BD81BD20BD1D
:102F20000FB6F894FA9AF99A0FBE01960895505880
:102F3000BB27AA270E94AF170C9429190E941B19BE
:102F400038F00E94221920F039F49F3F19F426F43A
:102F50000C9418190EF4E095E7FB0C941219E92F64
:102F60000E943A1958F3BA17620773078407950746
:102F700020F079F4A6F50C945C190EF4E0950B2E74
:102F8000BA2FA02D0B01B90190010C01CA01A001BB
:102F90001124FF27591B99F0593F50F4503E68F116
:102FA0001A16F040A22F232F342F4427585FF3CF57
:102FB000469537952795A795F0405395C9F77EF428
:102FC0001F16BA0B620B730B840BBAF09150A1F071
:102FD000FF0FBB1F661F771F881FC2F70EC0BA0FF7
:102FE000621F731F841F48F4879577956795B7957F
:102FF000F7959E3F08F0B0CF9395880F08F099277A
:10300000EE0F9795879508950E94EE1808F481E0D9
:1030100008950E941D180C9429190E94221958F035
:103020000E941B1940F029F45F3F29F00C941219FB
:1030300051110C945D190C9418190E943A1968F3F7
:103040009923B1F3552391F3951B550BBB27AA2761
:1030500062177307840738F09F5F5F4F220F331F9B
:10306000441FAA1FA9F335D00E2E3AF0E0E832D063
:1030700091505040E695001CCAF72BD0FE2F29D066
:10308000660F771F881FBB1F261737074807AB0738
:10309000B0E809F0BB0B802DBF01FF2793585F4FAD
:1030A0003AF09E3F510578F00C9412190C945D197A
:1030B0005F3FE4F3983ED4F3869577956795B7958F
:1030C000F7959F5FC9F7880F911D9695879597F99A
:1030D0000895E1E0660F771F881FBB1F6217730713
:1030E0008407BA0720F0621B730B840BBA0BEE1F28
:1030F00088F7E09508950E9482186894B1110C94A5
:103100005D1908950E94421988F09F5798F0B92FD1
:103110009927B751B0F0E1F0660F771F881F991F0C
:103120001AF0BA95C9F714C0B13091F00E945C1939
:10313000B1E008950C945C19672F782F8827B85F49
:1031400039F0B93FCCF3869577956795B395D9F764
:103150003EF490958095709561957F4F8F4F9F4F6E
:103160000895E89409C097FB3EF49095809570957A
:1031700061957F4F8F4F9F4F9923A9F0F92F96E9C3
:10318000BB279395F695879577956795B795F11138
:10319000F8CFFAF4BB0F11F460FF1BC06F5F7F4FD5
:1031A0008F4F9F4F16C0882311F096E911C07723E7
:1031B00021F09EE8872F762F05C0662371F096E8F0
:1031C000862F70E060E02AF09A95660F771F881FBF
:1031D000DAF7880F9695879597F90895990F000863
:1031E000550FAA0BE0E8FEEF16161706E807F907D9
:1031F000C0F012161306E407F50798F0621B730B74
:10320000840B950B39F40A2661F0232B242B252BF4
:1032100021F408950A2609F4A140A6958FEF811D97
:10322000811D089597F99F6780E870E060E0089538
:103230009FEF80EC089500240A94161617061806CE
:103240000906089500240A941216130614060506AA
:103250000895092E0394000C11F4882352F0BB0F3B
:1032600040F4BF2B11F460FF04C06F5F7F4F8F4F9E
:103270009F4F089557FD9058440F551F59F05F3FD9
:1032800071F04795880F97FB991F61F09F3F79F088
:1032900087950895121613061406551FF2CF46950A
:1032A000F1DF08C0161617061806991FF1CF86958C
:1032B0007105610508940895E894BB276627772770
:1032C000CB0197F908950E94EE1808F48FEF089546
:1032D00016F00C942A1A0C94181968940C9412196C
:1032E0000E944219A8F39923C1F3AEF3DF93CF9361
:1032F0001F930F93FF92C92FDD2788232AF0219770
:10330000660F771F881FDAF720E030E040E85FEBB8
:103310009FE3883920F0803E38F021968F770E9415
:103320009817E8E1F1E004C00E949817E5E4F1E0A5
:103330000E94381A8B01BE01EC01FB2E6F577109F8
:103340007595771F880B990B0E94B31828E132E717
:1033500041E35FE30E94CB19AF2D9801AE01FF90CE
:103360000F911F91CF91DF910E94AF170C942919F3
:103370000E94CB190C9429190E941B1938F00E9445
:10338000221920F0952311F00C9412190C9418199D
:1033900011240C945D190E943A1970F3959FC1F3A2
:1033A000950F50E0551F629FF001729FBB27F00DF3
:1033B000B11D639FAA27F00DB11DAA1F649F662748
:1033C000B00DA11D661F829F2227B00DA11D621F97
:1033D000739FB00DA11D621F839FA00D611D221F51
:1033E000749F3327A00D611D231F849F600D211D35
:1033F000822F762F6A2F11249F5750409AF0F1F0B8
:1034000088234AF0EE0FFF1FBB1F661F771F881F20
:1034100091505040A9F79E3F510580F00C9412192D
:103420000C945D195F3FE4F3983ED4F3869577954D
:103430006795B795F795E7959F5FC1F7FE2B880FC6
:10344000911D9695879597F908950E94EE18880B1F
:10345000990B08959F3F31F0915020F4879577950F
:103460006795B795880F911D9695879597F908955B
:10347000DF93CF931F930F93FF92EF92DF927B0125
:103480008C01689406C0DA2EEF010E94CB19FE0170
:10349000E894A5912591359145915591A6F3EF01B9
:1034A0000E94AF17FE019701A801DA9469F7DF9037
:1034B000EF90FF900F911F91CF91DF91089597FBAF
:1034C000072E16F4009407D077FD09D00E94ED1A5C
:1034D00007FC05D03EF4909581959F4F0895709517
:1034E00061957F4F0895A1E21A2EAA1BBB1BFD0117
:1034F0000DC0AA1FBB1FEE1FFF1FA217B307E407D3
:10350000F50720F0A21BB30BE40BF50B661F771F2A
:10351000881F991F1A9469F760957095809590950A
:103520009B01AC01BD01CF010895052E97FB1EF450
:1035300000940E94AC1A57FD07D00E94731A07FC32
:1035400003D04EF40C94AC1A5095409530952195CB
:103550003F4F4F4F5F4F08959095809570956195BF
:103560007F4F8F4F9F4F0895EE0FFF1F881F8BBF18
:103570000790F691E02D19940E94C41A332312F497
:103580008A1B9B0B0C94D51AA29FB001B39FC0015C
:10359000A39F700D811D1124911DB29F700D811D7F
:1035A0001124911D08950E94C41AB7FF0895821B2B
:1035B000930B08950E94C41AA59F900DB49F900D7F
:1035C000A49F800D911D11240895B7FF0C94DA1A61
:1035D0000E94DA1A821B930B0895AA1BBB1B51E1B0
:1035E00007C0AA1FBB1FA617B70710F0A61BB70B73
:1035F000881F991F5A95A9F780959095BC01CD0118
:10360000089581E090E0F8940C94061BF894FFCFA5
:103610001F1F1F1F1F1F1F1F0101010101010101AA
:1036200000000000101F1F1F0000001F1F1F1F1F92
:1036300000000000011F1F1F0E0E00000000000010
:10364000DC05F4016400030000000100E504CB0484
:10365000DF04F30407051B052F05430557056B051C
:103660007F059305A705BB05CF05E305F7050B0609
:103670001F06060007000500330647065B066F06B7
:1036800004003002012C0141403F3E454443423199
:1036900032334134353642373839432A30234400F7
:1036A0000001000002000100000000000000010015
:1036B0000000000200000000FFFFFFFF00280220C2
:1036C0000218021002080200020000400014005418
:1036D0000000000000920857093308DF0864084220
:1036E00008560800000000330A060A630ADA09FED9
:1036F00009EA09DB0900000000D90B990B670B00F0
:10370000000000B20E5709630A620A202020202020
:103710002020202020202020202020202020005099
:1037200072696B617A00537072656D656E6A656E61
:1037300000567265646E6F7374200055706F72610D
:10374000626E696B3A2000537072656D656E692018
:10375000767265646E6F73743A20440056706973B4
:103760006974652000286D6564200020696E200062
:1037700029005A61207A616B6C6A756369743A201A
:10378000440050524556454C494B41205354005635
:103790006E6F7320757370656C004E4150414345E8
:1037A0004E20564E4F53004F736E6F766E692070E9
:1037B00072696B617A005072696B617A2068697412
:1037C000726F7374005072696B617A2072617A64EF
:1037D000616C6A0047726166696B61203120006D1F
:1037E00073007661726E6F73746E610025006B6F8B
:1037F00065662074656D7000726566722072617412
:10380000650043006D656A6E612074656D70007AB5
:10381000766F6B006C75636B65004E6173746176D7
:103820006974766520706F6E6173742E20007A6102
:103830002075706F7261626E696B61200055706FE8
:103840007261626E696B00737072656D656E6A6538
:103850006E3A002075706F7261626E696B2E00485F
:103860006974726F73743A00206B6D2F682020208A
:103870000054656D70657261747572613A20005212
:10388000617A64616C6A613A2000486974726F738E
:10389000743A20004B6F6566696369656E743A20FF
:1038A0000020432000206D202020005661726E6FA2
:1038B00073746E612072617A64616C6A613A20008F
:1038C000496465616C6E61207661726E6F73746EAF
:1038D000613A20006D20202020200055706F726119
:1038E000626E696B2031202020202020202000558E
:1038F000706F7261626E696B203220202020202060
:1039000020200055706F7261626E696B2033202039
:103910002020202020200055706F7261626E696B3C
:10392000203420202020202020200055706F72613C
:10393000626E696B20352020202020202020005539
:10394000706F7261626E696B20362020202020200B
:10395000202000496465616C6E61207661726E6F33
:103960007374202020200056706C69762074656D79
:103970006570657261747572652000526566726566
:103980007368207261746520202020202020004D63
:10399000656A6E612074656D7065726174757261BF
:1039A0002020005A766F636E6F206F706F7A6F728F
:1039B000696C6F20202000537665746C6F626E6FA7
:1039C000206F706F7A6F72696C2000506F6E617338
:1039D0007461766920707269767A65746F20004F21
:1039E000736E6F766E69207072696B617A20202029
:1039F000202000486974726F7374202020202020DA
:103A00002020202020200052617A64616C6A6520A9
:103A1000202020202020202020200047726166697D
:103A2000636E69207072696B617A203120200047D3
:103A300072616669636E69207072696B617A2032A7
:103A40002020005072696B617A20202020202020E5
:103A500020202020202000497A626F722070726935
:103A60006B617A61202020202020004E61737461F8
:103A700076697476652020202020202020200049AF
:103A80007A626572692075706F7261626E696B61CE
:103A90002020006E616E00696E66006F7666000021
:00000001FF
